:100000000C94422E0C94732E0C94732E0C94732E1D
:100010000C94732E0C94732E0C94732E0C94732EDC
:100020000C94732E0C94732E0C94732E0C94732ECC
:100030000C94732E0C94BBFE0C94732E0C94732EA4
:100040000C94732E0C94FEBB0C94732E0C94732E94
:100050000C94732E0C94732E0C9482F00C949AFFD3
:100060000C94732E0C9458F00C9428F00C94732E6E
:100070000C94732E0C94732E0C94732E0C94732E7C
:100080000C94732E0C94732E0C94732E0C94732E6C
:100090000C94732E0C94732E0C94732E0C94732E5C
:1000A0000C94732E0C94732E0C94732E0C94732E4C
:1000B0000C94732E0C94732E0C94732E0C94732E3C
:1000C0000C94732E0C94732E0C94732E0C94732E2C
:1000D0000C94732E0C94732E0C94732E0C94732E1C
:1000E0000C94732EA834AD34B234BE34CA345735B0
:1000F000D634DE34E634F234FE340A351B35273587
:10010000573533353F354B35BFFDC2FDB1FDB5FD2C
:10011000BBFDF9FDC6FDCAFDD0FDD4FDD8FDDEFD59
:10012000E2FDE6FDF9FDECFDF0FDF4FD13014701F4
:10013000470147014701470147014701470147017F
:10014000470147014701470147014701470147016F
:100150004701470147014701470117012F012301CB
:100160000D01290131012D013B01370141010F0131
:100170004301490111012B01190147011F0125010B
:100180001B01470147014701210135013F0147019B
:100190004701470147014701470117012F0123018B
:1001A0000D01290131012D013B01370141010F01F1
:1001B0004301490111012B01190147011F012501CB
:1001C0001B01470147014701210135013F01084A51
:1001D000D73B3BCE016E84BCBFFDC12F3D6C74315B
:1001E0009ABD56833DDA3D00C77F11BED9E4BB4CB2
:1001F0003E916BAAAABE000000803F05A84CCDB27C
:10020000D44EB93836A9020C50B9918688083CA65C
:10021000AAAA2ABE000000803F000D9438040D9465
:1002200090040D9409030D94CC040D948B020D944D
:100230006E040D94FD030D94E3030D9479020D9467
:100240002B040D9499030D9449040D94F0030D941F
:1002500076020D94C6030D94B2040D9422030D94FE
:100260007F040D94D3030D94551D0D94A9030D9493
:100270000D040D94561D0D945D040D9474020D949F
:10028000B6030D941A040D94A1040D94F9060D946F
:10029000E7040D9437034E414E494E495459494E97
:1002A00046CDCCCC3D0AD7233C17B7D13877CC2BE1
:1002B000329595E6241FB14F0A000020410000C886
:1002C0004200401C4620BCBE4CCA1B0E5AAEC59D07
:1002D00074456E642066696C65206C6973740042B5
:1002E0006567696E2066696C65206C69737400537C
:1002F00044207072696E74696E672062797465203B
:10030000004E6F74205344207072696E74696E677A
:100310000057726974696E6720746F2066696C6536
:100320003A20006F70656E206661696C65642C20F0
:1003300046696C653A20004372656174696F6E208E
:100340006661696C6564004469726563746F727993
:10035000206372656174656400576569676874201D
:1003600000657874727564657220636F6F6C657276
:10037000207370656564205B302D3235355D006417
:10038000697374616E636520746F20726574726145
:100390006374207768656E2068656174696E672094
:1003A0005B6D6D5D0074656D702E20666F722072DE
:1003B000657472616374696F6E207768656E20681A
:1003C000656174696E67205B435D0074656D702EB6
:1003D0002073746162696C697A652074696D652047
:1003E0005B735D005A2D6F6666736574205B737472
:1003F0006570735D00592D6F6666736574205B735D
:10040000746570735D00582D6F6666736574205B4C
:1004100073746570735D00504944206D6178207677
:10042000616C7565205B302D3235355D0050494477
:1004300020442D6761696E0050494420492D676151
:10044000696E0050494420502D6761696E2F6465C4
:1004500061642D74696D6500504944206472697649
:1004600065206D696E00504944206472697665208C
:100470006D61780068656174206D616E6167657299
:10048000205B302D335D00507265686561742074A7
:10049000656D702E205BB0435D00616363656C65C4
:1004A000726174696F6E205B6D6D2F735E325D00DB
:1004B0007374617274206665656472617465205B33
:1004C0006D6D2F735D006D61782E206665656472B9
:1004D000617465205B6D6D2F735D0073746570735F
:1004E00020706572206D6D0052657472616374696D
:1004F0006F6E20756E646F2073706565640045785B
:1005000074726120657874727573696F6E206F6E96
:1005100020756E646F2073776974636820726574E8
:1005200072616374205B6D6D5D004578747261204B
:10053000657874727573696F6E206F6E20756E6466
:100540006F2072657472616374205B6D6D5D005223
:10055000657472616374696F6E207A2D6C6966745C
:10056000205B6D6D5D0052657472616374696F6EBE
:10057000207370656564205B6D6D2F735D0052653F
:100580007472616374696F6E206C656E6774682045
:100590006578747275646572207377697463682016
:1005A0005B6D6D5D0052657472616374696F6E207E
:1005B0006C656E677468205B6D6D5D00456E616291
:1005C0006C652072657472616374696F6E20636F0D
:1005D0006E76657273696F6E205B302F315D0042FD
:1005E000656420504944206D61782076616C7565A2
:1005F000205B302D3235355D004265642050494422
:1006000020442D6761696E00426564205049442092
:10061000492D6761696E004265642050494420504D
:100620002D6761696E004265642050494420647200
:10063000697665206D696E004265642050494420EA
:100640006472697665206D61780042656420486552
:100650006174204D616E61676572205B302D335D82
:100660000042656420507265686561742074656D30
:10067000702E205BB0435D004175746F6C657665CC
:100680006C206163746976652028312F3029005A07
:100690002D70726F62652062656E64696E6720639B
:1006A0006F7272656374696F6E2043205B6D6D5D60
:1006B000005A2D70726F62652062656E64696E67A4
:1006C00020636F7272656374696F6E2042205B6D88
:1006D0006D5D005A2D70726F62652062656E64698F
:1006E0006E6720636F7272656374696F6E2041205C
:1006F0005B6D6D5D005A2D70726F626520593320FD
:100700005B6D6D5D005A2D70726F626520583320ED
:100710005B6D6D5D005A2D70726F626520593220DD
:100720005B6D6D5D005A2D70726F626520583220CE
:100730005B6D6D5D005A2D70726F626520593120BE
:100740005B6D6D5D005A2D70726F626520583120AF
:100750005B6D6D5D005A2D70726F6265206F66660D
:100760007365742079205B6D6D5D005A2D70726F1A
:100770006265206F66667365742078205B6D6D5DC1
:10078000005A2D70726F626520782D792D73706517
:100790006564205B6D6D2F735D005A2D70726F6202
:1007A00065207370656564205B6D6D2F735D004D12
:1007B00061782E207A2D70726F6265202D2062651F
:1007C0006420646973742E205B6D6D5D005A2D701A
:1007D000726F626520686569676874205B6D6D5D26
:1007E00000436F6174696E6720746869636B6E653E
:1007F0007373205B6D6D5D005A2D61786973207491
:10080000726176656C20616363656C6572617469A1
:100810006F6E205B6D6D2F735E325D00592D6178B8
:1008200069732074726176656C20616363656C65C1
:10083000726174696F6E205B6D6D2F735E325D0047
:10084000582D617869732074726176656C206163DC
:1008500063656C65726174696F6E205B6D6D2F737B
:100860005E325D005A2D6178697320616363656C47
:1008700065726174696F6E205B6D6D2F735E325DA2
:1008800000592D6178697320616363656C657261DD
:1008900074696F6E205B6D6D2F735E325D00582D35
:1008A0006178697320616363656C65726174696FF7
:1008B0006E205B6D6D2F735E325D005A2062616346
:1008C0006B6C617368205B6D6D5D005920626163C4
:1008D0006B6C617368205B6D6D5D005820626163B5
:1008E0006B6C617368205B6D6D5D005061726B2095
:1008F000706F736974696F6E205A207261697365D5
:10090000205B6D6D5D005061726B20706F73697458
:10091000696F6E2059205B6D6D5D005061726B20B8
:10092000706F736974696F6E2058205B6D6D5D0028
:100930005A206D6178206C656E677468205B6D6D00
:100940005D0059206D6178206C656E677468205B6E
:100950006D6D5D0058206D6178206C656E67746800
:10096000205B6D6D5D005A206D696E20706F732085
:100970005B6D6D5D0059206D696E20706F73205B3B
:100980006D6D5D0058206D696E20706F73205B6D1A
:100990006D5D004D61782E205A2D6A65726B205B6B
:1009A0006D6D2F735D004D61782E206A65726B202E
:1009B0005B6D6D2F735D005A2D6178697320686FD0
:1009C0006D696E67206665656472617465205B6D34
:1009D0006D2F735D00592D6178697320686F6D69A3
:1009E0006E67206665656472617465205B6D6D2F4E
:1009F000735D00582D6178697320686F6D696E674B
:100A0000206665656472617465205B6D6D2F735D32
:100A1000005A2D61786973206D61782E20666565B6
:100A20006472617465205B6D6D2F735D00592D617B
:100A3000786973206D61782E2066656564726174D3
:100A400065205B6D6D2F735D00582D617869732093
:100A50006D61782E206665656472617465205B6DDA
:100A60006D2F735D005A2D61786973207374657002
:100A70007320706572206D6D00592D617869732047
:100A8000737465707320706572206D6D00582D61F0
:100A900078697320737465707320706572206D6D52
:100AA0000053746F70207374657070657220616696
:100AB00074657220696E6163746976697479205B0C
:100AC0006D732C303D6F66665D004D61782E206938
:100AD0006E6163746976652074696D65205B6D7302
:100AE0002C303D6F66665D005072696E74657220D1
:100AF000616374697665205B735D0046696C616D46
:100B0000656E74207072696E746564205B6D5D0043
:100B10004261756472617465004C616E67756167EE
:100B20006500504944204175746F74756E65206688
:100B300061696C6564212074696D656F757400501E
:100B40004944204175746F74756E65206661696CE7
:100B50006564212054656D706572617475726520DD
:100B6000746F6F206869676800204B643A2000202A
:100B70004B693A2000204B703A200020547972656E
:100B800075732D4C7962656E205049440020506584
:100B90007373656E20496E74656772616C2052755F
:100BA0006C652050494400204E6F204F766572736B
:100BB000686F6F74205049440020536F6D65204F5B
:100BC00076657273686F6F74205049440020436CDF
:100BD000617373696320504944002054753A2000C2
:100BE000204B753A2000206D61783A2000206D6915
:100BF0006E3A200020643A200020626961733A2036
:100C000000504944204175746F74756E652073748B
:100C1000617274004E6F2063617365206C69676850
:100C20007473004D617854656D703A004469616D6C
:100C3000657465723A00416363656C6572617469DD
:100C40006F6E3A004D617853706565643A004A658D
:100C5000726B3A004D617842656454656D703A007C
:100C60005072696E746572547970653A436172743A
:100C7000657369616E005A54726176656C41636395
:100C8000656C3A005954726176656C416363656CBA
:100C90003A005854726176656C416363656C3A0042
:100CA0005A5072696E74416363656C3A00595072B0
:100CB000696E74416363656C3A00585072696E7472
:100CC000416363656C3A005A53697A653A00595337
:100CD000697A653A005853697A653A005A4D6178E5
:100CE0003A00594D61783A00584D61783A005A4DB2
:100CF000696E3A00594D696E3A00584D696E3A0076
:100D000052657472616374696F6E556E646F53706F
:100D10006565643A0052657472616374696F6E55FB
:100D20006E646F45787472614C6F6E674C656E6768
:100D300074683A0052657472616374696F6E556EBF
:100D4000646F45787472614C656E6774683A0052DE
:100D5000657472616374696F6E5A4C6966743A00A7
:100D600052657472616374696F6E53706565643A3D
:100D70000052657472616374696F6E4C6F6E674C7C
:100D8000656E6774683A0052657472616374696F66
:100D90006E4C656E6774683A004A65726B5A3A0029
:100DA0004B656570416C697665496E7465727661F4
:100DB0006C3A004A65726B58593A005072696E7409
:100DC0006C696E6543616368653A00454550524FF2
:100DD0004D3A004175746F6C6576656C3A005A50F7
:100DE000726F62653A00436173654C69676874733A
:100DF0003A00537570706F72744C6F63616C466922
:100E00006C616D656E746368616E67653A005375F9
:100E100070706F72744731304731313A005A486F01
:100E20006D65506F733A0059486F6D65506F733A36
:100E30000058486F6D65506F733A005A486F6D6582
:100E40004469723A0059486F6D654469723A0058B6
:100E5000486F6D654469723A00536F6674776172CA
:100E600065506F7765725377697463683A004C43D5
:100E7000443A0046616E323A300046616E3A0053A1
:100E800044436172643A0048656174656442656414
:100E90003A004D6978696E67457874727564657259
:100EA0003A004E756D45787472756465723A004902
:100EB0006E7075744275666665723A00426175645B
:100EC000726174653A00696E666F3A436F6E746959
:100ED0006E75652066726F6D20666174616C20733B
:100EE00074617465000054657374696E672066618F
:100EF00074616C206572726F720029203D20002C95
:100F00000042656E64696E67206174202800436F3B
:100F10006E66696775726174696F6E206C6F61646B
:100F200065642066726F6D20454550524F4D2E000E
:100F3000436F6E66696775726174696F6E20737452
:100F40006F72656420746F20454550524F4D2E00DE
:100F5000436F6C6420657874727573696F6E20647A
:100F60006973616C6C6F77656400436F6C642065B6
:100F70007874727573696F6E20616C6C6F776564DD
:100F80000054726967676572696E67207761746380
:100F900068646F672E2049662061637469766174A6
:100FA00065642C20746865207072696E74657220A7
:100FB00077696C6C2072657365742E005761746379
:100FC00068646F672064697361626C656400417571
:100FD000746F726574726163743A00205A4A657264
:100FE0006B3A004A65726B3A0020746F20005365BB
:100FF0007420766F6C756D657472696320657874A2
:10100000727573696F6E20666F7220657874727581
:10101000646572200044697361626C656420766F58
:101020006C756D6574726963206578747275736927
:101030006F6E20666F7220657874727564657220B9
:1010400000205052454845415400505245484541C2
:10105000545F4245443A00205A533A002059533ACB
:101060000058533A00505245484541543A310050D7
:101070004155534553544F503A3100544F47474C14
:10108000455F4C49474854533A3000534F465457F4
:101090004152455F504F5745523A30005A5F5052C7
:1010A0004F42453A31004155544F4C4556454C3A14
:1010B0003100454550524F4D3A31004155544F5241
:1010C00045504F52545F54454D503A310050524FA5
:1010D00047524553533A31004649524D57415245C4
:1010E0005F4E414D453A52657065746965725F3176
:1010F0002E302E3320434F4D50494C45443A4465E1
:10110000632032372032303138204649524D574122
:1011100052455F55524C3A68747470733A2F2F677A
:1011200069746875622E636F6D2F7265706574697E
:1011300065722F52657065746965722D4669726DAE
:10114000776172652F2050524F544F434F4C5F567A
:10115000455253494F4E3A312E30204D4143484974
:101160004E455F545950453A4D656E64656C204557
:10117000585452554445525F434F554E543A3520CA
:1011800052455045544945525F50524F544F434F7A
:101190004C3A330050696E2063616E206E6F74208C
:1011A000626520736574206279204D34322C206989
:1011B0007320696E2073656E73697469766520703B
:1011C000696E732120002069732000496C6C65678B
:1011D000616C20532076616C756520666F72204DBE
:1011E00034320020746F2000536574206F75747062
:1011F00075743A2000000136372603023C3D380E54
:101200000F2E303E12130D0C0A081A1C1824221E31
:10121000403B2C0D0E35556E6B6E6F776E20636FF5
:101220006D6D616E643A002063203D2000206220D5
:101230003D2000706C616E653A2061203D200020E9
:1012400061745A3A0043757272656E745A3A00506E
:10125000726F62696E67206861642072657475726E
:101260006E6564206572726F7273202D20617574D3
:101270006F6C6576656C696E672063616E63656C23
:1012800065642E004175746F6C6576656C696E6778
:101290002064697361626C6564004175746F6C658C
:1012A00076656C696E6720656E61626C65640000CE
:1012B000005A2D50726F62652068656967687420F6
:1012C00073657420746F3A20004175746F6C657695
:1012D000656C206D61747269782072657365740045
:1012E0004865617465722F73656E736F72206572E5
:1012F000726F720044697361626C696E6720616C21
:101300006C20686561746572732064756520746F04
:101310002064657465637465642073656E736F72B1
:10132000206465666563742E00206465672E204323
:1013300000206D6561737572656420004572726F7F
:10134000723A436F756C64206E6F7420686F6C64C2
:101350002074656D70657261747572652000206D12
:10136000730020616674657220004572726F723A74
:1013700054656D702E2072616973656420746F20EE
:10138000736C6F772E2052697365203D20004F6E7D
:101390006520686561746572207365656D7320648E
:1013A00065636F75706C65642066726F6D2074681C
:1013B00065726D6973746F72202D20646973616248
:1013C0006C696E6720616C6C20666F722073616659
:1013D0006574792100486561746572206465636F86
:1013E00075706C656400486561746564206265644D
:1013F000206578636565646564206D617820746537
:101400006D7065726174757265210020453A002027
:101410005A3A00583A002044303A0020403A00201E
:1014200042403A0020524157002044423A002042B4
:101430003A00202F00543A006E166316536F6674FC
:1014400077617265205265736574005761746368D3
:10145000646F672052657365740042726F776E2007
:101460006F75742052657365740045787465726E8B
:10147000616C20526573657400506F7765725570AA
:10148000000D0D0D0D0D0E110A0411040A111100AD
:101490001C1F11111F0000040A0A0A0E1F1F0E0054
:1014A0001F1111111F0000001F1F1F1F1F0000042C
:1014B0000A040000000000040E150404041C00547B
:1014C00045564F00546172616E74756C6120646999
:1014D000616D6F6E642066756C6C20636F6C6F72EB
:1014E00000526570657469657220312E302E3300AC
:1014F000467265652052414D3A0082000002003874
:10150000144E65656473206C616E67756167652054
:1015100073656C656374696F6E00737461727400D7
:1015200057726F6E6720636865636B73756D0077C4
:10153000616974004672616E6361697300456E672C
:101540006C697368000000042604400000009600E7
:101550000000044C0400000000BB000000044D0427
:1015600000000000BC000000042E040000000090F9
:10157000000000042A04000000008F000000042B7B
:1015800004000000008E000000042C040000000095
:101590008D000000042904000000008C00000004FD
:1015A00013040000000055000000041204000000B5
:1015B000005400000004110400000000530000006B
:1015C000041604000000005100000004150400008F
:1015D000000050000000041404000000004F000050
:1015E00000040F040000000038000000040E040096
:1015F00000000037000000040D040000000035006A
:101600000000040C040000000034000000040B047F
:101610000000000033000000040A04000000003154
:10162000000000040904000000003000000004086D
:1016300004000000002F0000000000000000000077
:101640008900000000000000000000880000000089
:101650000000000000008600000000000000000004
:10166000008500341503AB260000000000003D1586
:1016700003A426000000000000000004D4040000C1
:1016800000002601000004D3040000000025010032
:101690000004D204000000002401000004D1040072
:1016A0000000002301000004D0040000000022011B
:1016B000000004CF04000000002801000001000029
:1016C0000000000021010000038204000000000A65
:1016D000010000038104000000003F0000000380BF
:1016E00004000000003E000000037F040000000032
:1016F0003D000000037E04000000003C007C1E92C0
:101700001587157C15711566155B155015B219A74F
:10171000199C19911986197B197019451565197C41
:101720001ED415C915BE15B315A8159D157C1E2C04
:1017300016211616160B160016F515EA15DF1542BA
:1017400016371658164D167C1E6E166316BB167C81
:101750001EB016A5169A168F16841679167C1EF2E0
:1017600016E716DC16D116C6160200001100FD168B
:1017700002000007001F1702000009002D17035880
:101780000402003F17032004020043170200000375
:1017900000471702000008004D1702000006005D18
:1017A00017000003DB0400000000370100000307FE
:1017B00004000000003B00000003060400000000DD
:1017C0003A000000026917000000000F000000024C
:1017D0007017000000004E000000027717000000A4
:1017E0000039000000027E170000000087000000A2
:1017F00002851700000000840000000410040000AF
:1018000000008B000000028C1700000000E40000C4
:101810000003B40400000000D200000003D604005E
:101820000000002901000003B20400000000D00005
:10183000000003C804000000001F0100000293170D
:101840000000000021010000029A170000000011B2
:1018500000000004BD0400001000E300000003B914
:101860000400001000E100000003B80400001000B4
:10187000E000000003B60400001000DF00000003D9
:10188000B50400001000DE00000003BE04000010DC
:1018900000DD00000003B70400001000DC000000C1
:1018A00004B60F000000000901000004B50F00009D
:1018B00000000801000004B40F0000000007010050
:1018C0000000000000000000F20000000000000026
:1018D000000000AB000000000000000000007000ED
:1018E0000000000000000000006F00000003E8039B
:1018F000000000002D010000038813000000002CF0
:1019000001000004F203000000002A0100000100B1
:101910000000000000CB007C1E0418F917EE17E34E
:1019200017D817CD17C2171320B717AC17A1177CFC
:101930001E46183B18301825181A180F187C1E93CD
:101940001888187D18721867185C1851187C1EB416
:1019500018A9189E18E018D518CA18BF180C190134
:1019600019F618EB180000042F04000000009B007B
:10197000000004220440000000950000000426043A
:10198000200000009A0000000425042000000099B7
:10199000000000042404200000009800000004233C
:1019A0000420000000970000000422042000000032
:1019B00094000000042D04000000009300020000C9
:1019C0000C00171902000007002F19020000080080
:1019D0003D1902000004004D1903F00304005519DD
:1019E00082000004005D197C1EB219A7199C199190
:1019F0001986197B19701965190000000000000094
:101A000000001301000000000000000000F40000CE
:101A100000000000000000001D01000000000000A8
:101A2000000000F400000002BD19000010000D00CD
:101A3000000002C419000010000E01000002142171
:101A4000000000001000000002CB1900001000D9B7
:101A500000000002D520000010000F00000002CEA0
:101A600020000010000E00000004570410000000C9
:101A7000CA00000003B40410000000D200000004FB
:101A80005204100000007E00000004480410000012
:101A900000B100000002E01910000000CB000000BF
:101AA000041F0410000000B00000000461041000D6
:101AB0000000240000000462041000000025000063
:101AC0000003C404040000004A000000034B04109B
:101AD0000004004900000003C50410000400C90010
:101AE000000002DC20000010000B000000000000DD
:101AF000000000001C0100000000000000000016B3
:101B000001000000000000000000150100000000BE
:101B100000000000001401000000000000000000B0
:101B2000E000000000000000000000DA00000000FB
:101B3000000000000000DF000000000000000000C6
:101B400000DA00000000000000000000E1000000DA
:101B500000000000000000DA0000000000000000AB
:101B60000000DE00000000000000000000DA0000BD
:101B70000000000000000000DD0000000000000088
:101B8000000000DA00000000000000000000DC009F
:101B9000000000000000000000DA00000003E8037D
:101BA000000000002D01000003D704000000002CFD
:101BB00001000004D804000000002B010000010017
:101BC00000000000002901000000000000000000EB
:101BD000CF00000000000000000000CE0000000068
:101BE000000000000000CD00000000000000000028
:101BF00000CC00000002D219000000000601000025
:101C000002F820000000002100000002E320000094
:101C100000002200000002FF20000000001F000062
:101C20000002EA200000000020000000020621005F
:101C30000000001D00000002F120000000001E0056
:101C40000000030004000010001600000003FF0362
:101C5000000010001500000003FE03000010001437
:101C6000000000034404000000002E00000002D920
:101C7000190000000023000000033A0400000000E7
:101C80002800000004620400000000250000000499
:101C90006104000000002400000003430400001061
:101CA000001C000000033104000010001B000000B5
:101CB000033804000000001A00000003470400007D
:101CC00000001800000003370400000000170000A7
:101CD0000002E01900000000CB00000004520400E4
:101CE0000000007E00000004480400000000B10075
:101CF0000000041F0400000000B0000000045704AE
:101D000000000000CA00000003FD030000100013E3
:101D1000000000000000000000006E000000000055
:101D200000000000006D0000000000000000000046
:101D30006C000000000000000000006B00000000CC
:101D40000000000000006A00000000000000000029
:101D500000690000000000000000000068000000B2
:101D6000000000000000006700000000000000000C
:101D70000000660000000000000000000065000098
:101D800000000000000000006400000000000000EF
:101D9000000000630000000000000000000062007E
:101DA00000000000000000000061000000000000D2
:101DB0000000000060000000000000000000005F64
:101DC000000000000000000000005E0000000000B5
:101DD00000000000005D00000000000000000000A6
:101DE0005C000000000000000000005B000000003C
:101DF0000000000000005A00000000000000000089
:101E00000059000000000000000000005800000021
:101E1000000000000000005700000003C62410006E
:101E200000000300000003E80300000000040000BD
:101E30000001000000000000F400000001000000AC
:101E4000000000C900000003F403010002004D007F
:101E50000000020D2102000000C900000003F7038A
:101E6000060000004A00000003F6030200040049D7
:101E700000000003F503010002004800000003E831
:101E800003000000000A0000000000000000000045
:101E900039010000000000000000003801000000CF
:101EA000000000000000A80000000000000000008A
:101EB00000A700000000000000000000A6000000D5
:101EC00000000000000000A500000000000000006D
:101ED00000001301000000000000000000F40000FA
:101EE00000000000000000002001000000000000D1
:101EF000000000F4000200000900E7191A1A0F1A86
:101F0000041AF9197C1EE01AD51ACA1ABF1AB41A93
:101F1000A91A9E1A931A881A7D1A721A671A711EC4
:101F20005C1A511A461A3B1A301A251A0C1B011B4F
:101F3000F61AEB1A221B171B381B2D1B4E1B431BBB
:101F4000641B591B7A1B6F1B901B851BBC1BB11B91
:101F5000A61B9B1BE81BDD1BD21BC71B7C1E061D83
:101F6000561C4B1C401C351C2A1C1F1C141C091C15
:101F7000FE1B6C1CF31B7C1E8D1C821C771C6C1CB6
:101F8000611C7C1E061DFB1CF01CE51CDA1CCF1C12
:101F9000C41CB91CAE1CA31C981C321D271D1C1D83
:101FA000111D5E1D531D481D3D1D8A1D7F1D741D85
:101FB000691DB61DAB1DA01D951DE21DD71DCC1DB5
:101FC000C11D0E1E031EF81DED1D3A1E2F1E241EE0
:101FD000191E7C1E711E661E5B1E501E451E7C1E39
:101FE000921E871EA81E9D1EBE1EB31EEA1EDF1E69
:101FF000D41EC91E52657175657374506175736521
:102000003A0052657175657374436F6E74696E75CD
:10201000653A00000002F51E00000000A20005CC99
:10202000040400FC1E2F2F20616374696F6E3A72E6
:102030006573756D650044656C6574696F6E2066C7
:1020400061696C65640046696C652064656C6574E3
:102050006564000200001400041F05CD0404002C78
:102060001F0310270200341F0310270200381F032C
:10207000102702003C1F0310270200401F031027F7
:102080000200441F0310270200481F8200000400C2
:102090004C1F0588130400541F2F2F20616374699F
:1020A0006F6E3A706175736500696D706F727461FF
:1020B0006E743A2046696C616D656E742063686168
:1020C0006E67652072657175697265642100020032
:1020D000000D005C1F0200000600761F0200000CCD
:1020E00000821F03FC0304009A1F03FB030400A2E9
:1020F0001F03FA030400AA1F03EF030400B21F0327
:10210000EE030400BA1F03ED030400C21F02000027
:102110000400CA1F0200000600D21F0100000100D7
:10212000DE1F0310270200E01F0310270200E41F38
:102130000310270200E81F4A616D20636F6E7472FE
:102140006F6C2064697361626C65643A0005CC044D
:102150000400EC1F00000000000000000000202030
:10216000203F2E3F3F0020486F6D696E670020645E
:1021700065632000206465662000200004000300E1
:10218000494E46004E414E00436F6E666967757258
:102190006174696F6E20726573657420746F20645A
:1021A000656661756C74732E0050726F746F636F27
:1021B0006C2076657273696F6E206368616E676507
:1021C000642C20757067726164696E670054726177
:1021D0006E73666F726D6174696F6E206D6174727B
:1021E00069783A00446574656374656420454550B8
:1021F000524F4D2076657273696F6E3A0045787460
:10220000722E004550523A3320004550523A322047
:10221000004550523A31200080250000403800002F
:10222000004B00008070000000960000C0DA000043
:1022300000E10000002C010008B2010000C2010012
:1022400000F401000084030090D0030000E80300C4
:102250000008070020A1070000100E0040420F00F8
:1022600060E316000000000053706565644D756CF6
:102270007469706C793A00466C6F774D756C74694F
:10228000706C793A0046616E73706565643A00203F
:102290006D696E0020686F7572732000206461792B
:1022A0007320005072696E74696E672074696D6581
:1022B0003A006D20005072696E7465642066696C26
:1022C000616D656E743A00496E76616C6964206177
:1022D0007263005761726E696E673A005A204F66EA
:1022E00066736574206E6F7420636F6D70757465AE
:1022F000642064756520746F206572726F7273005C
:102300005A204F66667365742073746F726564003B
:102310005A204F6666736574206E6F7420636F6D0C
:1023200070757465642064756520746F20657272C1
:102330006F727300446576696174696F6E206265BF
:10234000747765656E206D6561737572656D656E18
:102350007473207765726520746F6F206269672CD3
:1023600020706C65617365207265706561742E0004
:10237000205A5F4F46465345543A0020595F4F4616
:10238000465345543A00585F4F46465345543A0029
:1023900052656C617469766520706F736974696FDA
:1023A0006E696E67004162736F6C75746520706F43
:1023B000736974696F6E696E6700473332206C65AC
:1023C00076656C696E67206661696C65642100479B
:1023D00033302070726F62696E67206661696C6568
:1023E000642100473239206C6576656C696E672020
:1023F0006661696C6564210041646A757374656423
:10240000207A206F726967696E005A2D70726F6250
:1024100065206176657261676520686569676874C3
:102420003A000000420FA1071605D0030D038B02EE
:102430002E02E801B2018601630145012C0117015A
:102440000401F40000000000000000000000000093
:102450000000000024F403D950C38EB1C2A23D96FF
:10246000828B3582127AE372816CCB66A861015D42
:10247000C758EB546151204E1E4B5648C145594335
:102480001A41013F093D2F3B7139CD374036C934E0
:1024900065331432D430A32F802E6B2D632C672B21
:1024A000752A8E29B028DC2710274B268F25D924A2
:1024B0002B248223E0224322AC211A218D200420E8
:1024C000801F001F841E0C1E971D261DB81C4E1C4D
:1024D000E61B821B201BC11A641A0A1AB2195D1965
:1024E0000A19B9186A181C18D11788174017FA1654
:1024F000B51673163116F115B31576153A15001584
:10250000C7148F1458142214EE13BA1388135613D9
:102510002513F612C71299126C1240121512EB1104
:10252000C1119811701148112111FB10D610B11072
:102530008D106910461024100210E10FC00FA00F7B
:10254000800F610F420F230F060FE80ECB0EAF0E68
:10255000930E770E5C0E410E270E0D0EF30DDA0D65
:10256000C10DA80D900D780D600D490D320D1B0D9C
:10257000050DEF0CD90CC30CAE0C990C850C700C2E
:102580005C0C480C350C210C0E0CFB0BE80BD60B2D
:10259000C40BB20BA00B8E0B7D0B6B0B5A0B4A0BB3
:1025A000390B290B180B080BF80AE90AD90ACA0AD1
:1025B000BB0AAC0A9D0A8E0A800A710A630A550A90
:1025C000470A390A2C0A1E0A110A040AF709EA09FD
:1025D000DD09D009C409B709AB099F099209870928
:1025E0007B096F09630958094C09410936092B0910
:1025F000200915090A090009F508EB08E008D608C2
:10260000CC08C208B808AE08A4089A089008870841
:102610007D0874086B08610858084F0846083D0893
:1026200034082C0823081A08120809080108F807BA
:10263000F007E807E007D807D007C807C007B807C2
:10264000B007A807A1075344206361726420696E34
:102650007365727465640053442063617264207210
:10266000656D6F76656400005265717565737453AE
:10267000746F703A002500F00F2C00A00F3300504B
:102680000F3A00000F4300B00E4D00600E580010CE
:102690000E6300C00D7000700D7E00200D9000D004
:1026A0000CA300800CB900300CD200E00BF00090BD
:1026B0000B1101400B3701F00A6301A00A98015089
:1026C0000AD601000A1E02B0096F026009D002108A
:1026D000094003C008C103700854042008FC04D05A
:1026E00007B70580078C0630076807E00655089095
:1026F000064E0940064B0AF005320BA005140C509B
:1027000005D80C00058C0DB004180E60048F0E1057
:1027100004F00EC0033A0F7003730F2003BD0F8047
:1027200002DC0F0802E90FB801F20F6801F80F1878
:1027300001FC0FC800FF0F00004800901A4800A0DD
:102740000F5800000F6C00600E8400C00DA4002024
:102750000DD000800C1001E00B5801400BC001A00F
:102760000A4C02000A08036009F803C00828052083
:1027700008B00680075408E006180A4006C80BA0F7
:1027800005300D0005400E6004FC0EC003740F20E0
:1027900003BC0F8002E00FE001F40FF000FB0FC854
:1027A00000FC0FA0000400501D7C00D009A4001004
:1027B00009CC008008F40010081C01B80744016827
:1027C000076C0128079401E806BC01B806E40188FB
:1027D000060C026006340238065C0218068402F019
:1027E00005AC02D805D402B805FC02980524038084
:1027F0000574035005C4032805140400056404D8B7
:1028000004B404B0042C058004A40558041C062854
:1028100004940600040C07D803AC07A8034C0878FE
:1028200003EC0848038C092003A40AD0021C0BA85F
:1028300002AC0C2802FC0C0802C40DB801140E985E
:1028400001B40E38012C0FE000540FB8007C0F8843
:1028500000A40F4800F40F28FFFC0FC0F90000008F
:10286000008C030800AE035000D603A000F703F06D
:102870000018044001380490015904E0017A043042
:10288000029A048002BB04D002FC0470032605C037
:1028900003860630079709A00F750D201C520E40C5
:1028A0001F1F0F6022FF0F803E0400081D9000587C
:1028B000091C01B007A801C80634023006C002C0D6
:1028C000054C036805D80318056404D004F0049887
:1028D000047C05600408063004940600042007D038
:1028E00003AC07A80338088003C408580350093014
:1028F00003DC090803680AD802F40AB002800B88D6
:10290000020C0C6002980C3002240DF801B00DC0CE
:10291000013C0E8001C80E3001540FB800B40F28DE
:1029200000E00F00000400401D900060091C01B091
:1029300007A801D00634023806C002C8054C036857
:1029400005D80318056404D804F00498047C0560D5
:102950000408063004940600042007D003AC07A83E
:102960000338088003C408580350093003DC090801
:1029700003680AE002F40AB802800B88020C0C60BB
:1029800002980C3002240DF801B00DC0013C0E80FD
:1029900001C80E3001540FB800B40F2800E00F003A
:1029A0000004000016D800C006AC0178058002C003
:1029B00004540348042804E803FC049803D0055099
:1029C00003A40618037807D8024C08A8022009704F
:1029D00002F4093802C80A08029C0BD001700C905E
:1029E00001440D5001180EF800EC0E8800C00F00D5
:1029F000000400681D4C00500B94005809DC005086
:102A0000082401A8076C012807B401C006FC017066
:102A100006440228068C02F005D402B8051C03887F
:102A20000564035805AC033005F40310053C04E8C5
:102A3000048404C804CC04A804140590045C057044
:102A400004A4055804EC053804340620047C060868
:102A500004C406F0030C07D8035407C8039C07B04E
:102A600003E40798032C08800374087003BC08581B
:102A700003040948034C09300394091803DC0908CE
:102A800003240AF0026C0AE002B40AC802FC0AB08D
:102A900002440BA0028C0B8802D40B70021C0C5851
:102AA00002640C4002AC0C2802F40C10023C0DF045
:102AB00001840DD801CC0DB801140E98015C0E7084
:102AC00001A40E4801EC0E1801340FD8007C0F88C9
:102AD00000C40F0800FC0F00000000000000000010
:102AE00000000000000000000000000000000000E6
:102AF0000000000000000000000000000000004096
:102B00001F450060094F0010095C00C0086B007091
:102B1000087D0020089200D007AC008007CC003070
:102B200007F400E006230190065E014006A601F0CE
:102B300005FF01A0056D025005F30200059603B0E4
:102B4000045A046004400510044806C0036E077070
:102B500003A8082003EB09D002230B8002410C30AC
:102B600002390DE001040E9001A20E4001170FF092
:102B700000690FA000A20F5000C60F0000DD0FB0CB
:102B8000FFEB0F60FF0400700DD8004804AC015843
:102B9000038002D8025403800228043802FC040097
:102BA00002D005C801A4069801780770014C0848B6
:102BB0000120091801F409F000C80AC8009C0BA004
:102BC00000700C7000440D3800180E0000EC0EA8C8
:102BD000FFC00FE8FE0400001B54006009640010F1
:102BE000097400C008840070089C002008B800D058
:102BF00007D8008007000130072C01E0066801902B
:102C000006AC0140060002F0056802A005E0025093
:102C100005740300052404B004F0046004DC05100E
:102C200004E406C0030408700330092003780B8015
:102C300002600DE001A80E4001680FA000C00F0067
:102C400000E80F60FF0400801AD8009808AC01204B
:102C500007800250065403C80528045805FC0400E8
:102C600005D005B004A4066804780728044C08E8D9
:102C7000032009B003F4097003C80A38039C0BF859
:102C800002700CB002440D6802180E0802EC0E88A7
:102C900001C00F8800F00F00000000A00F5C006072
:102CA00009690010097900C0088C007008A2002092
:102CB00008BD00D007DE008007050130073401E0C1
:102CC000066D019006B20140060702F0056D02A0F4
:102CD00005E80250057B0300052B04B004F80460EE
:102CE00004EB06C003350920037F0B8002650DE06D
:102CF00001B00E40011D0FF000480FC8006C0FA07E
:102D000000ED0F60FFFE0F48FE4550523A302000A4
:102D10005A2D70726F62652073746174653A007A1F
:102D20005F6D696E3A004C2000482000795F6D6944
:102D30006E3A00785F6D696E3A00656E6473746F09
:102D40007073206869743A200053656C656374453C
:102D5000787472756465723A003A005461726765FE
:102D60007445787472005461726765744265643AA0
:102D700000992C452CD52B852B000000000000FD70
:102D80002AF129A1292529A9285D28A527392775F0
:102D9000261C151C140000002243141F1F132E1B99
:102DA000315072696E7465722073657420696E7437
:102DB0006F206472792072756E206D6F6465207566
:102DC0006E74696C20726573746172742100206D79
:102DD00061726B6564206465636F75706C65640017
:102DE000206D61726B656420646566656374003A8A
:102DF00020776F726B696E67003A2074656D702082
:102E000073656E736F7220646566656374006578C0
:102E1000747275646572200068656174656420620F
:102E20006564000040145400000000000000000031
:102E3000F100000000000000000000C400000000DD
:102E4000000000000000F000000000000000000092
:102E500000C300000000000000000000F3000000BC
:102E600000000000000000F400000000000000006E
:102E70000000AF00000000000000000000AB0000F8
:102E80000000000000000000F3000000000000004F
:102E90000000005F000000000000000000005B0078
:102EA00000000000000000000057000000000000CB
:102EB00000000000F300000000000000000000EE31
:102EC00000000000000000000000ED000000000015
:102ED0000000000000EB00482E3D2E322E272E74FD
:102EE0002E692E5E2E532EA02E952E8A2E7F2ECC4E
:102EF0002EC12EB62EAB2E0000000400D72E0000EF
:102F0000000400DF2E0000000400E72E0000000493
:102F100000EF2E00002100240027002A002D0030A1
:102F200000330001010000040107010A0101021041
:102F300020200808102040102040800201020108D3
:102F40000402010102040810204080804020100883
:102F500004020180040201804020100804020108DC
:102F6000040201010204081020408001020408103C
:102F7000204080050505050705080808080202022B
:102F8000020A0A0808040404040101010101010104
:102F9000010303030303030303040707070C0C0CDB
:102FA0000C0C0C0C0C0202020206060606060606B3
:102FB000060B0B0B0B0B0B0B0B0C2F052FFE2EF721
:102FC0002E0000FF00000000010100000000FF00D3
:102FD0000044656275674C6576656C3A00507269AD
:102FE0006E7465724D6F64653A434E43005072696A
:102FF0006E7465724D6F64653A4C61736572005012
:1030000072696E7465724D6F64653A464646005A41
:10301000206A65726B2077617320746F6F206C6F0C
:10302000772C2073657474696E6720746F20005864
:1030300059206A65726B2077617320746F6F206C02
:103040006F772C2073657474696E6720746F20002D
:10305000204F00204C00204B002042002041002047
:103060004800204300204400205200204A0020490C
:1030700000205000205300204600204500205A0028
:10308000205900205800202D205072696E746572FE
:103090002073746F7070656420616E642068656170
:1030A000746572732064697361626C656420647511
:1030B0006520746F2074686973206572726F722E58
:1030C00020466978206572726F7220616E6420728A
:1030D0006573746172742077697468204D39393969
:1030E0002E00666174616C3A005344206572726F01
:1030F0007220646964206E6F74207265636F7665F8
:103100007221005344206572726F7220666978657F
:10311000640053442052656164204572726F7200EE
:1031200053442072656164206572726F7200446F4F
:103130006E65207072696E74696E672066696C6571
:103140000052657365742066726F6D20436F6E6602
:10315000696700436F6E66696775726174696F6E47
:1031600000526573657420454550524F4D002565EA
:103170006A204A616D20436F6E74726F6C004D75EA
:103180006C3A20256F6D252525202020204C617369
:103190003A256F702057004D756C3A20256F6D25CC
:1031A0002525202020205370693A256F7052504DFC
:1031B00020005A773A2578372020205A3A2578324D
:1031C0000059773A257836202020593A2578310061
:1031D00058773A257835202020583A257830005302
:1031E00074617274205A2D50726F6265004D657360
:1031F000757265202E2E2E005A2D4F6666736574EB
:103200003A25587A004665726D6500436F6E7469A1
:103210006E756500506F732E205265656C205A3AAA
:103220002557306D6D0054656D702E202565632F18
:103230002545630243004D65732E20486175746512
:10324000757220536F6E6465004C697420202020D5
:103250003A20257062024300457874722E20363A77
:1032600020257035024300457874722E20353A20AF
:10327000257034024300457874722E20343A20259C
:103280007033024300457874722E20333A20257043
:1032900032024300457874722E20323A2025703174
:1032A000024300457874722E20313A202570300296
:1032B0004300507265636861756666616765205496
:1032C000656D702E0050726973652064274F7269B6
:1032D00067696E65202E2E2E004175746F6C6576C1
:1032E000656C204C69740043616C6962726167654A
:1032F000204572726575720043616C696272616724
:1033000065204C697400202020203E3E3E204F6BFB
:10331000203C3C3C004E6976656C6C656D656E7456
:10332000204572726575720046696C616D656E74D8
:1033300020676C697373616E7400436861756666BB
:10334000616765206465636F75706C6500446566D0
:1033500061757420536F6E64652054656D702E0026
:103360004E6F74696669636174696F6E3A00736F5A
:10337000697420646567616765006C65206C6974B9
:1033800020636861756666616E740041737375725F
:10339000657A2D766F757320717565002A2A2A204B
:1033A00050617469656E74657A202A2A2A00416E1C
:1033B0006E756C6500566974657373652046616E41
:1033C00020323A25465325252500446973746F72CF
:1033D00073696F6E20636F72722E3A254465004DDB
:1033E0006573757265207A2D646973746F72736981
:1033F0006F6E005265676C616765730025506E00E3
:1034000025507025252500436F756368652025507C
:103410006C2F25504C0046696E20646520636F75E3
:103420007273653A25647000536574205A206F6684
:10343000667365743A2554326D6D00536574205976
:10344000206F66667365743A2554316D6D0053655F
:10345000742058206F66667365743A2554306D6D1C
:1034600000536574207072696E74206F66667365B0
:1034700074730048617574657572205A2D536F6EB0
:1034800064653A257A6800254433203320436F7001
:1034900069657300254432203220436F706965737B
:1034A00000254431203120436F7069650025443088
:1034B00020417563756E6520436F706965002558FE
:1034C000352053656C6563742E20457874722E2008
:1034D00036002558342053656C6563742E2045787A
:1034E00074722E2035002558332053656C65637443
:1034F0002E20457874722E203400457874727564DD
:10350000657573652036204F666600457874727560
:1035100064657573652035204F6666004578747262
:103520007564657573652034204F66660054656D5B
:10353000702E2036203A2565352F2545350243006B
:1035400054656D702E2035203A2565342F2545347D
:1035500002430054656D702E2034203A2565332FC8
:10356000254533024300202542436D6D0005256546
:10357000630200052565632F254563020000256F62
:103580007300255566206D20496D7072696D650068
:10359000255566206D0025557400583A2578302051
:1035A000593A257831004D756C3A20256F6D2020F1
:1035B00020453A257834005A3A2578322020427541
:1035C00066203A20256F4200422565422F2545623C
:1035D0000200052565632F25456302422565422FBC
:1035E0002545620200256F73004275663A20256FFB
:1035F00042004D756C3A20256F6D25252520FD2054
:103600002020453A202578346D00466C6F773AFDCE
:1036100020256F662525252020205A3A257832005E
:103620000E202565622F254562B020593A25783154
:10363000000A202565632F254563B020583A257878
:1036400030004C616E677565004570616973736524
:1036500075723A2542436D6D00506572736F6E6EE0
:10366000656C004261746F6E20646520436F6C6C02
:103670006500527562616E20766572742050455403
:1036800000426C75652054617065004B6170746F09
:103690006E004275696C6454616B00417563756EB0
:1036A000205265766574656D656E740000526576AE
:1036B0006574656D656E74206465204C69743A00AC
:1036C0005265766574656D656E74206465204C691D
:1036D00074005374616E6462790053746F636B613C
:1036E0006765206427457874727573696F6E00632F
:1036F00069626C6573202E2E2E00417474656E64B1
:10370000657A2054656D702E005265636861756638
:10371000666572204578747275642E00436C697119
:1037200075657A20706F75720049676E6F72657289
:10373000204D3130362025466900506F732E2053BE
:103740006572766F3A20256F53004175746F6C6512
:1037500076656C3A20256C6C00436F6E74696E75EB
:103760006572206176656320436C69630046696C0D
:10377000616D656E7420686175742F6261730054A9
:103780006F75726E657A204465706C616365720056
:103790004368616E67656D656E742046696C616D26
:1037A000656E74004368616E67656D656E74204672
:1037B000696C616D656E74005A2042616279737440
:1037C00065702E3A256F596D6D00417272657420D7
:1037D000496D70726573732E00546F7574206F7528
:1037E000205269656E0054656D7073204D6F727460
:1037F0000041545820706F776572206F6E2F6F668E
:103800006600496D7072696D650046696C616D6531
:103810006E7420496D7072696D650054656D7073CA
:1038200020496D7072657373696F6E00003A0020F5
:103830006A6F7572732000496D7072696D616E7484
:10384000652070726574650043617274652053442D
:1038500020696E73657265650043617274652053FB
:10386000442072657469726565004174742E205538
:103870006E6974733A2558556D6D004174742E202D
:1038800054656D702E2558540243004E697665616B
:10389000752064656C74610043616C63756C65725E
:1038A000204E6976656C6C656D656E740052656757
:1038B0006C6572205033005265676C65722050321F
:1038C000005265676C6572205031005A2043616C6C
:1038D00069622E005265676C6572205A3D30005255
:1038E00065736574204D6573757265004D6F6E74F8
:1038F000726572204D657375726500466C6F772036
:103900004D756C2E3A256F66252525005669742E57
:10391000204D756C2E3A256F6D2525250020423AE5
:103920002565622F25456202437E256F620045337F
:103930003A2565322F25453202437E256F320045F8
:10394000323A2565312F25453102437E256F3100FE
:1039500045313A2565302F25453002437E256F30AD
:103960000020453A2565632F25456302437E256F78
:10397000430054616D706F6E3A256F420054656C60
:10398000656368617267656D656E742E2E004368AD
:103990006172672E203C3D20454550524F4D0043FB
:1039A0006F6E66696775726174696F6E0053746FCC
:1039B000636B2E203D3E20454550524F4D00436FD6
:1039C0006E66696775726174696F6E004D6F7465BC
:1039D00075727320417272657465730053746F70F1
:1039E0007065004368617566662E204C69740043FB
:1039F00068617566662E204578747275642E004184
:103A00006374696F6E3A256C6100504944004261ED
:103A10006E6742616E6700592D4F66667365743A32
:103A200025587900582D4F66667365743A25587885
:103A300000504944204D61783A2558440044726949
:103A40007665204D61783A25584D00447269766557
:103A5000204D696E3A25586D0050494420443A255E
:103A600058640050494420493A2558690050574D40
:103A700020436F6E74726F6C3A25584D0054656D1B
:103A80007073204D6F72743A25587000504944206D
:103A9000503A25587000436F6E74726F6C653A250A
:103AA0005868004176616E636520717561643A25DE
:103AB0005861004176616E6365206C696E3A2558E5
:103AC0006C00537461622E54656D70733A2558779B
:103AD00000416363656C3A255841004D617820468A
:103AE000523A2558460053746172742046523A2562
:103AF0005866005061732F4D4D3A25536500426161
:103B00007564726174653A256F630047656E65720E
:103B1000616C005B6D696E5D20303D4F66660044F0
:103B200069732E2041707265733A202569700041D7
:103B30007272657420416C696D2E005B6D696E5DFB
:103B400020303D4F6666004469732E2041707265D7
:103B5000733A20256973004172726574204D6F7449
:103B6000657572730056656E74696C2E204D6178B0
:103B70000056656E74696C2E203735252525005654
:103B8000656E74696C2E2035302525250056656ECE
:103B900074696C2E203235252525004172726574BA
:103BA0002056656E74696C2E005669742E20566519
:103BB0006E74696C2E3A2546732525250056697466
:103BC0002E2056656E74696C2E004D696E3A257311
:103BD0007A204D61783A25735A005A3A2578322076
:103BE0006D6D004D696E3A257379204D61783A25E7
:103BF000735900593A257831206D6D004D696E3A40
:103C0000257378204D61783A25735800583A257805
:103C100030206D6D004D696E3A25737A204D6178C4
:103C20003A25735A005A3A257832206D6D004D6955
:103C30006E3A257379204D61783A25735900593AC7
:103C4000257831206D6D004D696E3A257378204DD1
:103C500061783A25735800583A257830206D6D0008
:103C60003120636C6963203D2031206D6D00453A41
:103C7000257833206D6D00004D61782042757465A4
:103C8000653A25735A004D696E2042757465653A30
:103C900025737A005A3A257832206D6D00004D6107
:103CA000782042757465653A257359004D696E2018
:103CB00042757465653A25737900593A2578312043
:103CC0006D6D00004D61782042757465653A25730D
:103CD00058004D696E2042757465653A2573780009
:103CE000583A257830206D6D00004D61782042757E
:103CF0007465653A25735A004D696E204275746586
:103D0000653A25737A005A3A257832206D6D202560
:103D1000647A25645A00004D6178204275746565A7
:103D20003A257359004D696E2042757465653A25D0
:103D3000737900593A257831206D6D2025647925F5
:103D4000645900004D61782042757465653A2573A9
:103D500058004D696E2042757465653A2573780088
:103D6000583A257830206D6D2025647825645800F8
:103D70004163637565696C3A25665A0041636375F2
:103D800065696C205A3A25665A0041636375656916
:103D90006C20593A256659004163637565696C204A
:103DA000583A256658004D61783A25667A004D618B
:103DB00078205A3A25667A004D617820593A25666E
:103DC00079004D617820583A256678004176616E19
:103DD000636500537570702E20666963686965724B
:103DE00000496E736572657220436172746500529A
:103DF00065746972657220436172746500436F6E09
:103E000074696E75657220496D70726573732E00EA
:103E1000506175736520496D70726573732E00492A
:103E20006D7072696D2E2066696368696572004104
:103E30006E7469204F6F7A65004465706C61632E03
:103E40002041707265733A254F61004D696E2E6492
:103E50006973743A254F64004261636B736C2E2062
:103E60003A254F6200526574726163742E203A25C0
:103E70004F7200254F32204F5053205261706964B9
:103E80006500254F31204F505320436C6173736997
:103E9000712E00254F30204F5053204F666600464C
:103EA0006F6E63742E206120566964653A256464E0
:103EB00000457272657572732020202020203A25FB
:103EC000646500496E666F2020202020202020207D
:103ED0003A256469004563686F2020202020202057
:103EE00020203A25646F0043686172672E203C3DB4
:103EF00020454550524F4D0053746F636B2E203D4B
:103F00003E20454550524F4D00416363656C6572DC
:103F10006174696F6E005A2D4A65726B3A25614A69
:103F2000004A65726B3A25616A004465706C616392
:103F30002E3A25615A004465706C61632E205A3A0E
:103F400025615A004465706C61632E20593A2561E1
:103F500059004465706C61632E20583A2561580001
:103F6000496D7072696D2E3A25617A00496D7072E3
:103F7000696D2E205A3A25617A00496D7072696D1B
:103F80002E20593A25617900496D7072696D2E2095
:103F9000583A25617800536574204F726967696EDD
:103FA000002558322053656C6563742E2045787463
:103FB000722E2033002558312053656C6563742EB2
:103FC00020457874722E2032002558302053656CBD
:103FD0006563742E20457874722E20310045787404
:103FE000727564657573652033204F666600457889
:103FF00074727564657573652032204F666600457E
:104000007874727564657573652031204F6666003B
:1040100054656D702E2033203A2565322F254532A8
:1040200002430054656D702E2032203A2565312FF1
:1040300025453102430054656D702E2031203A250C
:1040400065302F2545300243004C69742054656D5E
:10405000703A2565622F254562024300506F7369EF
:1040600074696F6E20457874722E00506F732E2025
:10407000526170696465205A00506F736974696F8A
:104080006E205A00506F732E205261706964652053
:104090005900506F736974696F6E205900506F73C7
:1040A0002E20526170696465205800506F736974E6
:1040B000696F6E20580044657361637469762E20C1
:1040C0004D6F7465757273005265676C657A207305
:1040D0007572204F726967696E6500526566726F0E
:1040E000696469720045636C616972616765203A51
:1040F000256C6F005072656865617420416C6C209E
:10410000457874722E005072656865617420536939
:104110006E676C6520457874722E00416363756527
:10412000696C205A004163637565696C20590041D0
:1041300063637565696C2058004163637565696CDC
:104140002058595A004163637565696C2044656C59
:104150007461004465626F677565720043617274D3
:104160006520534400457874727564657573650005
:10417000506F736974696F6E00436F6E666967751F
:10418000726174696F6E00256F6500436F6E7472A3
:104190006F6C65005265746F75722001002A2A2ABF
:1041A0002A20455252455552202A2A2A2A00506177
:1041B0007320646520436172746520534400417527
:1041C000205265706F7300496D7072657373696F0B
:1041D0006E00496D7072657373696F6E2E2E2E00BE
:1041E0004E6F6E004F7569004E2F41004F6666009E
:1041F0004F6E0052657365742066726F6D20436F59
:104200006E66696700436F6E66696775726174698F
:104210006F6E00526573657420454550524F4D00D6
:1042200025656A204A616D20436F6E74726F6C0061
:104230004D756C3A20256F6D252525202020204CBA
:1042400061733A256F702057004D756C3A20256FC9
:104250006D252525202020205370693A256F705246
:10426000504D20005A773A2578372020205A3A2599
:1042700078320059773A257836202020593A257827
:10428000310058773A257835202020583A25783063
:10429000005374617274205A2D50726F6265004D24
:1042A0006561737572696E67202E2E2E005A2D4F30
:1042B00066667365743A25587A00436C6F736500BF
:1042C000436F6E74696E7565005265616C205A208B
:1042D000506F733A2557306D6D0054656D702E2008
:1042E0002565632F2545630243004D6561732E20CC
:1042F00050726F6265204865696768740042656442
:10430000202020203A2025706202430045787472F4
:104310002E20363A20257035024300457874722EDF
:1043200020353A20257034024300457874722E20DF
:10433000343A20257033024300457874722E2033BE
:104340003A20257032024300457874722E20323AAA
:1043500020257031024300457874722E20313A20B6
:1043600025703002430050726568656174205465A1
:104370006D70657261747572657300486F6D696EFA
:10438000672E2E2E004175746F6C6576656C206209
:1043900065640043616C6962726174696F6E204587
:1043A00072726F720043616C6962726174696E67E8
:1043B0002062656400202020203E3E3E204F6B207E
:1043C0003C3C3C004C6576656C696E67206572729A
:1043D0006F720046696C616D656E7420736C6970F4
:1043E00070696E6700486561746572206465636F0B
:1043F00075706C65640054656D702E2073656E7306
:104400006F7220646566656374004E6F74696669D7
:10441000636174696F6E3A006F627374727563746E
:10442000696F6E730062656420697320636C6561F7
:1044300072206F6620616E79004D616B6520737527
:1044400072652074686520686561746564002A2A55
:104450002A20506C656173652077616974202A2A6F
:104460002A0043616E63656C0046616E20322073E2
:10447000706565643A2546532525250044697374A3
:104480006F7274696F6E20636F72722E3A25446585
:10449000004D65617375726520646973746F727421
:1044A000696F6E0053657475700025506E0025505D
:1044B00070252525004C617965722025506C2F25CB
:1044C000504C00456E6453746F703A25647000530D
:1044D0006574205A206F66667365743A2554326D90
:1044E0006D005365742059206F66667365743A25B4
:1044F00054316D6D005365742058206F6666736586
:10450000743A2554306D6D00536574207072696E75
:1045100074206F666673657473005A2D70726F62D3
:1045200065206865696768743A257A6800254433B0
:10453000203320636F706965730025443220322078
:10454000636F7069657300254431203120636F709B
:104550007900254430204E6F20636F7069657300C9
:104560002558352053656C65637420657874722E08
:104570002036002558342053656C656374206578B7
:1045800074722E2035002558332053656C65637492
:1045900020657874722E2034005475726E20657810
:1045A00074722E2036206F6666005475726E206518
:1045B0007874722E2035206F6666005475726E20F6
:1045C000657874722E2034206F66660054656D70B5
:1045D0002E2036203A2565352F25453502430054D7
:1045E000656D702E2035203A2565342F254534021F
:1045F000430054656D702E2034203A2565332F25F5
:104600004533024300202542436D6D000525656357
:104610000200052565632F254563020000256F73A1
:1046200000255566206D207072696E7465640025E2
:104630005566206D0025557400583A25783020596C
:104640003A257831004D756C3A20256F6D20202079
:10465000453A257834005A3A25783220204275664A
:10466000203A20256F4200422565422F25456202EF
:1046700000052565632F25456302422565422F25E8
:1046800045620200256F73004275663A20256F422D
:10469000004D756C3A20256F6D25252520FD2020C5
:1046A00020453A202578346D00466C6F773AFD201E
:1046B000256F662525252020205A3A257832000EC0
:1046C000202565622F254562B020593A25783100B2
:1046D0000A202565632F254563B020583A25783098
:1046E000004C616E677561676500437573746F6D2B
:1046F0003A2542436D6D00437573746F6D00476CCE
:10470000756520737469636B00477265656E205030
:104710004554207461706500426C7565207061704D
:1047200065722074617065004B6170746F6E004239
:1047300075696C6454616B004E6F20636F617469BE
:104740006E67000042656420636F6174696E672064
:1047500073657420746F0042656420636F617469CF
:104760006E67005374616E64627900457874727587
:10477000646572206A616D0074656D706572617444
:1047800075726573202E2E2E005761697420666F36
:1047900072207461726765740065787472756465FF
:1047A00072732E00436C69636B20746F20726568AE
:1047B0006561740049676E6F7265204D3130362037
:1047C000636D642025466900536572766F20706FB3
:1047D000732E3A20256F53004175746F6C657665B2
:1047E0006C3A20256C6C00436C69636B20776865BC
:1047F0006E20646F6E650066696C616D656E742015
:1048000075702F646F776E00526F746174652074D9
:104810006F206D6F7665004368616E67652066691D
:104820006C616D656E74004368616E6765206669D2
:104830006C616D656E74005A206261627973746593
:10484000702E3A256F596D6D0053746F7020507241
:10485000696E7400536C6F7742616E6700446561E6
:10486000642074696D650041545820706F776572DB
:10487000206F6E2F6F6666007072696E74656400DB
:1048800046696C616D656E74207072696E746564E2
:10489000005072696E74696E672074696D650000FE
:1048A0003A00206461797320005072696E746572F9
:1048B0002072656164792E00534420636172642024
:1048C000696E736572746564005344206361726439
:1048D0002072656D6F76656400576169742072653A
:1048E00074722E3A255855206D6D005761697420F9
:1048F00074656D702E202558540243004C65766512
:104900006C2064656C74610043616C63756C6174E8
:1049100065206C6576656C696E6700536574205020
:1049200033005365742050320053657420503100B9
:104930005A2063616C69622E00536574205A3D30C1
:10494000005265736574206D6561732E0053686F46
:1049500077206D6561732E00466C6F77206D756CE6
:104960002E203A256F662525250053706565642045
:104970006D756C2E3A256F6D2525250020423A2550
:1049800065622F25456202437E256F620045333AFA
:104990002565322F25453202437E256F3200453290
:1049A0003A2565312F25453102437E256F3100457B
:1049B000313A2565302F25453002437E256F300082
:1049C00020453A2565632F25456302437E256F43C5
:1049D000004275666665723A256F420055706C6FCD
:1049E0006164696E672E2E2E006C6F6164656420B1
:1049F000662E20454550524F4D00436F6E666967E5
:104A000075726174696F6E0073746F72656420698A
:104A10006E20454550524F4D00436F6E6669677575
:104A2000726174696F6E0053746570706572206492
:104A3000697361626C6564004B696C6C6564004805
:104A4000656174696E6720626564004865617469B8
:104A50006E6720657874727564657200416374696D
:104A60006F6E3A256C61005049440042616E6742A6
:104A7000616E6700592D4F66667365743A255879E3
:104A800000582D4F66667365743A25587800504972
:104A900044204D61783A2558440044726976652077
:104AA0004D61783A25584D004472697665204D690C
:104AB0006E3A25586D0050494420443A2558640008
:104AC00050494420493A25586900436F6E74726F0B
:104AD0006C2050574D3A25584D0044656164746907
:104AE0006D653A2558700050494420503A25587059
:104AF00000436F6E74726F6C3A255868004164769B
:104B0000616E636520717561643A25586100416486
:104B100076616E6365206C696E3A25586C0053743B
:104B200061622E54696D653A25587700416363656B
:104B30006C3A255841004D61782046523A25584636
:104B40000053746172742046523A255866005374BB
:104B50006570732F4D4D3A2553650042617564723F
:104B60006174653A256F630047656E6572616C001C
:104B70005B6D696E5D20303D4F6666004469732E43
:104B80002061667465723A20256970004D61782E47
:104B900020696E616374697665005B6D696E5D2086
:104BA000303D4F6666004469732E206166746572FD
:104BB0003A20256973005374657070657220696EC0
:104BC000616374697665005365742066616E206662
:104BD000756C6C005365742066616E203735252531
:104BE00025005365742066616E203530252525002B
:104BF0005365742066616E20323525252500547575
:104C0000726E2066616E204F66660046616E20738C
:104C1000706565643A2546732525250046616E203A
:104C20007370656564004D696E3A25737A204D6135
:104C3000783A25735A005A3A257832206D6D004D26
:104C4000696E3A257379204D61783A257359005978
:104C50003A257831206D6D004D696E3A25737820C4
:104C60004D61783A25735800583A257830206D6D9B
:104C7000004D696E3A25737A204D61783A25735A52
:104C8000005A3A257832206D6D004D696E3A2573D1
:104C900079204D61783A25735900593A25783120A9
:104CA0006D6D004D696E3A257378204D61783A2517
:104CB000735800583A257830206D6D003120636CB0
:104CC00069636B203D2031206D6D00453A257833B6
:104CD000206D6D00004D617820656E6473746F7097
:104CE0003A25735A004D696E20656E6473746F7057
:104CF0003A25737A005A3A257832206D6D00004DBE
:104D0000617820656E6473746F703A257359004D35
:104D1000696E20656E6473746F703A2573790059FB
:104D20003A257831206D6D00004D617820656E6404
:104D300073746F703A257358004D696E20656E6408
:104D400073746F703A25737800583A257830206D67
:104D50006D00004D617820656E6473746F703A2544
:104D6000735A004D696E20656E6473746F703A25D6
:104D7000737A005A3A257832206D6D2025647A25A1
:104D8000645A00004D617820656E6473746F703AE8
:104D9000257359004D696E20656E6473746F703AA7
:104DA00025737900593A257831206D6D2025647975
:104DB00025645900004D617820656E6473746F70CE
:104DC0003A257358004D696E20656E6473746F7078
:104DD0003A25737800583A257830206D6D20256487
:104DE0007825645800486F6D653A25665A00486F0B
:104DF0006D65205A3A25665A00486F6D6520593A0C
:104E000025665900486F6D6520583A256658004D53
:104E100061783A25667A004D6178205A3A25667A9B
:104E2000004D617820593A256679004D6178205807
:104E30003A2566780046656564726174650044656C
:104E40006C6574652066696C65004D6F756E7420C5
:104E50006361726400556E6D6F756E74206361726C
:104E60006400436F6E74696E7565207072696E744C
:104E7000005061757365207072696E7400507269BC
:104E80006E742066696C6500416E7469206F6F7A7C
:104E900065004D6F76652061667465723A254F61D5
:104EA000004D696E2E6469737420203A254F6400AA
:104EB0004261636B736C2E2020203A254F620052B2
:104EC0006574726163742020203A254F7200254F6B
:104ED00032204F5053206661737400254F31204FAC
:104EE000505320636C617373696300254F30204F0A
:104EF0005053206F6666004472792072756E3A25B1
:104F00006464004572726F7273203A2564650049CB
:104F10006E666F2020203A256469004563686F2023
:104F200020203A25646F004C6F616420662E204576
:104F30004550524F4D0053746F726520746F204579
:104F40004550524F4D00416363656C6572617469F1
:104F50006F6E005A2D4A65726B203A25614A004AED
:104F600065726B2020203A25616A004D6F76653AA4
:104F700025615A004D6F7665205A203A25615A0006
:104F80004D6F76652059203A256159004D6F766541
:104F90002058203A256158005072696E743A256194
:104FA0007A005072696E74205A3A25617A00507204
:104FB000696E7420593A256179005072696E7420C7
:104FC000583A25617800536574204F726967696E9D
:104FD000002558322053656C6563742065787472BF
:104FE0002E2033002558312053656C65637420658D
:104FF0007874722E2032002558302053656C65631A
:105000007420657874722E2031005475726E20659C
:105010007874722E2033206F6666005475726E208D
:10502000657874722E2032206F6666005475726E39
:1050300020657874722E2031206F66660054656D8D
:10504000702E2033203A2565322F25453202430049
:1050500054656D702E2032203A2565312F2545315B
:1050600002430054656D702E2031203A2565302FA3
:105070002545300243004265642074656D703A2511
:1050800065622F2545620243004D6F7665204578A5
:10509000747275646572004D6F7665205A20666182
:1050A0007374004D6F7665205A004D6F76652059F8
:1050B0002066617374004D6F76652059004D6F76E0
:1050C0006520582066617374004D6F766520580026
:1050D00044697361626C65207374657070657200F9
:1050E00053657420746F206F726967696E00436F37
:1050F0006F6C646F776E004C69676874733A256CE7
:105100006F005072656865617420416C6C20457851
:1051100074722E00507265686561742053696E6701
:105120006C6520457874722E00486F6D65205A00BA
:10513000486F6D65205900486F6D65205800486FB5
:105140006D6520616C6C00486F6D652064656C74E2
:105150006100446562756767696E67005344206348
:10516000617264004578747275646572004D6F7683
:10517000650053657474696E677300256F6500433D
:105180006F6E74726F6C004261636B2001002A2A9B
:105190002A2A204552524F52202A2A2A2A004E6F8C
:1051A00020534420636172640049646C650050724E
:1051B000696E74696E67005072696E74696E672EED
:1051C0002E2E004E6F00596573004E2F41004F6622
:1051D00066004F6E00F041EC41E841E441E041D20D
:1051E00041C741BE41AE419D4194418B41874179C8
:1051F00041704165415C415341454139412F412551
:10520000411B410641F440E540DB40C840B640AB9D
:10521000409D409240844079406B405C404940361C
:105220004023401040FF3FEE3FDD3FC93FB53FA167
:105230003F963F883F7A3F6C3F603F523F443F3646
:105240003F2A3F213F163F093FF83EE73ED53EC388
:105250003EB13E9F3E933E823E733E653E583E4B7E
:105260003E393E2F3E1F3E103EFD3DEF3DE13DD31A
:105270003DCC3DC23DB83DAE3DA63D983D8A3D7C0E
:105280003D703D603D523D443D433D333D253D171E
:105290003D163D063DF83CEA3CE93CE03CD23CC4CE
:1052A0003CC33CBA3CAC3C9E3C9D3C943C863C7828
:1052B0003C773C6E3C603C573C473C3E3C2E3C259A
:1052C0003C153C0C3CFC3BF33BE33BDA3BCA3BBDAF
:1052D0003BA93B9B3B8D3B7F3B713B653B573B4732
:1052E0003B3B3B2F3B1F3B133B0B3BFE3AF33AE66A
:1052F0003ADB3AD13AC23AB33AA33A963A8C3A7D7B
:105300003A6D3A633A593A4B3A3D3A313A243A17B0
:105310003A0E3A0A3AFF39EF39E339DC39CC39BE73
:1053200039AD399F398E397D397239613950393FFC
:10533000392E391D390C39FB38EC38DF38D438CBED
:1053400038C138B738AD3898388B387B386A385917
:1053500038483837382F382D382C381B380A38025F
:1053600038F137E637D937CA37B837A43790377F9F
:10537000376D3759374A373A3729371C370937FAE3
:1053800036EF36DA36D236C036AD36AC369B36928C
:10539000368B368136723663365936493642363167
:1053A0003620360A36F235E935E535D235C835B717
:1053B00035A6359A359635903582357E357D3573EF
:1053C000356D356635533540352D351C350B35FA81
:1053D00034E634D234BE34AD34A1349434873473DB
:1053E0003461344E343B342834163407340034FCF2
:1053F00033F333DF33CA33B533AE339C338B337A75
:10540000336E3360334D333A33283315330633F874
:1054100032E732D932C532B232A332943285327693
:10542000326732583249323632263214320B320564
:1054300032F831ED31DF31D031C131B23197317EC7
:10544000316E31613153314131D251CE51CA51C6E1
:1054500051C351B751AE51A9519E518E5187517FC1
:10546000517B5172516D5164515C51525147513EC3
:105470005137513051295114510251F750EE50E03B
:1054800050D050C950BD50B650AA50A35097508923
:10549000507650635050503D502C501B500A50F7DE
:1054A0004FE44FD14FC64FBA4FAE4FA24F984F8CDB
:1054B0004F804F744F6B4F5F4F534F464F364F27C0
:1054C0004F1B4F0F4F034FF74EEB4EDB4ECE4EBFF1
:1054D0004EB04EA14E924E884E7D4E714E624E554C
:1054E0004E4A4E3E4E354E2B4E214E174E0F4E0419
:1054F0004EF94DEE4DE54DD54DC54DB54DB44DA4D0
:105500004D944D844D834D734D634D534D524D49D4
:105510004D394D294D284D1F4D0F4DFF4CFE4CF57B
:105520004CE54CD54CD44CCB4CBC4CB34CA34C9A16
:105530004C8A4C814C714C684C584C4F4C3F4C360B
:105540004C264C1C4C0B4CFE4BF04BE24BD44BC747
:105550004BB64BA64B9A4B8C4B7C4B704B684B5BC2
:105560004B4E4B414B364B2C4B1E4B0E4BFD4AF1D9
:105570004AE74ADA4ACA4AC04AB64AA84A9A4A8E0A
:105580004A814A744A6B4A674A5C4A4B4A3F4A38E6
:105590004A274A194A084AFA49E949DC49D149C027
:1055A00049AF499E498D497C496A4958494D49410D
:1055B0004939493049294922491B490849FC48EBE6
:1055C00048D948C948B848A948A248A0489F489126
:1055D000488048784867485D4854484948374827D4
:1055E0004817480848F747E747D847C847B447A48B
:1055F000479947894778476B47634757474447432D
:105600004738472F47284718470947FE46F746EAD5
:1056100046E146D046BF46A9469146884684467133
:1056200046674656464546394635462F4621461D6D
:10563000461C4612460C460546F245DF45CC45BBA6
:1056400045AA459945864573456045524547453AC3
:10565000452D451A450845F544E244CF44C344B5B9
:1056600044AE44AA44A44491447C44694462444EF8
:10567000443944254418440A44F643E543D343C41B
:1056800043B543A543934385437B43664357434810
:105690004339432A431B430C43FD42EA42DA42C9E1
:1056A00042C042BA42AD429F42914282427342643A
:1056B0004249423042204213420542F3410007FF73
:1056C0004954000000000000000000000000D55117
:1056D000000000000000000000002200250028005B
:1056E0002B002E00310034000201000005010801EA
:1056F0000B01000020002300260029002C002F00B1
:1057000032000001000003010601090100000A0B3C
:1057100002090C0D0E080703040100000000000040
:105720000000000000000000000000000000000079
:105730000000000000000000121110000000000036
:105740000000000000000000000000000000000059
:10575000000002627573793A70726F6365737369E2
:105760006E6700446F6F72206F70656E00627573B4
:10577000793A646F6F72206F70656E00627573792D
:105780003A68656174696E6700627573793A706131
:105790007573656420666F72207573657220696E1B
:1057A000746572616374696F6E00526573656E64CF
:1057B0003A006F6B200020676F7420004572726F93
:1057C000723A6578706563746564206C696E6520F3
:1057D00000736B697020006F6B004563686F3A005F
:1057E000466F726D6174206572726F7200436865F6
:1057F000636B73756D20726571756972656420776E
:1058000068656E20737769746368696E672062618A
:10581000636B20746F2041534349492070726F7449
:105820006F636F6C2E000000000000000000001C81
:1058300001000000000000000000F4000000000073
:1058400000000000001B010000000000000000003C
:1058500017010000000000000000001C0100000013
:10586000000000000000F400000000000000000044
:10587000001A0100000000000000000017010000F5
:10588000000000000000001C0100000000000000FB
:105890000000F400000000000000000000190100FA
:1058A00000000000000000001701000000000000E0
:1058B0000000001C01000000000000000000F400D7
:1058C00000000000000000000018010000000000BF
:1058D00000000000170147583C58315826587358AB
:1058E00068585D5852589F58945889587E58CB58DC
:1058F000C058B558AA58446F6E6520736176696EBA
:10590000672066696C652E002F0053442043617246
:105910006420756E6D6F756E7465640005CB04044C
:1059200000D65805CB040400DE5805CB040400E67D
:105930005805CB040400EE5843617264207375630C
:105940006365737366756C6C7920696E69746961DF
:105950006C697A65642E0043616E2774206F7065F0
:105960006E20726F6F74206469726563746F7279F0
:105970002E0A0043616E27742066696E64206120E0
:1059800076616C69642046415431362F4641543368
:105990003220706172746974696F6E2E0A006572CC
:1059A000726F72436F64653A20000A534420696E37
:1059B000697469616C697A6174696F6E2066616986
:1059C0006C65642E0A446F206E6F74207265666F7A
:1059D000726D6174207468652063617264210A4984
:1059E0007320746865206361726420636F727265EE
:1059F00063746C7920696E7365727465643F0A49DB
:105A000073206368697053656C6563742073657493
:105A100020746F2074686520636F727265637420F0
:105A200076616C75653F0A446F657320616E6F74B3
:105A30006865722053504920646576696365206EFD
:105A400065656420746F2062652064697361626CAF
:105A500065643F0A49732074686572652061207728
:105A60006972696E672F736F6C646572696E672007
:105A700070726F626C656D3F00534420696E69748B
:105A8000206661696C000046696C652073656C6511
:105A900063746564002053697A653A0046696C65F1
:105AA000206F70656E65643A0066696C652E6F7074
:105AB000656E206661696C6564000000000000008E
:105AC000000000F700000000000000000000DA0005
:105AD000C55ABA5A7A2D70726F6265206469642063
