:100000000C942B2E0C945C2E0C945C2E0C945C2E79
:100010000C945C2E0C945C2E0C945C2E0C945C2E38
:100020000C945C2E0C945C2E0C945C2E0C945C2E28
:100030000C945C2E0C9432E30C945C2E0C945C2E8D
:100040000C945C2E0C9427C90C945C2E0C945C2EA2
:100050000C945C2E0C945C2E0C94C0C70D94770EFF
:100060000C945C2E0C9496C70C94A0790C945C2E86
:100070000C945C2E0C945C2E0C945C2E0C945C2ED8
:100080000C945C2E0C945C2E0C945C2E0C945C2EC8
:100090000C945C2E0C945C2E0C945C2E0C945C2EB8
:1000A0000C945C2E0C945C2E0C945C2E0C945C2EA8
:1000B0000C945C2E0C945C2E0C945C2E0C945C2E98
:1000C0000C945C2E0C945C2E0C945C2E0C945C2E88
:1000D0000C945C2E0C945C2E0C945C2E0C945C2E78
:1000E0000C945C2E7E34833488349434A0342D35C3
:1000F000AC34B434BC34C834D434E034F134FD34DA
:100100002D35093515352135CBF7FAF5FAF5FAF520
:10011000FAF5FAF5FAF5FAF5FAF5FAF5FAF5FAF567
:10012000FAF5FAF5FAF5FAF5FAF5FAF5FAF5FAF557
:10013000FAF5FAF5FAF570F781F74BF73AF7C8F6E2
:10014000D5F617F65FF70FF71CF792F7A2F72FF621
:1001500002F6B2F7FFF6FAF52DF7F2F6E5F6FAF544
:10016000FAF5FAF59BF6ABF6B8F6FAF5FAF5FAF504
:10017000FAF5FAF5FAF570F781F74BF73AF7C8F6A2
:10018000D5F617F65FF70FF71CF792F7A2F72FF6E1
:1001900002F6B2F7FFF6FAF52DF7F2F6E5F6FAF504
:1001A000FAF5FAF59BF6ABF6B8F633012D011B0113
:1001B00011012301250115010D01190121011F0163
:1001C00013010F011D01250129012F011701084A03
:1001D000D73B3BCE016E84BCBFFDC12F3D6C74315B
:1001E0009ABD56833DDA3D00C77F11BED9E4BB4CB2
:1001F0003E916BAAAABE000000803F05A84CCDB27C
:10020000D44EB93836A9020C50B9918688083CA65C
:10021000AAAA2ABE000000803F000D94290D0D946B
:10022000410D0D94140D0D943D0D0D94250D0D945F
:10023000530D0D942F0D0D94100D0D94450D0D942F
:10024000370D0D94330D0D941A0D0D94580D0D941A
:100250006C000D944B0D0D9481000D94210D0D94A7
:100260004F0D0D94A71F0D941E0D4E414E494E4942
:100270005459494E46CDCCCC3D0AD7233C17B7D173
:100280003877CC2B329595E6241FB14F0A00002019
:10029000410000C84200401C4620BCBE4CCA1B0E98
:1002A0005AAEC59D74456E642066696C65206C69A4
:1002B000737400426567696E2066696C65206C69BD
:1002C0007374005344207072696E74696E672062A3
:1002D00079746520004E6F74205344207072696EEB
:1002E00074696E670057726974696E6720746F2055
:1002F00066696C653A20006F70656E206661696C96
:1003000065642C2046696C653A200043726561740F
:10031000696F6E206661696C65640044697265632B
:10032000746F7279206372656174656400576569E2
:100330006768742000657874727564657220636FF5
:100340006F6C6572207370656564205B302D32358B
:10035000355D0064697374616E636520746F20722B
:10036000657472616374207768656E206865617476
:10037000696E67205B6D6D5D0074656D702E206623
:100380006F722072657472616374696F6E20776832
:10039000656E2068656174696E67205B435D0074FB
:1003A000656D702E2073746162696C697A65207462
:1003B000696D65205B735D005A2D6F6666736574A9
:1003C000205B73746570735D00592D6F666673658D
:1003D00074205B73746570735D00582D6F6666736F
:1003E0006574205B73746570735D00504944206DC3
:1003F00061782076616C7565205B302D3235355D16
:100400000050494420442D6761696E0050494420E2
:10041000492D6761696E0050494420502D6761691C
:100420006E2F646561642D74696D650050494420C8
:100430006472697665206D696E005049442064726B
:10044000697665206D61780068656174206D616E04
:1004500061676572205B302D335D005072656865A1
:1004600061742074656D702E205BB0435D00616324
:1004700063656C65726174696F6E205B6D6D2F735F
:100480005E325D00737461727420666565647261CA
:100490007465205B6D6D2F735D006D61782E206635
:1004A00065656472617465205B6D6D2F735D0073AB
:1004B0007465707320706572206D6D005265747282
:1004C000616374696F6E20756E646F20737065650B
:1004D0006400457874726120657874727573696F11
:1004E0006E206F6E20756E646F2073776974636819
:1004F0002072657472616374205B6D6D5D00457878
:1005000074726120657874727573696F6E206F6E96
:1005100020756E646F2072657472616374205B6D08
:100520006D5D0052657472616374696F6E207A2D1F
:100530006C696674205B6D6D5D00526574726163F9
:1005400074696F6E207370656564205B6D6D2F73C9
:100550005D0052657472616374696F6E206C656EC4
:100560006774682065787472756465722073776942
:10057000746368205B6D6D5D0052657472616374B5
:10058000696F6E206C656E677468205B6D6D5D00D1
:10059000456E61626C652072657472616374696F27
:1005A0006E20636F6E76657273696F6E205B302F9D
:1005B000315D0042656420504944206D61782076A9
:1005C000616C7565205B302D3235355D00426564A8
:1005D0002050494420442D6761696E0042656420C3
:1005E00050494420492D6761696E0042656420507E
:1005F000494420502D6761696E004265642050496E
:1006000044206472697665206D696E0042656420DD
:10061000504944206472697665206D6178004265B6
:10062000642048656174204D616E61676572205B6E
:10063000302D335D004265642050726568656174D9
:100640002074656D702E205BB0435D004175746F42
:100650006C6576656C206163746976652028312F3E
:100660003029005A2D70726F62652062656E646970
:100670006E6720636F7272656374696F6E204320CA
:100680005B6D6D5D005A2D70726F62652062656EE4
:1006900064696E6720636F7272656374696F6E2040
:1006A00042205B6D6D5D005A2D70726F6265206235
:1006B000656E64696E6720636F7272656374696FDB
:1006C0006E2041205B6D6D5D005A2D70726F62650A
:1006D000205933205B6D6D5D005A2D70726F62651D
:1006E000205833205B6D6D5D005A2D70726F62650E
:1006F000205932205B6D6D5D005A2D70726F6265FE
:10070000205832205B6D6D5D005A2D70726F6265EE
:10071000205931205B6D6D5D005A2D70726F6265DE
:10072000205831205B6D6D5D005A2D70726F6265CF
:10073000206F66667365742079205B6D6D5D005A6D
:100740002D70726F6265206F666673657420782005
:100750005B6D6D5D005A2D70726F626520782D792A
:100760002D7370656564205B6D6D2F735D005A2D70
:1007700070726F6265207370656564205B6D6D2FAC
:10078000735D004D61782E207A2D70726F62652046
:100790002D2062656420646973742E205B6D6D5D2D
:1007A000005A2D70726F62652068656967687420F1
:1007B0005B6D6D5D00436F6174696E67207468697D
:1007C000636B6E657373205B6D6D5D005A2D617890
:1007D00069732074726176656C20616363656C6512
:1007E000726174696F6E205B6D6D2F735E325D0098
:1007F000592D617869732074726176656C2061632C
:1008000063656C65726174696F6E205B6D6D2F73CB
:100810005E325D00582D617869732074726176656F
:100820006C20616363656C65726174696F6E205BD7
:100830006D6D2F735E325D005A2D61786973206192
:100840006363656C65726174696F6E205B6D6D2F9B
:10085000735E325D00592D61786973206163636551
:100860006C65726174696F6E205B6D6D2F735E32A3
:100870005D00582D6178697320616363656C6572F2
:100880006174696F6E205B6D6D2F735E325D005A0F
:10089000206261636B6C617368205B6D6D5D0059F4
:1008A000206261636B6C617368205B6D6D5D0058E5
:1008B000206261636B6C617368205B6D6D5D0050DD
:1008C00061726B20706F736974696F6E205A207249
:1008D00061697365205B6D6D5D005061726B2070A6
:1008E0006F736974696F6E2059205B6D6D5D005088
:1008F00061726B20706F736974696F6E2058205B32
:100900006D6D5D005A206D6178206C656E6774684E
:10091000205B6D6D5D0059206D6178206C656E67A0
:100920007468205B6D6D5D0058206D6178206C658A
:100930006E677468205B6D6D5D005A206D696E2076
:10094000706F73205B6D6D5D0059206D696E207056
:100950006F73205B6D6D5D0058206D696E20706F48
:1009600073205B6D6D5D004D61782E205A2D6A6598
:10097000726B205B6D6D2F735D004D61782E206A68
:1009800065726B205B6D6D2F735D005A2D61786908
:100990007320686F6D696E67206665656472617447
:1009A00065205B6D6D2F735D00592D617869732033
:1009B000686F6D696E672066656564726174652035
:1009C0005B6D6D2F735D00582D6178697320686FC2
:1009D0006D696E67206665656472617465205B6D24
:1009E0006D2F735D005A2D61786973206D61782ECB
:1009F000206665656472617465205B6D6D2F735D43
:100A000000592D61786973206D61782E20666565C7
:100A10006472617465205B6D6D2F735D00582D618C
:100A2000786973206D61782E2066656564726174E3
:100A300065205B6D6D2F735D005A2D6178697320A1
:100A4000737465707320706572206D6D00592D612F
:100A500078697320737465707320706572206D6D92
:100A600000582D6178697320737465707320706508
:100A700072206D6D0053746F7020737465707065B3
:100A80007220616674657220696E6163746976694B
:100A90007479205B6D732C303D6F66665D004D612F
:100AA000782E20696E6163746976652074696D655E
:100AB000205B6D732C303D6F66665D005072696E11
:100AC00074657220616374697665205B735D0046AE
:100AD000696C616D656E74207072696E74656420F6
:100AE0005B6D5D004261756472617465004C616E9E
:100AF000677561676500504944204175746F74756E
:100B00006E65206661696C6564212074696D656F2E
:100B1000757400504944204175746F74756E65207A
:100B20006661696C6564212054656D7065726174DD
:100B300075726520746F6F206869676800204B6468
:100B40003A2000204B693A2000204B703A200020C8
:100B50005479726575732D4C7962656E20504944E5
:100B6000002050657373656E20496E74656772610D
:100B70006C2052756C652050494400204E6F204F08
:100B800076657273686F6F74205049440020536F0C
:100B90006D65204F76657273686F6F74205049449D
:100BA0000020436C617373696320504944002054F2
:100BB000753A2000204B753A2000206D61783A206C
:100BC00000206D696E3A200020643A20002062699E
:100BD00061733A2000504944204175746F74756EFA
:100BE00065207374617274004E6F206361736520B9
:100BF0006C6967687473004D617854656D703A0074
:100C00004469616D657465723A00416363656C6542
:100C1000726174696F6E3A004D61785370656564F6
:100C20003A004A65726B3A004D61784265645465DA
:100C30006D703A005072696E746572547970653ADD
:100C400043617274657369616E005A5472617665AE
:100C50006C416363656C3A005954726176656C410E
:100C60006363656C3A005854726176656C416363E6
:100C7000656C3A005A5072696E74416363656C3AF0
:100C800000595072696E74416363656C3A00585044
:100C900072696E74416363656C3A005A53697A6590
:100CA0003A005953697A653A005853697A653A00AF
:100CB0005A4D61783A00594D61783A00584D617843
:100CC0003A005A4D696E3A00594D696E3A00584DD6
:100CD000696E3A0052657472616374696F6E556E25
:100CE000646F53706565643A005265747261637431
:100CF000696F6E556E646F45787472614C6F6E6784
:100D00004C656E6774683A00526574726163746909
:100D10006F6E556E646F45787472614C656E677462
:100D2000683A0052657472616374696F6E5A4C69F7
:100D300066743A0052657472616374696F6E5370C1
:100D40006565643A0052657472616374696F6E4CD4
:100D50006F6E674C656E6774683A005265747261B5
:100D60006374696F6E4C656E6774683A004A6572A9
:100D70006B5A3A004B656570416C697665496E74D3
:100D8000657276616C3A004A65726B58593A005048
:100D900072696E746C696E6543616368653A00459B
:100DA0004550524F4D3A004175746F6C6576656CD5
:100DB0003A005A50726F62653A00436173654C693C
:100DC000676874733A00537570706F72744C6F6318
:100DD000616C46696C616D656E746368616E6765B0
:100DE0003A00537570706F72744731304731313A41
:100DF000005A486F6D65506F733A0059486F6D65C2
:100E0000506F733A0058486F6D65506F733A005ACF
:100E1000486F6D654469723A0059486F6D65446961
:100E2000723A0058486F6D654469723A00536F66B4
:100E30007477617265506F77657253776974636810
:100E40003A004C43443A0046616E323A3000466103
:100E50006E3A005344436172643A004865617465B8
:100E6000644265643A004D6978696E6745787472CA
:100E7000756465723A004E756D4578747275646577
:100E8000723A00496E7075744275666665723A0012
:100E900042617564726174653A00696E666F3A43C7
:100EA0006F6E74696E75652066726F6D2066617411
:100EB000616C207374617465000054657374696EAD
:100EC0006720666174616C206572726F7200292000
:100ED0003D20002C0042656E64696E6720617420BD
:100EE0002800436F6E66696775726174696F6E2062
:100EF0006C6F616465642066726F6D204545505269
:100F00004F4D2E00436F6E66696775726174696F2D
:100F10006E2073746F72656420746F204545505263
:100F20004F4D2E00436F6C64206578747275736941
:100F30006F6E20646973616C6C6F77656400436FDA
:100F40006C6420657874727573696F6E20616C6C67
:100F50006F7765640054726967676572696E6720B0
:100F60007761746368646F672E20496620616374DB
:100F70006976617465642C20746865207072696E8E
:100F80007465722077696C6C2072657365742E00CD
:100F90005761746368646F672064697361626C652C
:100FA00064004175746F726574726163743A0020F5
:100FB0005A4A65726B3A004A65726B3A0020746F48
:100FC000200053657420766F6C756D65747269636B
:100FD00020657874727573696F6E20666F72206514
:100FE00078747275646572200044697361626C651F
:100FF0006420766F6C756D657472696320657874B2
:10100000727573696F6E20666F7220657874727581
:1010100064657220002050524548454154005052AA
:1010200045484541545F4245443A00205A533A00EE
:101030002059533A0058533A0050524548454154BC
:101040003A3100504155534553544F503A310054B2
:101050004F47474C455F4C49474854533A3000533B
:101060004F4654574152455F504F5745523A300012
:101070005A5F50524F42453A31004155544F4C450A
:1010800056454C3A3100454550524F4D3A3100419A
:1010900055544F5245504F52545F54454D503A317C
:1010A0000050524F47524553533A31004649524D32
:1010B000574152455F4E414D453A526570657469DE
:1010C00065725F312E302E3320434F4D50494C45D1
:1010D000443A446563203238203230313820464962
:1010E000524D574152455F55524C3A687474707373
:1010F0003A2F2F6769746875622E636F6D2F726562
:101100007065746965722F52657065746965722DBA
:101110004669726D776172652F2050524F544F436C
:101120004F4C5F56455253494F4E3A312E30204D69
:10113000414348494E455F545950453A4D656E64A8
:10114000656C2045585452554445525F434F554EA7
:10115000543A352052455045544945525F50524FFC
:10116000544F434F4C3A330050696E2063616E20F8
:101170006E6F7420626520736574206279204D342F
:10118000322C20697320696E2073656E73697469EF
:1011900076652070696E73212000206973200049F4
:1011A0006C6C6567616C20532076616C7565206698
:1011B0006F72204D34320020746F2000536574200C
:1011C0006F75747075743A2000000136372603027B
:1011D0003C3D380E0F2E303E12130D0C0A081A1C1F
:1011E0001824221E403B2C0D0E35556E6B6E6F770A
:1011F0006E20636F6D6D616E643A00311426145376
:101200006F6674776172652052657365740057610B
:10121000746368646F672052657365740042726F0F
:10122000776E206F7574205265736574004578740D
:1012300065726E616C20526573657400506F7765DE
:10124000725570000D0D0D0D0D0E110A0411040ADA
:101250001111001C1F11111F0000040A0A0A0E1FA1
:101260001F0E001F1111111F0000001F1F1F1F1F45
:101270000000040A040000000000040E1504040429
:101280001C005445564F00546172616E74756C6158
:10129000206469616D6F6E642066756C6C20636F8D
:1012A0006C6F7200526570657469657220312E3002
:1012B0002E3300467265652052414D3A008200008F
:1012C0000200FB114E65656473206C616E67756189
:1012D00067652073656C656374696F6E0073746114
:1012E00072740057726F6E6720636865636B737505
:1012F0006D0077616974004672616E6361697300A5
:10130000456E676C697368000000042604400000A5
:101310000096000000044C0400000000BB00000028
:10132000044D0400000000BC000000042E04000076
:10133000000090000000042A04000000008F00005C
:1013400000042B04000000008E000000042C0400A8
:101350000000008D000000042904000000008C0043
:1013600000000413040000000055000000041204F3
:1013700000000000540000000411040000000053AD
:1013800000000004160400000000510000000415D5
:1013900004000000005000000004140400000000DD
:1013A0004F000000040F040000000038000000049B
:1013B0000E040000000037000000040D04000000CF
:1013C0000035000000040C040000000034000000A0
:1013D000040B040000000033000000040A040000B5
:1013E000000031000000040904000000003000008B
:1013F00000040804000000002F00000000000000AE
:1014000000000089000000000000000000008800CB
:101410000000000000000000008600000000000046
:10142000000000008500F71203AB2600000000005A
:1014300000001303A426000000000000000004D4F4
:1014400004000000002601000004D3040000000096
:101450002501000004D20400000000240100000463
:10146000D104000000002301000004D004000000AB
:10147000002201000004CF04000000002801000049
:1014800001000000000000210100000382040000B0
:1014900000000A010000038104000000003F00007A
:1014A00000038004000000003E000000037F0400F1
:1014B0000000003D000000037E04000000003C002E
:1014C0003F1C55134A133F13341329131E131313D0
:1014D00075176A175F17541749173E173317081304
:1014E00028173F1C97138C13811376136B1360130B
:1014F0003F1CEF13E413D913CE13C313B813AD136A
:10150000A2130514FA131B1410143F1C31142614D3
:101510007E143F1C731468145D14521447143C1459
:101520003F1CB514AA149F149414891402000011CE
:1015300000C0140200000700E2140200000900F0DD
:1015400014035804020002150320040200061502C9
:10155000000003000A150200000800101502000038
:1015600006002015000003DB040000000037010026
:1015700000030704000000003B0000000306040015
:101580000000003A000000022C15000000000F00CF
:101590000000023315000000004E000000023A1562
:1015A0000000000039000000024115000000008723
:1015B0000000000248150000000084000000041034
:1015C00004000000008B000000024F150000000026
:1015D000E400000003B40400000000D20000000397
:1015E000D604000000002901000003B2040000003E
:1015F00000D000000003C804000000001F0100002C
:101600000256150000000021010000025D150000D7
:1016100000001100000004BD0400001000E3000001
:101620000003B90400001000E100000003B804004A
:10163000001000E000000003B60400001000DF000E
:10164000000003B50400001000DE00000003BE042B
:1016500000001000DD00000003B70400001000DCF3
:1016600000000004B60F000000000901000004B5EE
:101670000F000000000801000004B40F000000008B
:101680000701000000000000000000F20000000060
:10169000000000000000AB0000000000000000009F
:1016A0000070000000000000000000006F0000005B
:1016B00003E803000000002D010000038813000070
:1016C00000002C01000004F203000000002A0100C9
:1016D0000001000000000000CB003F1CC715BC1536
:1016E000B115A6159B1590158515D61D7A156F1584
:1016F00064153F1C0916FE15F315E815DD15D21506
:101700003F1C56164B16401635162A161F16141671
:101710003F1C77166C166116A31698168D16821646
:10172000CF16C416B916AE160000042F0400000030
:10173000009B00000004220440000000950000000F
:10174000042604200000009A000000042504200064
:10175000000099000000042404200000009800000C
:10176000000423042000000097000000042204204D
:1017700000000094000000042D040000000093000D
:101780000200000C00DA160200000700F216020048
:1017900000080000170200000400101703F0030403
:1017A000001817820000040020173F1C75176A17E5
:1017B0005F17541749173E1733172817000000000A
:1017C0000000000000130100000000000000000005
:1017D000F4000000000000000000001D01000000F7
:1017E000000000000000F40000000280170000105C
:1017F000000D000000028717000010000E0100001D
:1018000002D71E0000000010000000028E1700002A
:101810001000D900000002981E000010000F000008
:101820000002911E000010000E000000045704107A
:10183000000000CA00000003B40410000000D20041
:101840000000045204100000007E00000004480460
:1018500010000000B100000002A31710000000CB30
:10186000000000041F0410000000B000000004612C
:1018700004100000002400000004620410000000B6
:101880002500000003C404040000004A0000000317
:101890004B04100004004900000003C504100004BC
:1018A00000C9000000029F1E000010000B00000095
:1018B000000000000000001C01000000000000000B
:1018C00000001601000000000000000000150100EB
:1018D00000000000000000001401000000000000F3
:1018E000000000E000000000000000000000DA003E
:1018F000000000000000000000DF00000000000009
:1019000000000000DA00000000000000000000E11C
:1019100000000000000000000000DA0000000000ED
:101920000000000000DE00000000000000000000D9
:10193000DA00000000000000000000DD00000000F0
:10194000000000000000DA000000000000000000BD
:1019500000DC00000000000000000000DA000000D1
:1019600003E803000000002D01000003D70400007D
:1019700000002C01000004D804000000002B01002E
:10198000000100000000000029010000000000002C
:10199000000000CF00000000000000000000CE00AA
:1019A000000000000000000000CD0000000000006A
:1019B00000000000CC0000000295170000000006A7
:1019C00001000002BB1E000000002100000002A672
:1019D0001E000000002200000002C21E00000000E5
:1019E0001F00000002AD1E000000002000000002E9
:1019F000C91E000000001D00000002B41E0000000F
:101A0000001E00000003000400001000160000008B
:101A100003FF03000010001500000003FE03000098
:101A2000100014000000034404000000002E000019
:101A300000029C170000000023000000033A04008D
:101A400000000028000000046204000000002500DF
:101A500000000461040000000024000000034304AF
:101A6000000010001C000000033104000010001BE7
:101A7000000000033804000000001A0000000347C3
:101A800004000000001800000003370400000000FC
:101A90001700000002A31700000000CB00000004A4
:101AA0005204000000007E00000004480400000012
:101AB00000B1000000041F0400000000B00000009E
:101AC00004570400000000CA00000003FD030000EA
:101AD000100013000000000000000000006E000075
:101AE00000000000000000006D0000000000000089
:101AF0000000006C000000000000000000006B000F
:101B00000000000000000000006A0000000000006B
:101B100000000000690000000000000000000068F4
:101B2000000000000000000000006700000000004E
:101B3000000000000066000000000000000000003F
:101B400065000000000000000000006400000000CC
:101B50000000000000006300000000000000000022
:101B600000620000000000000000000061000000B2
:101B70000000000000000060000000000000000005
:101B800000005F000000000000000000005E000098
:101B900000000000000000005D00000000000000E8
:101BA0000000005C000000000000000000005B007E
:101BB0000000000000000000005A000000000000CB
:101BC0000000000059000000000000000000005864
:101BD000000000000000000000005700000003C6E5
:101BE00024100000000300000003E80300000000D0
:101BF0000400000001000000000000F400000001EB
:101C0000000000000000C900000003F4030100020E
:101C1000004D00000002D01E02000000C9000000BC
:101C200003F703060000004A00000003F603020069
:101C300004004900000003F5030100020048000011
:101C40000003E803000000000A000000000000009C
:101C50000000003901000000000000000000380111
:101C6000000000000000000000A8000000000000CC
:101C700000000000A700000000000000000000A617
:101C800000000000000000000000A50000000000AF
:101C90000000000000130100000000000000000030
:101CA000F40000000000000000000020010000001F
:101CB000000000000000F4000200000900AA17DD87
:101CC00017D217C717BC173F1CA31898188D188276
:101CD0001877186C18611856184B18401835182AC0
:101CE00018341C1F1814180918FE17F317E817CF1B
:101CF00018C418B918AE18E518DA18FB18F018113E
:101D000019061927191C193D193219531948197F39
:101D100019741969195E19AB19A01995198A193F17
:101D20001CC91A191A0E1A031AF819ED19E219D753
:101D300019CC19C1192F1AB6193F1C501A451A3A55
:101D40001A2F1A241A3F1CC91ABE1AB31AA81A9DB0
:101D50001A921A871A7C1A711A661A5B1AF51AEA0D
:101D60001ADF1AD41A211B161B0B1B001B4D1B421A
:101D70001B371B2C1B791B6E1B631B581BA51B9A47
:101D80001B8F1B841BD11BC61BBB1BB01BFD1BF277
:101D90001BE71BDC1B3F1C341C291C1E1C131C08CE
:101DA0001C3F1C551C4A1C6B1C601C811C761CAD06
:101DB0001CA21C971C8C1C52657175657374506154
:101DC0007573653A0052657175657374436F6E740F
:101DD000696E75653A00000002B81C00000000A2A0
:101DE0000005CC040400BF1C2F2F20616374696FB1
:101DF0006E3A726573756D650044656C6574696FE4
:101E00006E206661696C65640046696C6520646576
:101E10006C65746564000200001400C71C05CD04E5
:101E20000400EF1C0310270200F71C031027020018
:101E3000FB1C0310270200FF1C0310270200031DD8
:101E40000310270200071D03102702000B1D82004C
:101E50000004000F1D0588130400171D2F2F20619B
:101E60006374696F6E3A706175736500696D706F48
:101E70007274616E743A2046696C616D656E74208F
:101E80006368616E6765207265717569726564214A
:101E9000000200000D001F1D0200000600391D0297
:101EA00000000C00451D03FC0304005D1D03FB0343
:101EB0000400651D03FA0304006D1D03EF03040015
:101EC000751D03EE0304007D1D03ED030400851D55
:101ED00002000004008D1D0200000600951D010097
:101EE000000100A11D0310270200A31D03102702FB
:101EF00000A71D0310270200AB1D4A616D20636F10
:101F00006E74726F6C2064697361626C65643A0010
:101F100005CC040400AF1D0000000000000000001C
:101F2000002020203F2E3F3F0020486F6D696E67E4
:101F300000206465632000206465662000200004A2
:101F400000030044656275674C6576656C3A005025
:101F500072696E7465724D6F64653A434E4300500A
:101F600072696E7465724D6F64653A4C6173657227
:101F7000005072696E7465724D6F64653A464646EC
:101F8000005A206A65726B2077617320746F6F202E
:101F90006C6F772C2073657474696E6720746F2082
:101FA000005859206A65726B2077617320746F6FD7
:101FB000206C6F772C2073657474696E6720746F62
:101FC0002000496E76616C6964206172630057611C
:101FD000726E696E673A005A204F666673657420A8
:101FE0006E6F7420636F6D707574656420647565C1
:101FF00020746F206572726F7273005A204F66668C
:102000007365742073746F726564005A204F66663E
:10201000736574206E6F7420636F6D707574656482
:102020002064756520746F206572726F727300444E
:102030006576696174696F6E206265747765656E37
:10204000206D6561737572656D656E74732077655B
:10205000726520746F6F206269672C20706C6561F7
:102060007365207265706561742E00205A5F4F465B
:10207000465345543A0020595F4F46465345543A1B
:1020800000585F4F46465345543A0052656C6174A0
:1020900069766520706F736974696F6E696E670029
:1020A0004162736F6C75746520706F736974696FCA
:1020B0006E696E6700473332206C6576656C696EB9
:1020C00067206661696C6564210047333020707257
:1020D0006F62696E67206661696C656421004732D2
:1020E00039206C6576656C696E67206661696C6520
:1020F00064210041646A7573746564207A206F728C
:102100006967696E005A2D70726F6265206176652D
:1021100072616765206865696768743A002500F038
:102120000F2C00A00F3300500F3A00000F4300B0F7
:102130000E4D00600E5800100E6300C00D70007050
:102140000D7E00200D9000D00CA300800CB9003053
:102150000CD200E00BF000900B1101400B3701F0A6
:102160000A6301A00A9801500AD601000A1E02B0B3
:10217000096F026009D00210094003C008C1037052
:102180000854042008FC04D007B70580078C0630EB
:10219000076807E006550890064E0940064B0AF00E
:1021A00005320BA005140C5005D80C00058C0DB0A1
:1021B00004180E60048F0E1004F00EC0033A0F7066
:1021C00003730F2003BD0F8002DC0F0802E90FB874
:1021D00001F20F6801F80F1801FC0FC800FF0F0093
:1021E000004800901A4800A00F5800000F6C0060D3
:1021F0000E8400C00DA400200DD000800C1001E062
:102200000B5801400BC001A00A4C02000A080360F1
:1022100009F803C00828052008B00680075408E024
:1022200006180A4006C80BA005300D0005400E60D8
:1022300004FC0EC003740F2003BC0F8002E00FE00B
:1022400001F40FF000FB0FC800FC0FA000040050C9
:102250001D7C00D009A4001009CC008008F40010F7
:10226000081C01B807440168076C0128079401E8BD
:1022700006BC01B806E40188060C02600634023888
:10228000065C0218068402F005AC02D805D402B838
:1022900005FC0298052403800574035005C4032837
:1022A00005140400056404D804B404B0042C0580AB
:1022B00004A40558041C062804940600040C07D83E
:1022C00003AC07A8034C087803EC0848038C0920EA
:1022D00003A40AD0021C0BA802AC0C2802FC0C08B8
:1022E00002C40DB801140E9801B40E38012C0FE091
:1022F00000540FB8007C0F8800A40F4800F40F288A
:10230000FFFC0FC0F9000000008C030800AE035072
:1023100000D603A000F703F0001804400138049031
:10232000015904E0017A0430029A048002BB04D00F
:1023300002FC0470032605C003860630079709A037
:102340000F750D201C520E401F1F0F6022FF0F80C3
:102350003E0400081D900058091C01B007A801C8E0
:102360000634023006C002C0054C036805D80318C5
:10237000056404D004F00498047C05600408063069
:1023800004940600042007D003AC07A80338088093
:1023900003C408580350093003DC090803680AD84D
:1023A00002F40AB002800B88020C0C6002980C3018
:1023B00002240DF801B00DC0013C0E8001C80E30A2
:1023C00001540FB800B40F2800E00F0000040040D3
:1023D0001D900060091C01B007A801D00634023826
:1023E00006C002C8054C036805D80318056404D864
:1023F00004F00498047C0560040806300494060088
:10240000042007D003AC07A80338088003C4085889
:102410000350093003DC090803680AE002F40AB833
:1024200002800B88020C0C6002980C3002240DF81C
:1024300001B00DC0013C0E8001C80E3001540FB830
:1024400000B40F2800E00F000004000016D800C000
:1024500006AC0178058002C004540348042804E84F
:1024600003FC049803D0055003A40618037807D88A
:10247000024C08A80220097002F4093802C80A08B0
:10248000029C0BD001700C9001440D5001180EF805
:1024900000EC0E8800C00F00000400681D4C0050C6
:1024A0000B94005809DC0050082401A8076C01288F
:1024B00007B401C006FC017006440228068C02F035
:1024C00005D402B8051C03880564035805AC033025
:1024D00005F40310053C04E8048404C804CC04A8F3
:1024E00004140590045C057004A4055804EC053838
:1024F00004340620047C060804C406F0030C07D844
:10250000035407C8039C07B003E40798032C088012
:102510000374087003BC085803040948034C0930CD
:102520000394091803DC090803240AF0026C0AE08A
:1025300002B40AC802FC0AB002440BA0028C0B8849
:1025400002D40B70021C0C5802640C4002AC0C2824
:1025500002F40C10023C0DF001840DD801CC0DB832
:1025600001140E98015C0E7001A40E4801EC0E18C7
:1025700001340FD8007C0F8800C40F0800FC0F0046
:10258000000000000000000000000000000000004B
:10259000000000000000000000000000000000003B
:1025A00000000000000000401F450060094F0010BF
:1025B000095C00C0086B0070087D0020089200D004
:1025C00007AC008007CC003007F400E00623019040
:1025D000065E014006A601F005FF01A0056D025050
:1025E00005F30200059603B0045A04600440051088
:1025F000044806C0036E077003A8082003EB09D047
:1026000002230B8002410C3002390DE001040E90D0
:1026100001A20E4001170FF000690FA000A20F5099
:1026200000C60F0000DD0FB0FFEB0F60FF0400706D
:102630000DD8004804AC0158038002D8025403802E
:102640000228043802FC040002D005C801A4069840
:1026500001780770014C08480120091801F409F0BD
:1026600000C80AC8009C0BA000700C7000440D3814
:1026700000180E0000EC0EA8FFC00FE8FE040000DA
:102680001B54006009640010097400C008840070C5
:10269000089C002008B800D007D80080070001304F
:1026A000072C01E00668019006AC0140060002F02C
:1026B000056802A005E0025005740300052404B07B
:1026C00004F0046004DC051004E406C00304087090
:1026D0000330092003780B8002600DE001A80E4052
:1026E00001680FA000C00F0000E80F60FF04008029
:1026F0001AD8009808AC012007800250065403C87D
:102700000528045805FC040005D005B004A406689B
:1027100004780728044C08E8032009B003F4097082
:1027200003C80A38039C0BF802700CB002440D6811
:1027300002180E0802EC0E8801C00F8800F00F008E
:10274000000000A00F5C006009690010097900C05A
:10275000088C007008A2002008BD00D007DE0080B1
:1027600007050130073401E0066D019006B2014013
:10277000060702F0056D02A005E80250057B030084
:10278000052B04B004F8046004EB06C003350920EF
:10279000037F0B8002650DE001B00E40011D0FF0BC
:1027A00000480FC8006C0FA000ED0F60FFFE0F483F
:1027B000FE53656C65637445787472756465723A2E
:1027C000003A005461726765744578747200546110
:1027D000726765744265643A004127ED267D262DB7
:1027E00026000000000000A52599244924CD23518E
:1027F0002305234D22E1211D211C151C140000007E
:102800002243141F1F132E1B315072696E746572A0
:102810002073657420696E746F20647279207275FC
:102820006E206D6F646520756E74696C20726573BF
:10283000746172742100206D61726B65642064653F
:10284000636F75706C656400206D61726B656420E8
:10285000646566656374003A20776F726B696E67B2
:10286000003A2074656D702073656E736F7220641A
:1028700065666563740065787472756465722000BE
:1028800068656174656420626564000000420FA1A0
:10289000071605D0030D038B022E02E801B2018654
:1028A00001630145012C0117010401F4000000003F
:1028B0000000000000000000000000000024F403FD
:1028C000D950C38EB1C2A23D96828B3582127AE373
:1028D00072816CCB66A861015DC758EB54615120D1
:1028E0004E1E4B5648C14559431A41013F093D2FE1
:1028F0003B7139CD374036C93465331432D430A3F7
:102900002F802E6B2D632C672B752A8E29B028DC27
:102910002710274B268F25D9242B248223E02243FE
:1029200022AC211A218D200420801F001F841E0C40
:102930001E971D261DB81C4E1CE61B821B201BC1AA
:102940001A641A0A1AB2195D190A19B9186A181CF8
:1029500018D11788174017FA16B51673163116F1E5
:1029600015B31576153A150015C7148F145814228F
:1029700014EE13BA13881356132513F612C71299BF
:10298000126C1240121512EB11C1119811701148FE
:10299000112111FB10D610B1108D106910461024B2
:1029A000100210E10FC00FA00F800F610F420F2324
:1029B0000F060FE80ECB0EAF0E930E770E5C0E4196
:1029C0000E270E0D0EF30DDA0DC10DA80D900D782A
:1029D0000D600D490D320D1B0D050DEF0CD90CC30B
:1029E0000CAE0C990C850C700C5C0C480C350C2151
:1029F0000C0E0CFB0BE80BD60BC40BB20BA00B8E12
:102A00000B7D0B6B0B5A0B4A0B390B290B180B0860
:102A10000BF80AE90AD90ACA0ABB0AAC0A9D0A8E4F
:102A20000A800A710A630A550A470A390A2C0A1EE3
:102A30000A110A040AF709EA09DD09D009C409B72D
:102A400009AB099F09920987097B096F0963095836
:102A5000094C09410936092B09200915090A090001
:102A600009F508EB08E008D608CC08C208B808AE9B
:102A700008A4089A08900887087D0874086B086104
:102A80000858084F0846083D0834082C0823081A3F
:102A900008120809080108F807F007E807E007D856
:102AA00007D007C807C007B807B007A807A10700E5
:102AB0000000000000000000F7000000000000001F
:102AC000000000DA00BA2AAF2A000000000000006F
:102AD00000001C01000000000000000000F40000E5
:102AE00000000000000000001B01000000000000CA
:102AF00000000017010000000000000000001C01A1
:102B0000000000000000000000F4000000000000D1
:102B1000000000001A010000000000000000001783
:102B2000010000000000000000001C010000000087
:102B30000000000000F400000000000000000000A1
:102B40001901000000000000000000170100000053
:102B50000000000000001C01000000000000000058
:102B600000F4000000000000000000001801000058
:102B7000000000000000001701EA2ADF2AD42AC959
:102B80002A162B0B2B002BF52A422B372B2C2B2113
:102B90002B6E2B632B582B4D2B000310270200C5E7
:102BA0002A6572726F722077726974696E67207419
:102BB0006F2066696C6500504944204175746F74DC
:102BC000756E652066696E697368656420212050A2
:102BD0006C61636520746865204B702C204B692004
:102BE000616E64204B6420636F6E7374616E7473E6
:102BF00020696E2074686520436F6E666967757220
:102C00006174696F6E2E68206F7220454550524F77
:102C10004D00446F6E6520736176696E672066694A
:102C20006C652E002F005344204361726420756E42
:102C30006D6F756E746564005472616E73666F7249
:102C40006D6174696F6E206D61747269783A000508
:102C5000CB040400792B05CB040400812B05CB04A5
:102C60000400892B05CB040400912B43617264207E
:102C70007375636365737366756C6C7920696E69CF
:102C80007469616C697A65642E0043616E277420F3
:102C90006F70656E20726F6F742064697265637403
:102CA0006F72792E0A0043616E27742066696E6424
:102CB00020612076616C69642046415431362F468C
:102CC0004154333220706172746974696F6E2E0AD8
:102CD000006572726F72436F64653A20000A534454
:102CE00020696E697469616C697A6174696F6E20BC
:102CF0006661696C65642E0A446F206E6F74207281
:102D000065666F726D6174207468652063617264BA
:102D1000210A497320746865206361726420636FBF
:102D200072726563746C7920696E73657274656420
:102D30003F0A4973206368697053656C656374204A
:102D400073657420746F2074686520636F72726598
:102D500063742076616C75653F0A446F657320610A
:102D60006E6F74686572205350492064657669639C
:102D700065206E65656420746F20626520646973E8
:102D800061626C65643F0A497320746865726520EE
:102D90006120776972696E672F736F6C6465726901
:102DA0006E672070726F626C656D3F0053442069DE
:102DB0006E6974206661696C00004175746F6C65A2
:102DC00076656C206D6174726978207265736574C4
:102DD000004865617465722F73656E736F7220654C
:102DE00072726F720044697361626C696E67206110
:102DF0006C6C2068656174657273206475652074FD
:102E00006F2064657465637465642073656E736FA9
:102E100072206465666563742E00206465672E20E9
:102E20004300206D656173757265642000457272A0
:102E30006F723A436F756C64206E6F7420686F6CAC
:102E4000642074656D706572617475726520002010
:102E50006D730020616674657220004572726F7236
:102E60003A54656D702E2072616973656420746FC9
:102E700020736C6F772E2052697365203D20004FC0
:102E80006E6520686561746572207365656D732079
:102E90006465636F75706C65642066726F6D207415
:102EA0006865726D6973746F72202D206469736137
:102EB000626C696E6720616C6C20666F7220736152
:102EC0006665747921004865617465722064656384
:102ED0006F75706C65640048656174656420626537
:102EE00064206578636565646564206D617820742D
:102EF000656D7065726174757265210020453A00D8
:102F0000205A3A00583A002044303A0020403A0013
:102F10002042403A0020524157002044423A0020CB
:102F2000423A00202F00543A0053706565644D7595
:102F30006C7469706C793A00466C6F774D756C747F
:102F400069706C793A0046616E73706565643A0029
:102F5000206D696E0020686F7572732000206461B7
:102F6000797320005072696E74696E672074696DA0
:102F7000653A006D20005072696E74656420666960
:102F80006C616D656E743A00000000000000000086
:102F900000F100000000000000000000C40000007C
:102FA00000000000000000F0000000000000000031
:102FB0000000C300000000000000000000F300005B
:102FC0000000000000000000F4000000000000000D
:102FD000000000AF00000000000000000000AB0097
:102FE000000000000000000000F3000000000000EE
:102FF000000000005F000000000000000000005B17
:103000000000000000000000000057000000000069
:103010000000000000F300000000000000000000BD
:10302000EE00000000000000000000ED00000000C5
:10303000000000000000EB00A92F9E2F932F882F87
:10304000D52FCA2FBF2FB42F0130F62FEB2FE02F33
:103050002D30223017300C300000000400383000D2
:103060000000040040300000000400483000000070
:103070000400503046696C652073656C6563746547
:1030800064002053697A653A0046696C65206F7068
:10309000656E65643A0066696C652E6F70656E20BA
:1030A0006661696C65640000002100240027002A25
:1030B000002D003000330001010000040107010A67
:1030C000010102102020080810204010204080023A
:1030D000010201080402010102040810204080805E
:1030E00040201008040201800402018040201008E2
:1030F00004020108040201010204081020408001BA
:103100000204081020408005050505070508080889
:1031100008020202020A0A08080404040401010168
:103120000101010101030303030303030304070770
:10313000070C0C0C0C0C0C0C0C020202020606060E
:1031400006060606060B0B0B0B0B0B0B0B6D306606
:10315000305F305830494E46004E414E00436F6E4E
:1031600066696775726174696F6E207265736574E4
:1031700020746F2064656661756C74732E000000A6
:10318000FF00000000010100000000FF000050727D
:103190006F746F636F6C2076657273696F6E2063F6
:1031A00068616E6765642C20757067726164696E12
:1031B0006700446574656374656420454550524FEB
:1031C0004D2076657273696F6E3A00457874722E81
:1031D000004550523A3320004550523A32200045C3
:1031E00050523A3120004550523A3020005A2D704A
:1031F000726F62652073746174653A007A5F6D69FD
:103200006E3A004C2000482000795F6D696E3A00EC
:10321000785F6D696E3A00656E6473746F707320C9
:103220006869743A20008025000040380000004B97
:1032300000008070000000960000C0DA000000E18D
:103240000000002C010008B2010000C2010000F4DF
:1032500001000084030090D0030000E80300000890
:10326000070020A1070000100E0040420F0060E39D
:1032700016000000000052657365742066726F6D61
:1032800020436F6E66696700436F6E66696775728B
:103290006174696F6E0052657365742045455052C4
:1032A0004F4D0025656A204A616D20436F6E747230
:1032B0006F6C004D756C3A20256F6D2525252020FB
:1032C00020204C61733A256F702057004D756C3A81
:1032D00020256F6D252525202020205370693A2553
:1032E0006F7052504D20005A773A257837202020B1
:1032F0005A3A2578320059773A25783620202059D5
:103300003A2578310058773A257835202020583AE8
:10331000257830005374617274205A2D50726F6298
:1033200065004D6573757265202E2E2E005A2D4F47
:1033300066667365743A25587A004665726D650055
:10334000436F6E74696E756500506F732E20526501
:10335000656C205A3A2557306D6D0054656D702E9E
:10336000202565632F2545630243004D65732E209C
:103370004861757465757220536F6E6465004C69A1
:1033800074202020203A2025706202430045787482
:10339000722E20363A20257035024300457874722B
:1033A0002E20353A20257034024300457874722E61
:1033B00020343A20257033024300457874722E2061
:1033C000333A20257032024300457874722E203241
:1033D0003A20257031024300457874722E20313A2C
:1033E000202570300243005072656368617566661F
:1033F0006167652054656D702E0050726973652099
:1034000064274F726967696E65202E2E2E00417504
:10341000746F6C6576656C204C69740043616C69EF
:103420006272616765204572726575720043616CF6
:10343000696272616765204C697400202020203E1B
:103440003E3E204F6B203C3C3C004E6976656C6CE8
:10345000656D656E74204572726575720046696CA3
:10346000616D656E7420676C697373616E7400437F
:103470006861756666616765206465636F75706C09
:10348000650044656661757420536F6E64652054F1
:10349000656D702E004E6F74696669636174696F43
:1034A0006E3A00736F697420646567616765006CCC
:1034B00065206C697420636861756666616E74006E
:1034C0004173737572657A2D766F757320717565AA
:1034D000002A2A2A2050617469656E74657A202A50
:1034E0002A2A00416E6E756C6500566974657373A7
:1034F000652046616E20323A254653252525004435
:103500006973746F7273696F6E20636F72722E3A93
:10351000254465004D6573757265207A2D64697365
:10352000746F7273696F6E005265676C6167657363
:103530000025506E0025507025252500436F7563CA
:1035400068652025506C2F25504C0046696E20641C
:103550006520636F757273653A25647000536574F6
:10356000205A206F66667365743A2554326D6D007B
:103570005365742059206F66667365743A2554311B
:103580006D6D005365742058206F66667365743ADC
:103590002554306D6D00536574207072696E74200F
:1035A0006F66667365747300486175746575722023
:1035B0005A2D536F6E64653A257A6800254433208E
:1035C0003320436F706965730025443220322043F5
:1035D0006F7069657300254431203120436F706935
:1035E000650025443020417563756E6520436F701A
:1035F0006965002558352053656C6563742E204538
:103600007874722E2036002558342053656C65631B
:10361000742E20457874722E20350025583320539F
:10362000656C6563742E20457874722E20340045D5
:103630007874727564657573652036204F66660010
:10364000457874727564657573652035204F6666BC
:1036500000457874727564657573652034204F6613
:10366000660054656D702E2036203A2565352F256D
:10367000453502430054656D702E2035203A25658E
:10368000342F25453402430054656D702E203420BC
:103690003A2565332F254533024300202542436DEB
:1036A0006D00052565630200052565632F254563CB
:1036B000020000256F7300255566206D20496D704E
:1036C00072696D6500255566206D0025557400589A
:1036D0003A25783020593A257831004D756C3A20DA
:1036E000256F6D202020453A257834005A3A2578F8
:1036F000322020427566203A20256F42004225651F
:10370000422F2545620200052565632F254563028A
:10371000422565422F2545620200256F73004275E0
:10372000663A20256F42004D756C3A20256F6D2555
:10373000252520FD202020453A202578346D00469F
:103740006C6F773AFD20256F662525252020205AAD
:103750003A257832000E202565622F254562B0207B
:10376000593A257831000A202565632F254563B035
:1037700020583A257830004C616E677565004570B9
:10378000616973736575723A2542436D6D005065CA
:1037900072736F6E6E656C004261746F6E2064654B
:1037A00020436F6C6C6500527562616E20766572A5
:1037B000742050455400426C75652054617065005A
:1037C0004B6170746F6E004275696C6454616B007C
:1037D000417563756E205265766574656D656E74AE
:1037E00000005265766574656D656E7420646520B1
:1037F0004C69743A005265766574656D656E742027
:103800006465204C6974005374616E64627900537E
:10381000746F636B61676520642745787472757394
:10382000696F6E006369626C6573202E2E2E0041F5
:103830007474656E64657A2054656D702E005265EF
:103840006368617566666572204578747275642E6A
:1038500000436C697175657A20706F7572004967F5
:103860006E6F726572204D313036202546690050EA
:103870006F732E20536572766F3A20256F53004187
:1038800075746F6C6576656C3A20256C6C00436FBF
:103890006E74696E756572206176656320436C692C
:1038A000630046696C616D656E7420686175742F84
:1038B00062617300546F75726E657A204465706C36
:1038C00061636572004368616E67656D656E742043
:1038D00046696C616D656E74004368616E67656D05
:1038E000656E742046696C616D656E74005A204285
:1038F000616279737465702E3A256F596D6D004160
:103900007272657420496D70726573732E00546F06
:103910007574206F75205269656E0054656D707303
:10392000204D6F72740041545820706F776572207B
:103930006F6E2F6F666600496D7072696D65004627
:10394000696C616D656E7420496D7072696D65009A
:1039500054656D707320496D7072657373696F6E15
:1039600000003A00206A6F7572732000496D707212
:10397000696D616E74652070726574650043617273
:10398000746520534420696E7365726565004361F8
:1039900072746520534420726574697265650041D4
:1039A00074742E20556E6974733A2558556D6D00E8
:1039B0004174742E2054656D702E255854024300B6
:1039C0004E69766561752064656C74610043616C55
:1039D00063756C6572204E6976656C6C656D656E9D
:1039E00074005265676C6572205033005265676CD5
:1039F0006572205032005265676C6572205031004C
:103A00005A2043616C69622E005265676C657220B2
:103A10005A3D30005265736574204D65737572654B
:103A2000004D6F6E74726572204D6573757265001E
:103A3000466C6F77204D756C2E3A256F66252525CF
:103A4000005669742E204D756C2E3A256F6D252514
:103A5000250020423A2565622F25456202437E25D6
:103A60006F620045333A2565322F25453202437E89
:103A7000256F320045323A2565312F254531024305
:103A80007E256F310045313A2565302F25453002BE
:103A9000437E256F300020453A2565632F25456319
:103AA00002437E256F430054616D706F6E3A256F3F
:103AB000420054656C656368617267656D656E741C
:103AC0002E2E0043686172672E203C3D20454550F4
:103AD000524F4D00436F6E66696775726174696F0E
:103AE0006E0053746F636B2E203D3E20454550524F
:103AF0004F4D00436F6E66696775726174696F6ED2
:103B0000004D6F74657572732041727265746573D0
:103B10000053746F707065004368617566662E208F
:103B20004C6974004368617566662E20457874722E
:103B300075642E00416374696F6E3A256C610050A4
:103B400049440042616E6742616E6700592D4F66BD
:103B5000667365743A25587900582D4F666673650B
:103B6000743A25587800504944204D61783A2558D8
:103B700044004472697665204D61783A25584D00BD
:103B80004472697665204D696E3A25586D0050493A
:103B90004420443A2558640050494420493A255865
:103BA000690050574D20436F6E74726F6C3A255800
:103BB0004D0054656D7073204D6F72743A255870C6
:103BC0000050494420503A25587000436F6E74727B
:103BD0006F6C653A255868004176616E63652071A7
:103BE0007561643A255861004176616E6365206CA9
:103BF000696E3A25586C00537461622E54656D707D
:103C0000733A25587700416363656C3A2558410043
:103C10004D61782046523A255846005374617274BB
:103C20002046523A255866005061732F4D4D3A2573
:103C300053650042617564726174653A256F630073
:103C400047656E6572616C005B6D696E5D20303D2D
:103C50004F6666004469732E2041707265733A2086
:103C600025697000417272657420416C696D2E0087
:103C70005B6D696E5D20303D4F6666004469732E52
:103C80002041707265733A20256973004172726534
:103C900074204D6F74657572730056656E74696C2F
:103CA0002E204D61780056656E74696C2E20373574
:103CB0002525250056656E74696C2E203530252526
:103CC000250056656E74696C2E2032352525250039
:103CD00041727265742056656E74696C2E00566967
:103CE000742E2056656E74696C2E3A254673252510
:103CF00025005669742E2056656E74696C2E004D31
:103D0000696E3A25737A204D61783A25735A005AC4
:103D10003A257832206D6D004D696E3A2573792011
:103D20004D61783A25735900593A257831206D6DE7
:103D3000004D696E3A257378204D61783A257358A5
:103D400000583A257830206D6D004D696E3A257324
:103D50007A204D61783A25735A005A3A25783220F4
:103D60006D6D004D696E3A257379204D61783A2565
:103D7000735900593A257831206D6D004D696E3ABE
:103D8000257378204D61783A25735800583A257884
:103D900030206D6D003120636C6963203D2031203F
:103DA0006D6D00453A257833206D6D00004D6178CA
:103DB0002042757465653A25735A004D696E20423C
:103DC000757465653A25737A005A3A257832206D04
:103DD0006D00004D61782042757465653A25735910
:103DE000004D696E2042757465653A2573790059F6
:103DF0003A257831206D6D00004D61782042757450
:103E000065653A257358004D696E20427574656585
:103E10003A25737800583A257830206D6D00004DB2
:103E200061782042757465653A25735A004D696E54
:103E30002042757465653A25737A005A3A257832BE
:103E4000206D6D2025647A25645A00004D6178202C
:103E500042757465653A257359004D696E20427547
:103E60007465653A25737900593A257831206D6D6E
:103E70002025647925645900004D617820427574CD
:103E800065653A257358004D696E20427574656505
:103E90003A25737800583A257830206D6D202564D6
:103EA00078256458004163637565696C3A25665AE4
:103EB000004163637565696C205A3A25665A004172
:103EC00063637565696C20593A25665900416363DF
:103ED0007565696C20583A256658004D61783A2519
:103EE000667A004D6178205A3A25667A004D6178ED
:103EF00020593A256679004D617820583A25667830
:103F0000004176616E636500537570702E2066699E
:103F1000636869657200496E7365726572204361FA
:103F200072746500526574697265722043617274BF
:103F30006500436F6E74696E75657220496D7072AD
:103F40006573732E00506175736520496D707265DD
:103F500073732E00496D7072696D2E2066696368F7
:103F600069657200416E7469204F6F7A650044651F
:103F7000706C61632E2041707265733A254F610049
:103F80004D696E2E646973743A254F640042616313
:103F90006B736C2E203A254F620052657472616318
:103FA000742E203A254F7200254F32204F50532057
:103FB00052617069646500254F31204F5053204392
:103FC0006C61737369712E00254F30204F50532060
:103FD0004F666600466F6E63742E206120566964DA
:103FE000653A2564640045727265757273202020FD
:103FF0002020203A25646500496E666F202020202D
:1040000020202020203A256469004563686F202025
:10401000202020202020203A25646F004368617210
:10402000672E203C3D20454550524F4D0053746F44
:10403000636B2E203D3E20454550524F4D0041635D
:1040400063656C65726174696F6E005A2D4A6572A2
:104050006B3A25614A004A65726B3A25616A0044F1
:1040600065706C61632E3A25615A004465706C611D
:10407000632E205A3A25615A004465706C61632EA4
:1040800020593A256159004465706C61632E2058AF
:104090003A25615800496D7072696D2E3A25617A32
:1040A00000496D7072696D2E205A3A25617A004977
:1040B0006D7072696D2E20593A25617900496D70D5
:1040C00072696D2E20583A25617800536574204F2F
:1040D000726967696E002558322053656C65637498
:1040E0002E20457874722E203300255831205365D8
:1040F0006C6563742E20457874722E20320025582A
:10410000302053656C6563742E20457874722E20C0
:104110003100457874727564657573652033204F7E
:104120006666004578747275646575736520322023
:104130004F666600457874727564657573652031E5
:10414000204F66660054656D702E2033203A256539
:10415000322F25453202430054656D702E203220E7
:104160003A2565312F25453102430054656D702E87
:104170002031203A2565302F2545300243004C6917
:10418000742054656D703A2565622F25456202439F
:1041900000506F736974696F6E20457874722E00D9
:1041A000506F732E20526170696465205A00506F01
:1041B000736974696F6E205A00506F732E205261BC
:1041C00070696465205900506F736974696F6E205F
:1041D0005900506F732E2052617069646520580039
:1041E000506F736974696F6E205800446573616322
:1041F0007469762E204D6F74657572730052656711
:104200006C657A20737572204F726967696E6500FC
:10421000526566726F696469720045636C616972A8
:10422000616765203A256C6F00507265686561743E
:1042300020416C6C20457874722E00507265686560
:1042400061742053696E676C6520457874722E0026
:104250004163637565696C205A00416363756569E4
:104260006C2059004163637565696C205800416397
:10427000637565696C2058595A00416363756569B7
:104280006C2044656C7461004465626F677565728B
:1042900000436172746520534400457874727564FC
:1042A0006575736500506F736974696F6E00436F55
:1042B0006E66696775726174696F6E00256F65005F
:1042C000436F6E74726F6C65005265746F75722007
:1042D00001002A2A2A2A20455252455552202A2ACC
:1042E0002A2A00506173206465204361727465203E
:1042F0005344004175205265706F7300496D7072B0
:10430000657373696F6E00496D7072657373696F61
:104310006E2E2E2E004E6F6E004F7569004E2F418F
:10432000004F6666004F6E005265736574206672BA
:104330006F6D20436F6E66696700436F6E666967D5
:1043400075726174696F6E005265736574204545BE
:1043500050524F4D0025656A204A616D20436F6EB3
:1043600074726F6C004D756C3A20256F6D25252594
:10437000202020204C61733A256F702057004D7526
:104380006C3A20256F6D252525202020205370694B
:104390003A256F7052504D20005A773A25783720D1
:1043A00020205A3A2578320059773A25783620204D
:1043B00020593A2578310058773A25783520202041
:1043C000583A257830005374617274205A2D507217
:1043D0006F6265004D6561737572696E67202E2E80
:1043E0002E005A2D4F66667365743A25587A00433D
:1043F0006C6F736500436F6E74696E75650052650E
:10440000616C205A20506F733A2557306D6D0054FF
:10441000656D702E202565632F2545630243004D91
:104420006561732E2050726F626520486569676808
:104430007400426564202020203A202570620243E7
:1044400000457874722E20363A20257035024300DC
:10445000457874722E20353A202570340243004589
:104460007874722E20343A20257033024300457848
:1044700074722E20333A202570320243004578743E
:10448000722E20323A202570310243004578747232
:104490002E20313A20257030024300507265686545
:1044A00061742054656D7065726174757265730016
:1044B000486F6D696E672E2E2E004175746F6C65A6
:1044C00076656C206265640043616C696272617438
:1044D000696F6E204572726F720043616C6962721F
:1044E0006174696E672062656400202020203E3E72
:1044F0003E204F6B203C3C3C004C6576656C696E01
:1045000067206572726F720046696C616D656E74CA
:1045100020736C697070696E6700486561746572BC
:10452000206465636F75706C65640054656D702EF2
:104530002073656E736F7220646566656374004EE8
:104540006F74696669636174696F6E3A006F627354
:104550007472756374696F6E730062656420697349
:1045600020636C656172206F6620616E79004D6119
:104570006B65207375726520746865206865617469
:104580006564002A2A2A20506C6561736520776172
:104590006974202A2A2A0043616E63656C004661B3
:1045A0006E20322073706565643A254653252525B3
:1045B00000446973746F7274696F6E20636F7272F6
:1045C0002E3A254465004D656173757265206469F6
:1045D00073746F7274696F6E005365747570002523
:1045E000506E00255070252525004C61796572209C
:1045F00025506C2F25504C00456E6453746F703AF3
:1046000025647000536574205A206F666673657464
:104610003A2554326D6D005365742059206F6666DB
:104620007365743A2554316D6D00536574205820BC
:104630006F66667365743A2554306D6D005365740A
:10464000207072696E74206F666673657473005AA9
:104650002D70726F6265206865696768743A257AA3
:104660006800254433203320636F7069657300252B
:104670004432203220636F70696573002544312015
:104680003120636F707900254430204E6F20636FB6
:1046900070696573002558352053656C6563742017
:1046A000657874722E2036002558342053656C6569
:1046B000637420657874722E20350025583320539A
:1046C000656C65637420657874722E2034005475AF
:1046D000726E20657874722E2036206F66660054E4
:1046E00075726E20657874722E2035206F666600B4
:1046F0005475726E20657874722E2034206F666651
:104700000054656D702E2036203A2565352F2545DD
:104710003502430054656D702E2035203A256534EE
:104720002F25453402430054656D702E2034203A05
:104730002565332F254533024300202542436D6D07
:1047400000052565630200052565632F2545630285
:104750000000256F7300255566206D207072696E0C
:1047600074656400255566206D0025557400583A1F
:1047700025783020593A257831004D756C3A20253E
:104780006F6D202020453A257834005A3A2578323A
:104790002020427566203A20256F4200422565425E
:1047A0002F2545620200052565632F2545630242DA
:1047B0002565422F2545620200256F73004275660C
:1047C0003A20256F42004D756C3A20256F6D2525E6
:1047D0002520FD202020453A202578346D00466CA8
:1047E0006F773AFD20256F662525252020205A3A2F
:1047F000257832000E202565622F254562B02059AC
:104800003A257831000A202565632F254563B020BD
:10481000583A257830004C616E67756167650043D2
:104820007573746F6D3A2542436D6D0043757374F3
:104830006F6D00476C756520737469636B00477218
:1048400065656E20504554207461706500426C753A
:10485000652070617065722074617065004B6170D5
:10486000746F6E004275696C6454616B004E6F200A
:10487000636F6174696E67000042656420636F61F5
:1048800074696E672073657420746F0042656420DC
:10489000636F6174696E67005374616E646279005E
:1048A0004578747275646572206A616D0074656D17
:1048B000706572617475726573202E2E2E005761BB
:1048C000697420666F722074617267657400657820
:1048D000747275646572732E00436C69636B207427
:1048E0006F207265686561740049676E6F7265203C
:1048F0004D31303620636D64202546690053657262
:10490000766F20706F732E3A20256F5300417574B7
:104910006F6C6576656C3A20256C6C00436C69633E
:104920006B207768656E20646F6E650066696C61E8
:104930006D656E742075702F646F776E00526F74A2
:1049400061746520746F206D6F7665004368616ED9
:1049500067652066696C616D656E74004368616EA1
:1049600067652066696C616D656E74005A206261CE
:104970006279737465702E3A256F596D6D005374AA
:104980006F70205072696E7400536C6F7742616E65
:104990006700446561642074696D65004154582066
:1049A000706F776572206F6E2F6F66660070726928
:1049B0006E7465640046696C616D656E742070721A
:1049C000696E746564005072696E74696E672074F4
:1049D000696D6500003A00206461797320005072AF
:1049E000696E7465722072656164792E005344208B
:1049F0006361726420696E73657274656400534408
:104A000020636172642072656D6F76656400576122
:104A1000697420726574722E3A255855206D6D00A8
:104A2000576169742074656D702E202558540243B7
:104A3000004C6576656C2064656C74610043616C44
:104A400063756C617465206C6576656C696E670072
:104A50005365742050330053657420503200536501
:104A600074205031005A2063616C69622E005365D6
:104A700074205A3D30005265736574206D65617312
:104A80002E0053686F77206D6561732E00466C6F42
:104A900077206D756C2E203A256F662525250053ED
:104AA00070656564206D756C2E3A256F6D25252522
:104AB0000020423A2565622F25456202437E256F1C
:104AC000620045333A2565322F25453202437E2563
:104AD0006F320045323A2565312F25453102437E3C
:104AE000256F310045313A2565302F254530024389
:104AF0007E256F300020453A2565632F25456302EA
:104B0000437E256F43004275666665723A256F42A3
:104B10000055706C6F6164696E672E2E2E006C6F8D
:104B20006164656420662E20454550524F4D004318
:104B30006F6E66696775726174696F6E0073746F0A
:104B400072656420696E20454550524F4D00436F99
:104B50006E66696775726174696F6E005374657013
:104B60007065722064697361626C6564004B696C86
:104B70006C65640048656174696E672062656400F5
:104B800048656174696E67206578747275646572D2
:104B900000416374696F6E3A256C610050494400AE
:104BA00042616E6742616E6700592D4F666673659C
:104BB000743A25587900582D4F66667365743A2506
:104BC000587800504944204D61783A2558440044B3
:104BD00072697665204D61783A25584D00447269B6
:104BE0007665204D696E3A25586D00504944204441
:104BF0003A2558640050494420493A2558690043F1
:104C00006F6E74726F6C2050574D3A25584D0044AA
:104C100065616474696D653A255870005049442097
:104C2000503A25587000436F6E74726F6C3A255875
:104C30006800416476616E636520717561643A2530
:104C4000586100416476616E6365206C696E3A2537
:104C5000586C00537461622E54696D653A2558771B
:104C600000416363656C3A255841004D61782046E8
:104C7000523A2558460053746172742046523A25C0
:104C800058660053746570732F4D4D3A2553650077
:104C900042617564726174653A256F630047656EA1
:104CA0006572616C005B6D696E5D20303D4F6666BC
:104CB000004469732E2061667465723A202569701C
:104CC000004D61782E20696E616374697665005BC2
:104CD0006D696E5D20303D4F6666004469732E201D
:104CE00061667465723A202569730053746570704B
:104CF000657220696E61637469766500536574201E
:104D000066616E2066756C6C005365742066616E1A
:104D1000203735252525005365742066616E2035C2
:104D200030252525005365742066616E20323525B7
:104D30002525005475726E2066616E204F666600F0
:104D400046616E2073706565643A25467325252596
:104D50000046616E207370656564004D696E3A258A
:104D6000737A204D61783A25735A005A3A25783281
:104D7000206D6D004D696E3A257379204D61783A4A
:104D800025735900593A257831206D6D004D696EB3
:104D90003A257378204D61783A25735800583A25A2
:104DA0007830206D6D004D696E3A25737A204D6123
:104DB000783A25735A005A3A257832206D6D004DA5
:104DC000696E3A257379204D61783A2573590059F7
:104DD0003A257831206D6D004D696E3A2573782043
:104DE0004D61783A25735800583A257830206D6D1A
:104DF000003120636C69636B203D2031206D6D00B4
:104E0000453A257833206D6D00004D617820656E40
:104E10006473746F703A25735A004D696E20656E25
:104E20006473746F703A25737A005A3A2578322089
:104E30006D6D00004D617820656E6473746F703A1B
:104E4000257359004D696E20656E6473746F703AF6
:104E500025737900593A257831206D6D00004D6138
:104E60007820656E6473746F703A257358004D69CD
:104E70006E20656E6473746F703A25737800583ACB
:104E8000257830206D6D00004D617820656E64736B
:104E9000746F703A25735A004D696E20656E6473A5
:104EA000746F703A25737A005A3A257832206D6D06
:104EB0002025647A25645A00004D617820656E646F
:104EC00073746F703A257359004D696E20656E6476
:104ED00073746F703A25737900593A257831206DD3
:104EE0006D2025647925645900004D617820656E38
:104EF0006473746F703A257358004D696E20656E47
:104F00006473746F703A25737800583A25783020AE
:104F10006D6D2025647825645800486F6D653A25CD
:104F2000665A00486F6D65205A3A25665A00486FE8
:104F30006D6520593A25665900486F6D6520583ACD
:104F4000256658004D61783A25667A004D617820D3
:104F50005A3A25667A004D617820593A25667900DB
:104F60004D617820583A256678004665656472611F
:104F700074650044656C6574652066696C65004DF8
:104F80006F756E74206361726400556E6D6F756E1F
:104F900074206361726400436F6E74696E7565207E
:104FA0007072696E74005061757365207072696EFD
:104FB00074005072696E742066696C6500416E748D
:104FC00069206F6F7A65004D6F7665206166746544
:104FD000723A254F61004D696E2E6469737420200A
:104FE0003A254F64004261636B736C2E2020203A97
:104FF000254F6200526574726163742020203A2547
:105000004F7200254F32204F505320666173740059
:10501000254F31204F505320636C617373696300D7
:10502000254F30204F5053206F6666004472792020
:1050300072756E3A256464004572726F7273203A1D
:1050400025646500496E666F2020203A256469005A
:105050004563686F2020203A25646F004C6F6164BF
:1050600020662E20454550524F4D0053746F726597
:1050700020746F20454550524F4D00416363656C6D
:1050800065726174696F6E005A2D4A65726B203AC1
:1050900025614A004A65726B2020203A25616A002A
:1050A0004D6F76653A25615A004D6F7665205A201E
:1050B0003A25615A004D6F76652059203A2561598D
:1050C000004D6F76652058203A256158005072696E
:1050D0006E743A25617A005072696E74205A3A25CE
:1050E000617A005072696E7420593A2561790050D6
:1050F00072696E7420583A25617800536574204FA8
:10510000726967696E002558322053656C65637457
:1051100020657874722E2033002558312053656C39
:1051200065637420657874722E2032002558302013
:1051300053656C65637420657874722E2031005459
:1051400075726E20657874722E2033206F6666004B
:105150005475726E20657874722E2032206F6666E8
:10516000005475726E20657874722E2031206F663F
:10517000660054656D702E2033203A2565322F2548
:10518000453202430054656D702E2032203A256569
:10519000312F25453102430054656D702E2031209A
:1051A0003A2565302F25453002430042656420745E
:1051B000656D703A2565622F2545620243004D6F8B
:1051C0007665204578747275646572004D6F7665FA
:1051D000205A2066617374004D6F7665205A004D29
:1051E0006F766520592066617374004D6F76652077
:1051F00059004D6F766520582066617374004D6FBD
:10520000766520580044697361626C65207374652B
:10521000707065720053657420746F206F726967D7
:10522000696E00436F6F6C646F776E004C696768DE
:1052300074733A256C6F0050726568656174204123
:105240006C6C20457874722E0050726568656174CC
:105250002053696E676C6520457874722E00486F24
:105260006D65205A00486F6D65205900486F6D6567
:10527000205800486F6D6520616C6C00486F6D654B
:105280002064656C746100446562756767696E6768
:1052900000534420636172640045787472756465DC
:1052A00072004D6F76650053657474696E677300A4
:1052B000256F6500436F6E74726F6C004261636BA3
:1052C0002001002A2A2A2A204552524F52202A2AF7
:1052D0002A2A004E6F20534420636172640049649F
:1052E0006C65005072696E74696E67005072696E09
:1052F00074696E672E2E2E004E6F00596573004E36
:105300002F41004F6666004F6E00254321431D4329
:10531000194315430743FC42F342E342D242C942D8
:10532000C042BC42AE42A5429A42914288427A4271
:105330006E4264425A4250423B4229421A42104253
:10534000FD41EB41E041D241C741B941AE41A041ED
:1053500091417E416B4158414541344123411241C5
:10536000FE40EA40D640CB40BD40AF40A140954012
:10537000874079406B405F4056404B403E402D4057
:105380001C400A40F83FE63FD43FC83FB73FA83F24
:105390009A3F8D3F803F6E3F643F543F453F323FD1
:1053A000243F163F083F013FF73EED3EE33EDB3E24
:1053B000CD3EBF3EB13EA53E953E873E793E783E0E
:1053C000683E5A3E4C3E4B3E3B3E2D3E1F3E1E3EEF
:1053D000153E073EF93DF83DEF3DE13DD33DD23D61
:1053E000C93DBB3DAD3DAC3DA33D953D8C3D7C3DB8
:1053F000733D633D5A3D4A3D413D313D283D183D99
:105400000F3DFF3CF23CDE3CD03CC23CB43CA63CF1
:105410009A3C8C3C7C3C703C643C543C483C403C5A
:10542000333C283C1B3C103C063CF73BE83BD83B5C
:10543000CB3BC13BB23BA23B983B8E3B803B723B9C
:10544000663B593B4C3B433B3F3B343B243B183B87
:10545000113B013BF33AE23AD43AC33AB23AA73AA3
:10546000963A853A743A633A523A413A303A213A96
:10547000143A093A003AF639EC39E239CD39C039F3
:10548000B0399F398E397D396C3964396239613967
:1054900050393F39373926391B390E39FF38ED3845
:1054A000D938C538B438A2388E387F386F385E386E
:1054B00051383E382F3824380F380738F537E2375F
:1054C000E137D037C737C037B637A73798378E3769
:1054D0007E377737663755373F3727371E371A37C6
:1054E0000737FD36EC36DB36CF36CB36C536B7362A
:1054F000B336B236A836A2369B3688367536623653
:10550000513640362F361B360736F335E235D63561
:10551000C935BC35A8359635833570355D354B3585
:105520003C353535313528351435FF34EA34E3342C
:10553000D134C034AF34A334953482346F345D3405
:105540004A343B342D341C340E34FA33E733D83329
:10555000C933BA33AB339C338D337E336B335B3318
:10556000493340333A332D33223314330533F63283
:10557000E732CC32B332A3329632883276320753D6
:105580000353FF52FB52F852EC52E352DE52D35215
:10559000C352BC52B452B052A752A2529952915225
:1055A00087527C5273526C5265525E524952375246
:1055B0002C52235215520552FE51F251EB51DF513C
:1055C000D851CC51BE51AB51985185517251615156
:1055D00050513F512C5119510651FB50EF50E3509F
:1055E000D750CD50C150B550A950A05094508850BC
:1055F0007B506B505C505050445038502C502050D1
:1056000010500350F44FE54FD64FC74FBD4FB24F28
:10561000A64F974F8A4F7F4F734F6A4F604F564F39
:105620004C4F444F394F2E4F234F1A4F0A4FFA4ECB
:10563000EA4EE94ED94EC94EB94EB84EA84E984ED4
:10564000884E874E7E4E6E4E5E4E5D4E544E444E9C
:10565000344E334E2A4E1A4E0A4E094E004EF14D2C
:10566000E84DD84DCF4DBF4DB64DA64D9D4D8D4DFE
:10567000844D744D6B4D5B4D514D404D334D254D1B
:10568000174D094DFC4CEB4CDB4CCF4CC14CB14C95
:10569000A54C9D4C904C834C764C6B4C614C534CC0
:1056A000434C324C264C1C4C0F4CFF4BF54BEB4BF8
:1056B000DD4BCF4BC34BB64BA94BA04B9C4B914BF7
:1056C000804B744B6D4B5C4B4E4B3D4B2F4B1E4BED
:1056D000114B064BF54AE44AD34AC24AB14A9F4AA3
:1056E0008D4A824A764A6E4A654A5E4A574A504A0D
:1056F0003D4A314A204A0E4AFE49ED49DE49D74922
:10570000D549D449C649B549AD499C4992498949C9
:105710007E496C495C494C493D492C491C490D491D
:10572000FD48E948D948CE48BE48AD48A048984809
:105730008C48794878486D4864485D484D483E48F3
:1057400033482C481F4816480548F447DE47C647EB
:10575000BD47B947A6479C478B477A476E476A477C
:105760006447564752475147474741473A472747BB
:1057700014470147F046DF46CE46BB46A84695464D
:1057800087467C466F4662464F463D462A46174648
:105790000446F845EA45E345DF45D945C645B145E8
:1057A0009E45974583456E455A454D453F452B459A
:1057B0001A450845F944EA44DA44C844BA44B044B6
:1057C0009B448C447D446E445F4450444144324485
:1057D0001F440F44FE43F543EF43E243D443C64323
:1057E000B743A84399437E436543554348433A43EF
:1057F00028430007FF7E5500000000000000000065
:105800000000000A530000000000000000020040F9
:1058100014542063203D20002062203D2000706C45
:10582000616E653A2061203D20002061745A3A0083
:1058300043757272656E745A3A0050726F62696E87
:1058400067206861642072657475726E6564206596
:1058500072726F7273202D206175746F6C6576653E
:105860006C696E672063616E63656C65642E0041D0
:1058700075746F6C6576656C696E672064697361B9
:10588000626C6564004175746F6C6576656C696EF9
:105890006720656E61626C65640000005A2D50726D
:1058A0006F62652068656967687420736574207429
:1058B0006F3A20005265717565737453746F703A56
:1058C00000627573793A70726F63657373696E679E
:1058D00000446F6F72206F70656E00627573793A65
:1058E000646F6F72206F70656E00627573793A68CD
:1058F000656174696E6700627573793A706175737A
:10590000656420666F72207573657220696E7465B8
:1059100072616374696F6E00526573656E643A00FC
:105920006F6B200020676F7420004572726F723AAF
:105930006578706563746564206C696E65200073BA
:105940006B697020006F6B004563686F3A00466FAB
:10595000726D6174206572726F7200436865636B6B
:1059600073756D20726571756972656420776865FD
:105970006E20737769746368696E67206261636B18
:1059800020746F2041534349492070726F746F63D4
:105990006F6C2E00204F00204C00204B0020420056
:1059A00020410020480020430020440020520020D5
:1059B0004A00204900205000205300204600204586
:1059C00000205A00205900205800202D20507269D4
:1059D0006E7465722073746F7070656420616E649C
:1059E00020686561746572732064697361626C65B7
:1059F000642064756520746F207468697320657213
:105A0000726F722E20466978206572726F72206103
:105A10006E64207265737461727420776974682093
:105A20004D3939392E00666174616C3A0053442057
:105A30006572726F7220646964206E6F7420726583
:105A4000636F76657221005344206572726F722015
:105A5000666978656400534420526561642045722C
:105A6000726F720053442072656164206572726FB8
:105A70007200446F6E65207072696E74696E672083
:105A800066696C65005344206361726420696E73BB
:105A900065727465640053442063617264207265AA
:105AA0006D6F76656400000000002200250028006C
:105AB0002B002E0031003400020100000501080116
:105AC0000B01000020002300260029002C002F00DD
:105AD00032000001000003010601090100000A0B69
