:100000000C942C2E0C945D2E0C945D2E0C945D2E75
:100010000C945D2E0C945D2E0C945D2E0C945D2E34
:100020000C945D2E0C945D2E0C945D2E0C945D2E24
:100030000C945D2E0C9433E30C945D2E0C945D2E89
:100040000C945D2E0C9428C90C945D2E0C945D2E9E
:100050000C945D2E0C945D2E0C94C1C70D94780EFB
:100060000C945D2E0C9497C70C94A1790C945D2E82
:100070000C945D2E0C945D2E0C945D2E0C945D2ED4
:100080000C945D2E0C945D2E0C945D2E0C945D2EC4
:100090000C945D2E0C945D2E0C945D2E0C945D2EB4
:1000A0000C945D2E0C945D2E0C945D2E0C945D2EA4
:1000B0000C945D2E0C945D2E0C945D2E0C945D2E94
:1000C0000C945D2E0C945D2E0C945D2E0C945D2E84
:1000D0000C945D2E0C945D2E0C945D2E0C945D2E74
:1000E0000C945D2E7F34843489349534A1342E35BC
:1000F000AD34B534BD34C934D534E134F234FE34D2
:100100002E350A3516352235CCF7FBF5FBF5FBF518
:10011000FBF5FBF5FBF5FBF5FBF5FBF5FBF5FBF55F
:10012000FBF5FBF5FBF5FBF5FBF5FBF5FBF5FBF54F
:10013000FBF5FBF5FBF571F782F74CF73BF7C9F6DA
:10014000D6F618F660F710F71DF793F7A3F730F619
:1001500003F6B3F700F7FBF52EF7F3F6E6F6FBF53B
:10016000FBF5FBF59CF6ACF6B9F6FBF5FBF5FBF5FC
:10017000FBF5FBF5FBF571F782F74CF73BF7C9F69A
:10018000D6F618F660F710F71DF793F7A3F730F6D9
:1001900003F6B3F700F7FBF52EF7F3F6E6F6FBF5FB
:1001A000FBF5FBF59CF6ACF6B9F633012D011B010E
:1001B00011012301250115010D01190121011F0163
:1001C00013010F011D01250129012F011701084A03
:1001D000D73B3BCE016E84BCBFFDC12F3D6C74315B
:1001E0009ABD56833DDA3D00C77F11BED9E4BB4CB2
:1001F0003E916BAAAABE000000803F05A84CCDB27C
:10020000D44EB93836A9020C50B9918688083CA65C
:10021000AAAA2ABE000000803F000D942A0D0D946A
:10022000420D0D94150D0D943E0D0D94260D0D945B
:10023000540D0D94300D0D94110D0D94460D0D942B
:10024000380D0D94340D0D941B0D0D94590D0D9416
:100250006D000D944C0D0D9482000D94220D0D94A3
:10026000500D0D94A81F0D941F0D4E414E494E493F
:100270005459494E46CDCCCC3D0AD7233C17B7D173
:100280003877CC2B329595E6241FB14F0A00002019
:10029000410000C84200401C4620BCBE4CCA1B0E98
:1002A0005AAEC59D74456E642066696C65206C69A4
:1002B000737400426567696E2066696C65206C69BD
:1002C0007374005344207072696E74696E672062A3
:1002D00079746520004E6F74205344207072696EEB
:1002E00074696E670057726974696E6720746F2055
:1002F00066696C653A20006F70656E206661696C96
:1003000065642C2046696C653A200043726561740F
:10031000696F6E206661696C65640044697265632B
:10032000746F7279206372656174656400576569E2
:100330006768742000657874727564657220636FF5
:100340006F6C6572207370656564205B302D32358B
:10035000355D0064697374616E636520746F20722B
:10036000657472616374207768656E206865617476
:10037000696E67205B6D6D5D0074656D702E206623
:100380006F722072657472616374696F6E20776832
:10039000656E2068656174696E67205B435D0074FB
:1003A000656D702E2073746162696C697A65207462
:1003B000696D65205B735D005A2D6F6666736574A9
:1003C000205B73746570735D00592D6F666673658D
:1003D00074205B73746570735D00582D6F6666736F
:1003E0006574205B73746570735D00504944206DC3
:1003F00061782076616C7565205B302D3235355D16
:100400000050494420442D6761696E0050494420E2
:10041000492D6761696E0050494420502D6761691C
:100420006E2F646561642D74696D650050494420C8
:100430006472697665206D696E005049442064726B
:10044000697665206D61780068656174206D616E04
:1004500061676572205B302D335D005072656865A1
:1004600061742074656D702E205BC2B0435D0061C5
:100470006363656C65726174696F6E205B6D6D2F6F
:10048000735E325D007374617274206665656472B8
:10049000617465205B6D6D2F735D006D61782E203A
:1004A0006665656472617465205B6D6D2F735D00B8
:1004B000737465707320706572206D6D0052657481
:1004C00072616374696F6E20756E646F20737065FE
:1004D000656400457874726120657874727573691B
:1004E0006F6E206F6E20756E646F20737769746312
:1004F000682072657472616374205B6D6D5D004588
:100500007874726120657874727573696F6E206F8C
:100510006E20756E646F2072657472616374205B07
:100520006D6D5D0052657472616374696F6E207ADF
:100530002D6C696674205B6D6D5D0052657472612F
:100540006374696F6E207370656564205B6D6D2FD9
:10055000735D0052657472616374696F6E206C65BF
:100560006E6774682065787472756465722073773D
:1005700069746368205B6D6D5D00526574726163C0
:1005800074696F6E206C656E677468205B6D6D5D5D
:1005900000456E61626C6520726574726163746996
:1005A0006F6E20636F6E76657273696F6E205B305D
:1005B0002F315D0042656420504944206D617820F0
:1005C00076616C7565205B302D3235355D00426596
:1005D000642050494420442D6761696E004265647F
:1005E0002050494420492D6761696E0042656420AE
:1005F00050494420502D6761696E00426564205067
:100600004944206472697665206D696E00426564B4
:1006100020504944206472697665206D61780042FB
:1006200065642048656174204D616E616765722064
:100630005B302D335D0042656420507265686561F2
:10064000742074656D702E205BC2B0435D004175EF
:10065000746F6C6576656C206163746976652028BB
:10066000312F3029005A2D70726F62652062656EDD
:1006700064696E6720636F7272656374696F6E2060
:1006800043205B6D6D5D005A2D70726F6265206254
:10069000656E64696E6720636F7272656374696FFB
:1006A0006E2042205B6D6D5D005A2D70726F626529
:1006B0002062656E64696E6720636F727265637431
:1006C000696F6E2041205B6D6D5D005A2D70726FF9
:1006D0006265205933205B6D6D5D005A2D70726F1D
:1006E0006265205833205B6D6D5D005A2D70726F0E
:1006F0006265205932205B6D6D5D005A2D70726FFE
:100700006265205832205B6D6D5D005A2D70726FEE
:100710006265205931205B6D6D5D005A2D70726FDE
:100720006265205831205B6D6D5D005A2D70726FCF
:100730006265206F66667365742079205B6D6D5D00
:10074000005A2D70726F6265206F66667365742043
:1007500078205B6D6D5D005A2D70726F6265207838
:100760002D792D7370656564205B6D6D2F735D0051
:100770005A2D70726F6265207370656564205B6DC1
:100780006D2F735D004D61782E207A2D70726F622F
:1007900065202D2062656420646973742E205B6D72
:1007A0006D5D005A2D70726F6265206865696768BB
:1007B00074205B6D6D5D00436F6174696E672074BA
:1007C0006869636B6E657373205B6D6D5D005A2D98
:1007D000617869732074726176656C20616363650A
:1007E0006C65726174696F6E205B6D6D2F735E3224
:1007F0005D00592D617869732074726176656C2093
:10080000616363656C65726174696F6E205B6D6DA9
:100810002F735E325D00582D6178697320747261A8
:1008200076656C20616363656C65726174696F6E77
:10083000205B6D6D2F735E325D005A2D6178697398
:1008400020616363656C65726174696F6E205B6DB6
:100850006D2F735E325D00592D617869732061637D
:1008600063656C65726174696F6E205B6D6D2F736B
:100870005E325D00582D6178697320616363656C39
:1008800065726174696F6E205B6D6D2F735E325D92
:10089000005A206261636B6C617368205B6D6D5DF3
:1008A0000059206261636B6C617368205B6D6D5DE4
:1008B0000058206261636B6C617368205B6D6D5DD5
:1008C000005061726B20706F736974696F6E205A8B
:1008D000207261697365205B6D6D5D005061726BA4
:1008E00020706F736974696F6E2059205B6D6D5D48
:1008F000005061726B20706F736974696F6E20585D
:10090000205B6D6D5D005A206D6178206C656E67AF
:100910007468205B6D6D5D0059206D6178206C6599
:100920006E677468205B6D6D5D0058206D61782086
:100930006C656E677468205B6D6D5D005A206D6933
:100940006E20706F73205B6D6D5D0059206D696E58
:1009500020706F73205B6D6D5D0058206D696E2097
:10096000706F73205B6D6D5D004D61782E205A2D88
:100970006A65726B205B6D6D2F735D004D61782E23
:10098000206A65726B205B6D6D2F735D005A2D615F
:1009900078697320686F6D696E672066656564723B
:1009A000617465205B6D6D2F735D00592D617869F1
:1009B0007320686F6D696E67206665656472617427
:1009C00065205B6D6D2F735D00582D617869732014
:1009D000686F6D696E672066656564726174652015
:1009E0005B6D6D2F735D005A2D61786973206D61A9
:1009F000782E206665656472617465205B6D6D2F6D
:100A0000735D00592D61786973206D61782E2066C1
:100A100065656472617465205B6D6D2F735D005850
:100A20002D61786973206D61782E2066656564722A
:100A3000617465205B6D6D2F735D005A2D6178695F
:100A40007320737465707320706572206D6D00592A
:100A50002D617869732073746570732070657220DE
:100A60006D6D00582D617869732073746570732003
:100A7000706572206D6D0053746F702073746570B3
:100A800070657220616674657220696E6163746955
:100A900076697479205B6D732C303D6F66665D00FE
:100AA0004D61782E20696E61637469766520746982
:100AB0006D65205B6D732C303D6F66665D00507216
:100AC000696E74657220616374697665205B735D1D
:100AD0000046696C616D656E74207072696E746534
:100AE00064205B6D5D004261756472617465004CE9
:100AF000616E677561676500504944204175746F88
:100B000074756E65206661696C6564212074696D19
:100B1000656F757400504944204175746F74756E2B
:100B200065206661696C6564212054656D7065722D
:100B3000617475726520746F6F2068696768002042
:100B40004B643A2000204B693A2000204B703A2039
:100B500000205479726575732D4C7962656E205052
:100B60004944002050657373656E20496E74656753
:100B700072616C2052756C652050494400204E6FA4
:100B8000204F76657273686F6F742050494400205F
:100B9000536F6D65204F76657273686F6F74205068
:100BA00049440020436C61737369632050494400D9
:100BB0002054753A2000204B753A2000206D617852
:100BC0003A2000206D696E3A200020643A2000200F
:100BD000626961733A2000504944204175746F7412
:100BE000756E65207374617274004E6F206361735B
:100BF00065206C6967687473004D617854656D7029
:100C00003A004469616D657465723A0041636365D9
:100C10006C65726174696F6E3A004D6178537065EE
:100C200065643A004A65726B3A004D6178426564CA
:100C300054656D703A005072696E746572547970C3
:100C4000653A43617274657369616E005A547261EA
:100C500076656C416363656C3A00595472617665E0
:100C60006C416363656C3A005854726176656C41FF
:100C70006363656C3A005A5072696E7441636365D0
:100C80006C3A00595072696E74416363656C3A0046
:100C9000585072696E74416363656C3A005A5369C7
:100CA0007A653A005953697A653A005853697A650A
:100CB0003A005A4D61783A00594D61783A00584DE2
:100CC00061783A005A4D696E3A00594D696E3A00A2
:100CD000584D696E3A0052657472616374696F6E43
:100CE000556E646F53706565643A00526574726145
:100CF0006374696F6E556E646F45787472614C6F82
:100D00006E674C656E6774683A0052657472616311
:100D100074696F6E556E646F45787472614C656E60
:100D20006774683A0052657472616374696F6E5AD1
:100D30004C6966743A0052657472616374696F6ECF
:100D400053706565643A0052657472616374696FCB
:100D50006E4C6F6E674C656E6774683A00526574CE
:100D600072616374696F6E4C656E6774683A004AAD
:100D700065726B5A3A004B656570416C69766549DE
:100D80006E74657276616C3A004A65726B58593AB6
:100D9000005072696E746C696E6543616368653A90
:100DA00000454550524F4D3A004175746F6C657661
:100DB000656C3A005A50726F62653A004361736520
:100DC0004C69676874733A00537570706F72744C35
:100DD0006F63616C46696C616D656E746368616EAA
:100DE00067653A00537570706F72744731304731E0
:100DF000313A005A486F6D65506F733A0059486F29
:100E00006D65506F733A0058486F6D65506F733A57
:100E1000005A486F6D654469723A0059486F6D65B4
:100E20004469723A0058486F6D654469723A0053DC
:100E30006F667477617265506F7765725377697406
:100E400063683A004C43443A0046616E323A3000DF
:100E500046616E3A005344436172643A00486561EA
:100E60007465644265643A004D6978696E674578D7
:100E70007472756465723A004E756D45787472755A
:100E80006465723A00496E70757442756666657283
:100E90003A0042617564726174653A00696E666F0A
:100EA0003A436F6E74696E75652066726F6D206669
:100EB0006174616C207374617465000054657374AF
:100EC000696E6720666174616C206572726F720072
:100ED00029203D20002C0042656E64696E67206108
:100EE00074202800436F6E66696775726174696F5C
:100EF0006E206C6F616465642066726F6D2045457D
:100F000050524F4D2E00436F6E6669677572617463
:100F1000696F6E2073746F72656420746F2045452D
:100F200050524F4D2E00436F6C642065787472757B
:100F300073696F6E20646973616C6C6F77656400B0
:100F4000436F6C6420657874727573696F6E20618D
:100F50006C6C6F7765640054726967676572696E5F
:100F600067207761746368646F672E20496620612B
:100F700063746976617465642C207468652070728E
:100F8000696E7465722077696C6C20726573657424
:100F90002E005761746368646F67206469736162CF
:100FA0006C6564004175746F726574726163743A44
:100FB00000205A4A65726B3A004A65726B3A00200B
:100FC000746F200053657420766F6C756D65747254
:100FD000696320657874727573696F6E20666F72CD
:100FE000206578747275646572200044697361626B
:100FF0006C656420766F6C756D65747269632065CD
:101000007874727573696F6E20666F72206578747C
:101010007275646572200020505245484541540065
:10102000505245484541545F4245443A00205A5386
:101030003A002059533A0058533A00505245484517
:1010400041543A3100504155534553544F503A3171
:1010500000544F47474C455F4C49474854533A303A
:1010600000534F4654574152455F504F5745523AEF
:1010700030005A5F50524F42453A31004155544F6B
:101080004C4556454C3A3100454550524F4D3A314A
:10109000004155544F5245504F52545F54454D50A6
:1010A0003A310050524F47524553533A3100464966
:1010B000524D574152455F4E414D453A526570651C
:1010C000746965725F312E302E3320434F4D504985
:1010D0004C45443A44656320323820323031382060
:1010E0004649524D574152455F55524C3A687474C7
:1010F00070733A2F2F6769746875622E636F6D2F56
:1011000072657065746965722F5265706574696582
:10111000722D4669726D776172652F2050524F545F
:101120004F434F4C5F56455253494F4E3A312E3044
:10113000204D414348494E455F545950453A4D650D
:101140006E64656C2045585452554445525F434F78
:10115000554E543A352052455045544945525F50FA
:10116000524F544F434F4C3A330050696E206361E5
:101170006E206E6F74206265207365742062792022
:101180004D34322C20697320696E2073656E73694B
:10119000746976652070696E732120002069732060
:1011A00000496C6C6567616C20532076616C7565D5
:1011B00020666F72204D34320020746F200053651A
:1011C00074206F75747075743A20000001363726EC
:1011D00003023C3D380E0F2E303E12130D0C0A0850
:1011E0001A1C1824221E403B2C0D0E35556E6B6EBA
:1011F0006F776E20636F6D6D616E643A00331428F3
:1012000014536F667477617265205265736574005C
:101210005761746368646F67205265736574004238
:10122000726F776E206F7574205265736574004518
:10123000787465726E616C20526573657400506FCE
:101240007765725570000D0D0D0D0D0E110A04110C
:10125000040A1111001C1F11111F0000040A0A0AC0
:101260000E1F1F0E001F1111111F0000001F1F1F56
:101270001F1F0000040A040000000000040E1504F3
:1012800004041C005445564F00546172616E74751D
:101290006C61206469616D6F6E642066756C6C2092
:1012A000636F6C6F7200526570657469657220318E
:1012B0002E302E3300467265652052414D3A008231
:1012C00000000200FD114E65656473206C616E675D
:1012D000756167652073656C656374696F6E007313
:1012E000746172740057726F6E6720636865636B18
:1012F00073756D0077616974004672616E63616930
:101300007300456E676C6973680000000426044032
:1013100000000096000000044C0400000000BB0028
:101320000000044D0400000000BC000000042E0476
:101330000000000090000000042A04000000008F5C
:10134000000000042B04000000008E000000042CAC
:1013500004000000008D00000004290400000000CB
:101360008C0000000413040000000055000000047D
:1013700012040000000054000000041104000000EA
:10138000005300000004160400000000510000009B
:1013900004150400000000500000000414040000C4
:1013A00000004F000000040F04000000003800009F
:1013B00000040E040000000037000000040D0400CB
:1013C00000000035000000040C04000000003400A0
:1013D0000000040B040000000033000000040A04B5
:1013E000000000003100000004090400000000308B
:1013F000000000040804000000002F0000000000AE
:101400000000000000890000000000000000000053
:1014100088000000000000000000008600000000BE
:101420000000000000008500F91203AB2600000058
:10143000000000021303A4260000000000000000CA
:1014400004D404000000002601000004D3040000BE
:1014500000002501000004D2040000000024010067
:101460000004D104000000002301000004D00400A7
:101470000000002201000004CF0400000000280149
:1014800000000100000000000021010000038204B0
:10149000000000000A010000038104000000003F7A
:1014A000000000038004000000003E000000037FF5
:1014B00004000000003D000000037E040000000066
:1014C0003C00411C57134C13411336132B132013AC
:1014D000151377176C17611756174B1740173517E9
:1014E0000A132A17411C99138E13831378136D1353
:1014F0006213411CF113E613DB13D013C513BA13A7
:10150000AF13A4130714FC131D141214411C33143D
:1015100028148014411C75146A145F14541449145F
:101520003E14411CB714AC14A11496148B14020081
:10153000001100C2140200000700E41402000009B8
:1015400000F21403580402000415032004020008EA
:101550001502000003000C1502000008001215021D
:10156000000006002215000003DB04000000003725
:10157000010000030704000000003B000000030618
:1015800004000000003A000000022E1500000000D8
:101590000F000000023515000000004E00000002A0
:1015A0003C15000000003900000002431500000057
:1015B0000087000000024A150000000084000000BF
:1015C000041004000000008B000000025115000010
:1015D0000000E400000003B40400000000D200009A
:1015E0000003D604000000002901000003B204003B
:1015F000000000D000000003C804000000001F012C
:1016000000000258150000000021010000025F15D3
:10161000000000001100000004BD0400001000E301
:1016200000000003B90400001000E100000003B84E
:101630000400001000E000000003B60400001000E9
:10164000DF00000003B50400001000DE000000030E
:10165000BE0400001000DD00000003B7040000100D
:1016600000DC00000004B60F0000000009010000CB
:1016700004B50F000000000801000004B40F0000D2
:1016800000000701000000000000000000F2000060
:101690000000000000000000AB000000000000009F
:1016A00000000070000000000000000000006F005B
:1016B000000003E803000000002D01000003881370
:1016C000000000002C01000004F203000000002ACA
:1016D00001000001000000000000CB00411CC91502
:1016E000BE15B315A8159D1592158715D81D7C1527
:1016F00071156615411C0B160016F515EA15DF1558
:10170000D415411C58164D16421637162C162116A4
:101710001616411C79166E166316A5169A168F16A4
:101720008416D116C616BB16B0160000042F04008E
:101730000000009B0000000422044000000095000F
:101740000000042604200000009A00000004250484
:1017500020000000990000000424042000000098EC
:101760000000000423042000000097000000042271
:10177000042000000094000000042D04000000007C
:1017800093000200000C00DC160200000700F416B3
:10179000020000080002170200000400121703F004
:1017A0000304001A1782000004002217411C771757
:1017B0006C17611756174B17401735172A1700007B
:1017C0000000000000000013010000000000000005
:1017D0000000F4000000000000000000001D0100F7
:1017E0000000000000000000F4000000028217006A
:1017F0000010000D000000028917000010000E010B
:10180000000002D91E000000001000000002901726
:1018100000001000D9000000029A1E000010000F06
:1018200000000002931E000010000E00000004578C
:101830000410000000CA00000003B40410000000FF
:10184000D2000000045204100000007E00000004DA
:10185000480410000000B100000002A517100000AD
:1018600000CB000000041F0410000000B0000000C6
:101870000461041000000024000000046204100051
:1018800000002500000003C404040000004A00001A
:1018900000034B04100004004900000003C50410BD
:1018A000000400C900000002A11E000010000B008F
:1018B0000000000000000000001C0100000000000B
:1018C00000000000160100000000000000000015EC
:1018D00001000000000000000000140100000000F2
:1018E0000000000000E00000000000000000000018
:1018F000DA00000000000000000000DF000000002F
:10190000000000000000DA000000000000000000FD
:1019100000E100000000000000000000DA0000000C
:1019200000000000000000DE0000000000000000D9
:101930000000DA00000000000000000000DD0000F0
:101940000000000000000000DA00000000000000BD
:10195000000000DC00000000000000000000DA00D1
:10196000000003E803000000002D01000003D7047D
:10197000000000002C01000004D804000000002B2F
:10198000010000010000000000002901000000002B
:101990000000000000CF0000000000000000000078
:1019A000CE00000000000000000000CD000000009C
:1019B000000000000000CC000000029717000000AB
:1019C000000601000002BD1E000000002100000012
:1019D00002A81E000000002200000002C41E000039
:1019E00000001F00000002AF1E00000000200000E9
:1019F0000002CB1E000000001D00000002B61E0009
:101A00000000001E0000000300040000100016008B
:101A1000000003FF03000010001500000003FE0398
:101A20000000100014000000034404000000002E19
:101A3000000000029E170000000023000000033A8F
:101A40000400000000280000000462040000000000
:101A500025000000046104000000002400000003D1
:101A60004304000010001C000000033104000010BB
:101A7000001B000000033804000000001A000000F2
:101A800003470400000000180000000337040000B2
:101A900000001700000002A51700000000CB0000A6
:101AA00000045204000000007E000000044804000E
:101AB000000000B1000000041F0400000000B0009E
:101AC000000004570400000000CA00000003FD03EA
:101AD0000000100013000000000000000000006E75
:101AE000000000000000000000006D000000000089
:101AF00000000000006C000000000000000000007A
:101B00006B000000000000000000006A0000000000
:101B1000000000000000690000000000000000005C
:101B200000680000000000000000000067000000E6
:101B3000000000000000006600000000000000003F
:101B400000006500000000000000000000640000CC
:101B50000000000000000000630000000000000022
:101B600000000062000000000000000000006100B2
:101B70000000000000000000006000000000000005
:101B8000000000005F000000000000000000005E98
:101B9000000000000000000000005D0000000000E8
:101BA00000000000005C00000000000000000000D9
:101BB0005B000000000000000000005A0000000070
:101BC00000000000000059000000000000000000BC
:101BD0000058000000000000000000005700000056
:101BE00003C624100000000300000003E803000007
:101BF00000000400000001000000000000F40000EC
:101C00000001000000000000C900000003F403010F
:101C10000002004D00000002D21E02000000C900B8
:101C2000000003F703060000004A00000003F6036B
:101C3000020004004900000003F50301000200480F
:101C400000000003E803000000000A00000000009C
:101C5000000000000039010000000000000000004A
:101C60003801000000000000000000A80000000093
:101C7000000000000000A7000000000000000000BD
:101C800000A600000000000000000000A500000009
:101C90000000000000000013010000000000000030
:101CA0000000F4000000000000000000002001001F
:101CB0000000000000000000F4000200000900AC79
:101CC00017DF17D417C917BE17411CA5189A188F0C
:101CD00018841879186E18631858184D1842183758
:101CE000182C18361C211816180B180018F517EAAE
:101CF00017D118C618BB18B018E718DC18FD18F271
:101D0000181319081929191E193F19341955194A98
:101D100019811976196B196019AD19A21997198CC7
:101D200019411CCB1A1B1A101A051AFA19EF19E4DB
:101D300019D919CE19C319311AB819411C521A47A9
:101D40001A3C1A311A261A411CCB1AC01AB51AAA03
:101D50001A9F1A941A891A7E1A731A681A5D1AF74A
:101D60001AEC1AE11AD61A231B181B0D1B021B4F63
:101D70001B441B391B2E1B7B1B701B651B5A1BA78F
:101D80001B9C1B911B861BD31BC81BBD1BB21BFFBF
:101D90001BF41BE91BDE1B411C361C2B1C201C15D5
:101DA0001C0A1C411C571C4C1C6D1C621C831C789B
:101DB0001CAF1CA41C991C8E1C5265717565737434
:101DC00050617573653A0052657175657374436F40
:101DD0006E74696E75653A00000002BA1C0000005E
:101DE00000A20005CC040400C11C2F2F20616374E5
:101DF000696F6E3A726573756D650044656C6574E4
:101E0000696F6E206661696C65640046696C652067
:101E100064656C65746564000200001400C91C05EB
:101E2000CD040400F11C0310270200F91C03102745
:101E30000200FD1C0310270200011D0310270200F1
:101E4000051D0310270200091D03102702000D1DA8
:101E50008200000400111D0588130400191D2F2F96
:101E600020616374696F6E3A706175736500696DA6
:101E7000706F7274616E743A2046696C616D656E44
:101E800074206368616E676520726571756972653B
:101E90006421000200000D00211D02000006003B2D
:101EA0001D0200000C00471D03FC0304005F1D031E
:101EB000FB030400671D03FA0304006F1D03EF0317
:101EC0000400771D03EE0304007F1D03ED030400EF
:101ED000871D02000004008F1D0200000600971DF0
:101EE0000100000100A31D0310270200A51D03101F
:101EF000270200A91D0310270200AD1D4A616D20B5
:101F0000636F6E74726F6C2064697361626C656478
:101F10003A0005CC040400B11D00000000000000E0
:101F20000000002020203F2E3F3F0020486F6D69B9
:101F30006E670020646563200020646566200020D1
:101F4000000400030044656275674C6576656C3A71
:101F5000005072696E7465724D6F64653A434E430A
:101F6000005072696E7465724D6F64653A4C6173AE
:101F70006572005072696E7465724D6F64653A46A1
:101F80004646005A206A65726B2077617320746F31
:101F90006F206C6F772C2073657474696E67207482
:101FA0006F20005859206A65726B20776173207426
:101FB0006F6F206C6F772C2073657474696E672067
:101FC000746F2000496E76616C69642061726300F1
:101FD0005761726E696E673A005A204F6666736584
:101FE00074206E6F7420636F6D7075746564206407
:101FF000756520746F206572726F7273005A204F7E
:1020000066667365742073746F726564005A204F3E
:102010006666736574206E6F7420636F6D7075747F
:1020200065642064756520746F206572726F7273C9
:1020300000446576696174696F6E206265747765C6
:10204000656E206D6561737572656D656E74732064
:102050007765726520746F6F206269672C20706CE1
:1020600065617365207265706561742E00205A5F2A
:102070004F46465345543A0020595F4F4646534514
:10208000543A00585F4F46465345543A0052656CE7
:10209000617469766520706F736974696F6E696EBB
:1020A00067004162736F6C75746520706F7369743B
:1020B000696F6E696E6700473332206C6576656CB8
:1020C000696E67206661696C656421004733302062
:1020D00070726F62696E67206661696C6564210069
:1020E000473239206C6576656C696E672066616978
:1020F0006C6564210041646A7573746564207A209C
:102100006F726967696E005A2D70726F6265206127
:10211000766572616765206865696768743A00254D
:1021200000F00F2C00A00F3300500F3A00000F43B7
:1021300000B00E4D00600E5800100E6300C00D7010
:1021400000700D7E00200D9000D00CA300800CB913
:1021500000300CD200E00BF000900B1101400B3767
:1021600001F00A6301A00A9801500AD601000A1E74
:1021700002B0096F026009D00210094003C008C113
:1021800003700854042008FC04D007B70580078CAE
:102190000630076807E006550890064E0940064BD2
:1021A0000AF005320BA005140C5005D80C00058C64
:1021B0000DB004180E60048F0E1004F00EC0033A28
:1021C0000F7003730F2003BD0F8002DC0F0802E9BC
:1021D0000FB801F20F6801F80F1801FC0FC800FFDB
:1021E0000F00004800901A4800A00F5800000F6C24
:1021F00000600E8400C00DA400200DD000800C10E3
:1022000001E00B5801400BC001A00A4C02000A0873
:10221000036009F803C00828052008B006800754A9
:1022200008E006180A4006C80BA005300D0005405E
:102230000E6004FC0EC003740F2003BC0F8002E08C
:102240000FE001F40FF000FB0FC800FC0FA000042A
:1022500000501D7C00D009A4001009CC008008F4B7
:102260000010081C01B807440168076C0128079496
:1022700001E806BC01B806E40188060C02600634D9
:102280000238065C0218068402F005AC02D805D4B8
:1022900002B805FC0298052403800574035005C4A8
:1022A000032805140400056404D804B404B0042C05
:1022B000058004A40558041C062804940600040C98
:1022C00007D803AC07A8034C087803EC0848038C34
:1022D000092003A40AD0021C0BA802AC0C2802FCA3
:1022E0000C0802C40DB801140E9801B40E38012C6C
:1022F0000FE000540FB8007C0F8800A40F4800F4D2
:102300000F28FFFC0FC0F9000000008C030800AE8E
:10231000035000D603A000F703F000180440013872
:102320000490015904E0017A0430029A048002BB4F
:1023300004D002FC0470032605C00386063007970C
:1023400009A00F750D201C520E401F1F0F6022FFA9
:102350000F803E0400081D900058091C01B007A81A
:1023600001C80634023006C002C0054C036805D817
:102370000318056404D004F00498047C0560040884
:10238000063004940600042007D003AC07A80338E5
:10239000088003C408580350093003DC09080368A7
:1023A0000AD802F40AB002800B88020C0C60029872
:1023B0000C3002240DF801B00DC0013C0E8001C8A4
:1023C0000E3001540FB800B40F2800E00F000004D5
:1023D00000401D900060091C01B007A801D0063420
:1023E000023806C002C8054C036805D80318056406
:1023F00004D804F00498047C0560040806300494B2
:102400000600042007D003AC07A80338088003C4E3
:1024100008580350093003DC090803680AE002F495
:102420000AB802800B88020C0C6002980C3002245F
:102430000DF801B00DC0013C0E8001C80E300154F2
:102440000FB800B40F2800E00F000004000016D8F9
:1024500000C006AC0178058002C00454034804287B
:1024600004E803FC049803D0055003A4061803787D
:1024700007D8024C08A80220097002F4093802C8E3
:102480000A08029C0BD001700C9001440D500118F9
:102490000EF800EC0E8800C00F00000400681D4C10
:1024A00000500B94005809DC0050082401A8076C68
:1024B000012807B401C006FC017006440228068CFE
:1024C00002F005D402B8051C03880564035805AC66
:1024D000033005F40310053C04E8048404C804CC6C
:1024E00004A804140590045C057004A4055804ECC9
:1024F000053804340620047C060804C406F0030CE6
:1025000007D8035407C8039C07B003E40798032CBB
:1025100008800374087003BC085803040948034C7E
:1025200009300394091803DC090803240AF0026C3B
:102530000AE002B40AC802FC0AB002440BA0028CF2
:102540000B8802D40B70021C0C5802640C4002ACC5
:102550000C2802F40C10023C0DF001840DD801CCC3
:102560000DB801140E98015C0E7001A40E4801EC28
:102570000E1801340FD8007C0F8800C40F0800FC2F
:102580000F0000000000000000000000000000003C
:10259000000000000000000000000000000000003B
:1025A000000000000000000000401F450060094FCF
:1025B0000010095C00C0086B0070087D00200892C4
:1025C00000D007AC008007CC003007F400E0062301
:1025D0000190065E014006A601F005FF01A0056D11
:1025E000025005F30200059603B0045A046004404B
:1025F0000510044806C0036E077003A8082003EB0B
:1026000009D002230B8002410C3002390DE0010495
:102610000E9001A20E4001170FF000690FA000A25A
:102620000F5000C60F0000DD0FB0FFEB0F60FF047E
:1026300000700DD8004804AC0158038002D8025441
:1026400003800228043802FC040002D005C801A45B
:10265000069801780770014C08480120091801F418
:1026600009F000C80AC8009C0BA000700C70004460
:102670000D3800180E0000EC0EA8FFC00FE8FE0495
:1026800000001B54006009640010097400C0088435
:102690000070089C002008B800D007D80080070010
:1026A0000130072C01E00668019006AC01400600ED
:1026B00002F0056802A005E002500574030005243D
:1026C00004B004F0046004DC051004E406C0030454
:1026D00008700330092003780B8002600DE001A828
:1026E0000E4001680FA000C00F0000E80F60FF045B
:1026F00000801AD8009808AC0120078002500654C8
:1027000003C80528045805FC040005D005B004A43E
:10271000066804780728044C08E8032009B003F48D
:10272000097003C80A38039C0BF802700CB002440D
:102730000D6802180E0802EC0E8801C00F8800F028
:102740000F00000000A00F5C00600969001009790B
:1027500000C0088C007008A2002008BD00D007DE71
:10276000008007050130073401E0066D019006B2D4
:102770000140060702F0056D02A005E80250057B46
:102780000300052B04B004F8046004EB06C0033515
:102790000920037F0B8002650DE001B00E40011D92
:1027A0000FF000480FC8006C0FA000ED0F60FFFE97
:1027B0000F48FE53656C6563744578747275646583
:1027C000723A003A00546172676574457874720019
:1027D0005461726765744265643A004327EF267F4F
:1027E000262F26000000000000A7259B244B24CFA5
:1027F00023532307234F22E3211F211C151C140000
:1028000000002243141F1F132E1B315072696E7477
:1028100065722073657420696E746F20647279200C
:1028200072756E206D6F646520756E74696C2072B0
:102830006573746172742100206D61726B65642030
:102840006465636F75706C656400206D61726B65A3
:102850006420646566656374003A20776F726B6903
:102860006E67003A2074656D702073656E736F72C9
:10287000206465666563740065787472756465725A
:102880002000686561746564206265640000004230
:102890000FA1071605D0030D038B022E02E801B22B
:1028A000018601630145012C0117010401F40000B8
:1028B00000000000000000000000000000000024F4
:1028C000F403D950C38EB1C2A23D96828B358212D9
:1028D0007AE372816CCB66A861015DC758EB5461E5
:1028E00051204E1E4B5648C14559431A41013F09DC
:1028F0003D2F3B7139CD374036C93465331432D45E
:1029000030A32F802E6B2D632C672B752A8E29B058
:1029100028DC2710274B268F25D9242B248223E05F
:10292000224322AC211A218D200420801F001F8405
:102930001E0C1E971D261DB81C4E1CE61B821B205C
:102940001BC11A641A0A1AB2195D190A19B9186A50
:10295000181C18D11788174017FA16B516731631B8
:1029600016F115B31576153A150015C7148F1458BE
:10297000142214EE13BA13881356132513F612C734
:102980001299126C1240121512EB11C111981170AC
:102990001148112111FB10D610B1108D106910468D
:1029A0001024100210E10FC00FA00F800F610F4222
:1029B0000F230F060FE80ECB0EAF0E930E770E5CB3
:1029C0000E410E270E0D0EF30DDA0DC10DA80D9060
:1029D0000D780D600D490D320D1B0D050DEF0CD955
:1029E0000CC30CAE0C990C850C700C5C0C480C35AF
:1029F0000C210C0E0CFB0BE80BD60BC40BB20BA07E
:102A00000B8E0B7D0B6B0B5A0B4A0B390B290B18DA
:102A10000B080BF80AE90AD90ACA0ABB0AAC0A9DD4
:102A20000A8E0A800A710A630A550A470A390A2C73
:102A30000A1E0A110A040AF709EA09DD09D009C4C5
:102A400009B709AB099F09920987097B096F0963D7
:102A50000958094C09410936092B09200915090AA9
:102A6000090009F508EB08E008D608CC08C208B848
:102A700008AE08A4089A08900887087D0874086BB7
:102A800008610858084F0846083D0834082C0823F8
:102A9000081A08120809080108F807F007E807E013
:102AA00007D807D007C807C007B807B007A807A10D
:102AB00007000000000000000000F7000000000018
:102AC0000000000000DA00BC2AB12A00000000006B
:102AD000000000001C01000000000000000000F4E5
:102AE000000000000000000000001B0100000000CA
:102AF00000000000001701000000000000000000BE
:102B00001C01000000000000000000F400000000B4
:102B10000000000000001A0100000000000000009A
:102B20000017010000000000000000001C01000070
:102B300000000000000000F40000000000000000A1
:102B40000000190100000000000000000017010053
:102B500000000000000000001C0100000000000058
:102B6000000000F400000000000000000000180158
:102B70000000000000000000001701EC2AE12AD646
:102B80002ACB2A182B0D2B022BF72A442B392B2E5C
:102B90002B232B702B652B5A2B4F2B000310270256
:102BA00000C72A6572726F722077726974696E67E6
:102BB00020746F2066696C6500504944204175742B
:102BC0006F74756E652066696E697368656420212F
:102BD00020506C61636520746865204B702C204B1D
:102BE0006920616E64204B6420636F6E7374616E44
:102BF000747320696E2074686520436F6E66696720
:102C000075726174696F6E2E68206F722045455031
:102C1000524F4D00446F6E6520736176696E672078
:102C200066696C652E002F00534420436172642056
:102C3000756E6D6F756E746564005472616E736647
:102C40006F726D6174696F6E206D61747269783A2C
:102C50000005CB0404007B2B05CB040400832B056B
:102C6000CB0404008B2B05CB040400932B4361722F
:102C700064207375636365737366756C6C79206922
:102C80006E697469616C697A65642E0043616E27B0
:102C900074206F70656E20726F6F74206469726546
:102CA00063746F72792E0A0043616E27742066691F
:102CB0006E6420612076616C69642046415431362F
:102CC0002F464154333220706172746974696F6E9B
:102CD0002E0A006572726F72436F64653A20000AB3
:102CE000534420696E697469616C697A6174696FB3
:102CF0006E206661696C65642E0A446F206E6F7485
:102D0000207265666F726D617420746865206361FE
:102D10007264210A497320746865206361726420BB
:102D2000636F72726563746C7920696E7365727417
:102D300065643F0A4973206368697053656C656315
:102D4000742073657420746F2074686520636F72DB
:102D5000726563742076616C75653F0A446F6573B4
:102D600020616E6F746865722053504920646576E7
:102D7000696365206E65656420746F2062652064F8
:102D8000697361626C65643F0A4973207468657297
:102D900065206120776972696E672F736F6C646557
:102DA00072696E672070726F626C656D3F0053448C
:102DB00020696E6974206661696C00004175746FEA
:102DC0006C6576656C206D617472697820726573CC
:102DD0006574004865617465722F73656E736F72F8
:102DE000206572726F720044697361626C696E670C
:102DF00020616C6C20686561746572732064756510
:102E000020746F2064657465637465642073656EF7
:102E1000736F72206465666563742E002064656755
:102E20002E204300206D6561737572656420004536
:102E300072726F723A436F756C64206E6F742068A3
:102E40006F6C642074656D70657261747572652055
:102E500000206D73002061667465722000457272F7
:102E60006F723A54656D702E2072616973656420CB
:102E7000746F20736C6F772E2052697365203D202C
:102E8000004F6E6520686561746572207365656DBD
:102E900073206465636F75706C65642066726F6D16
:102EA00020746865726D6973746F72202D20646977
:102EB0007361626C696E6720616C6C20666F722052
:102EC0007361666574792100486561746572206478
:102ED00065636F75706C6564004865617465642036
:102EE000626564206578636565646564206D6178FA
:102EF0002074656D7065726174757265210020457E
:102F00003A00205A3A00583A002044303A00204013
:102F10003A002042403A0020524157002044423AB1
:102F20000020423A00202F00543A00537065656437
:102F30004D756C7469706C793A00466C6F774D759D
:102F40006C7469706C793A0046616E737065656483
:102F50003A00206D696E0020686F75727320002042
:102F60006461797320005072696E74696E672074B1
:102F7000696D653A006D20005072696E7465642059
:102F800066696C616D656E743A00000000000000B7
:102F9000000000F100000000000000000000C4007C
:102FA000000000000000000000F000000000000031
:102FB00000000000C300000000000000000000F35B
:102FC00000000000000000000000F400000000000D
:102FD0000000000000AF0000000000000000000042
:102FE000AB00000000000000000000F30000000043
:102FF0000000000000005F00000000000000000072
:10300000005B00000000000000000000570000000E
:1030100000000000000000F30000000000000000BD
:103020000000EE00000000000000000000ED0000C5
:103030000000000000000000EB00AB2FA02F952F38
:103040008A2FD72FCC2FC12FB62F0330F82FED2F7B
:10305000E22F2F30243019300E3000000004003AE7
:10306000300000000400423000000004004A30003C
:1030700000000400523046696C652073656C65631E
:10308000746564002053697A653A0046696C65206E
:103090006F70656E65643A0066696C652E6F706569
:1030A0006E206661696C65640000002100240027C1
:1030B000002A002D00300033000101000004010748
:1030C000010A0101021020200808102040102040B1
:1030D00080020102010804020101020408102040DC
:1030E00080804020100804020180040201804020FA
:1030F0001008040201080402010102040810204023
:103100008001020408102040800505050507050818
:10311000080808020202020A0A080804040404015A
:10312000010101010101010303030303030303047C
:103130000707070C0C0C0C0C0C0C0C02020202060C
:10314000060606060606060B0B0B0B0B0B0B0B6F8E
:1031500030683061305A30494E46004E414E00438F
:103160006F6E66696775726174696F6E20726573E0
:10317000657420746F2064656661756C74732E00CD
:103180000000FF00000000010100000000FF00003F
:1031900050726F746F636F6C2076657273696F6EB7
:1031A000206368616E6765642C2075706772616466
:1031B000696E6700446574656374656420454550B5
:1031C000524F4D2076657273696F6E3A0045787480
:1031D000722E004550523A3320004550523A322068
:1031E000004550523A3120004550523A3020005AA2
:1031F0002D70726F62652073746174653A007A5F36
:103200006D696E3A004C2000482000795F6D696E50
:103210003A00785F6D696E3A00656E6473746F7022
:1032200073206869743A200080250000403800004F
:10323000004B00008070000000960000C0DA000023
:1032400000E10000002C010008B2010000C20100F2
:1032500000F401000084030090D0030000E80300A4
:103260000008070020A1070000100E0040420F00D8
:1032700060E31600000000005265736574206672FA
:103280006F6D20436F6E66696700436F6E66696796
:1032900075726174696F6E0052657365742045457F
:1032A00050524F4D0025656A204A616D20436F6E74
:1032B00074726F6C004D756C3A20256F6D25252555
:1032C000202020204C61733A256F702057004D75E7
:1032D0006C3A20256F6D252525202020205370690C
:1032E0003A256F7052504D20005A773A2578372092
:1032F00020205A3A2578320059773A25783620200E
:1033000020593A2578310058773A25783520202001
:10331000583A257830005374617274205A2D5072D7
:103320006F6265004D6573757265202E2E2E005AF2
:103330002D4F66667365743A25587A004665726D3E
:103340006500436F6E74696E756500506F732E2053
:103350005265656C205A3A2557306D6D0054656D85
:10336000702E202565632F2545630243004D65734C
:103370002E204861757465757220536F6E64650008
:103380004C6974202020203A2025706202430045B9
:103390007874722E20363A20257035024300457825
:1033A00074722E20353A202570340243004578741B
:1033B000722E20343A20257033024300457874720F
:1033C0002E20333A20257032024300457874722E45
:1033D00020323A20257031024300457874722E2045
:1033E000313A202570300243005072656368617580
:1033F00066666167652054656D702E005072697352
:10340000652064274F726967696E65202E2E2E0035
:103410004175746F6C6576656C204C69740043610E
:103420006C696272616765204572726575720043EE
:10343000616C696272616765204C697400202020AC
:10344000203E3E3E204F6B203C3C3C004E69766562
:103450006C6C656D656E74204572726575720046A0
:10346000696C616D656E7420676C697373616E74ED
:1034700000436861756666616765206465636F75A2
:10348000706C650044656661757420536F6E646589
:103490002054656D702E004E6F74696669636174A7
:1034A000696F6E3A00736F69742064656761676560
:1034B000006C65206C697420636861756666616E76
:1034C00074004173737572657A2D766F7573207110
:1034D0007565002A2A2A2050617469656E74657AC0
:1034E000202A2A2A00416E6E756C65005669746543
:1034F0007373652046616E20323A25465325252593
:1035000000446973746F7273696F6E20636F7272B7
:103510002E3A254465004D6573757265207A2D64D9
:103520006973746F7273696F6E005265676C61675F
:1035300065730025506E0025507025252500436FCA
:10354000756368652025506C2F25504C0046696EC8
:1035500020646520636F757273653A25647000534B
:103560006574205A206F66667365743A2554326D0F
:103570006D005365742059206F66667365743A2533
:1035800054316D6D005365742058206F6666736505
:10359000743A2554306D6D00536574207072696EF5
:1035A00074206F6666736574730048617574657521
:1035B00072205A2D536F6E64653A257A680025444F
:1035C00033203320436F7069657300254432203205
:1035D00020436F7069657300254431203120436FAB
:1035E0007069650025443020417563756E65204320
:1035F0006F706965002558352053656C6563742EBE
:1036000020457874722E2036002558342053656C7E
:103610006563742E20457874722E2035002558334A
:103620002053656C6563742E20457874722E2034A7
:1036300000457874727564657573652036204F6631
:103640006600457874727564657573652035204F22
:1036500066660045787472756465757365203420FC
:103660004F66660054656D702E2036203A2565350C
:103670002F25453502430054656D702E2035203AC4
:103680002565342F25453402430054656D702E2086
:1036900034203A2565332F25453302430020254247
:1036A000436D6D00052565630200052565632F25C3
:1036B0004563020000256F7300255566206D204983
:1036C0006D7072696D6500255566206D0025557415
:1036D00000583A25783020593A257831004D756CDC
:1036E0003A20256F6D202020453A257834005A3A3B
:1036F0002578322020427566203A20256F4200420C
:103700002565422F2545620200052565632F254565
:103710006302422565422F2545620200256F730032
:103720004275663A20256F42004D756C3A20256F30
:103730006D25252520FD202020453A202578346D53
:1037400000466C6F773AFD20256F662525252020E1
:10375000205A3A257832000E202565622F254562D1
:10376000B020593A257831000A202565632F254578
:1037700063B020583A257830004C616E677565005B
:103780004570616973736575723A2542436D6D00CA
:10379000506572736F6E6E656C004261746F6E205F
:1037A000646520436F6C6C6500527562616E2076B3
:1037B0006572742050455400426C756520546170E8
:1037C00065004B6170746F6E004275696C64546182
:1037D0006B00417563756E205265766574656D6525
:1037E0006E7400005265766574656D656E74206454
:1037F00065204C69743A005265766574656D656E36
:1038000074206465204C6974005374616E6462793D
:103810000053746F636B6167652064274578747229
:103820007573696F6E006369626C6573202E2E2E4E
:1038300000417474656E64657A2054656D702E0065
:103840005265636861756666657220457874727545
:10385000642E00436C697175657A20706F75720013
:1038600049676E6F726572204D313036202546698A
:1038700000506F732E20536572766F3A20256F5378
:10388000004175746F6C6576656C3A20256C6C0030
:10389000436F6E74696E756572206176656320434F
:1038A0006C69630046696C616D656E742068617552
:1038B000742F62617300546F75726E657A2044656F
:1038C000706C61636572004368616E67656D656EFB
:1038D000742046696C616D656E74004368616E6743
:1038E000656D656E742046696C616D656E74005A15
:1038F0002042616279737465702E3A256F596D6D3F
:1039000000417272657420496D70726573732E0088
:10391000546F7574206F75205269656E0054656D23
:103920007073204D6F72740041545820706F77652A
:1039300072206F6E2F6F666600496D7072696D65DB
:103940000046696C616D656E7420496D7072696DB9
:10395000650054656D707320496D7072657373698D
:103960006F6E00003A00206A6F7572732000496D17
:103970007072696D616E7465207072657465004364
:103980006172746520534420696E736572656500C9
:103990004361727465205344207265746972656571
:1039A000004174742E20556E6974733A2558556D14
:1039B0006D004174742E2054656D702E255854028C
:1039C00043004E69766561752064656C74610043DF
:1039D000616C63756C6572204E6976656C6C656DA3
:1039E000656E74005265676C6572205033005265D5
:1039F000676C6572205032005265676C65722050AA
:103A000031005A2043616C69622E005265676C6513
:103A100072205A3D30005265736574204D65737590
:103A20007265004D6F6E74726572204D65737572AC
:103A30006500466C6F77204D756C2E3A256F6625B4
:103A40002525005669742E204D756C2E3A256F6D14
:103A50002525250020423A2565622F25456202432F
:103A60007E256F620045333A2565322F25453202A7
:103A7000437E256F320045323A2565312F25453189
:103A800002437E256F310045313A2565302F2545AB
:103A90003002437E256F300020453A2565632F258F
:103AA000456302437E256F430054616D706F6E3A2B
:103AB000256F420054656C656368617267656D656A
:103AC0006E742E2E0043686172672E203C3D2045A7
:103AD0004550524F4D00436F6E6669677572617451
:103AE000696F6E0053746F636B2E203D3E20454519
:103AF00050524F4D00436F6E66696775726174690D
:103B00006F6E004D6F7465757273204172726574CB
:103B100065730053746F7070650043686175666605
:103B20002E204C6974004368617566662E204578C6
:103B3000747275642E00416374696F6E3A256C610E
:103B4000005049440042616E6742616E6700592D22
:103B50004F66667365743A25587900582D4F66662E
:103B60007365743A25587800504944204D61783A7D
:103B7000255844004472697665204D61783A25588D
:103B80004D004472697665204D696E3A25586D0086
:103B900050494420443A2558640050494420493A49
:103BA0002558690050574D20436F6E74726F6C3A00
:103BB00025584D0054656D7073204D6F72743A2511
:103BC00058700050494420503A25587000436F6E99
:103BD00074726F6C653A255868004176616E636552
:103BE00020717561643A255861004176616E6365A4
:103BF000206C696E3A25586C00537461622E5465CE
:103C00006D70733A25587700416363656C3A2558A7
:103C100041004D61782046523A2558460053746160
:103C200072742046523A255866005061732F4D4DEC
:103C30003A2553650042617564726174653A256F77
:103C4000630047656E6572616C005B6D696E5D2037
:103C5000303D4F6666004469732E20417072657373
:103C60003A2025697000417272657420416C696D5B
:103C70002E005B6D696E5D20303D4F6666004469C5
:103C8000732E2041707265733A202569730041726A
:103C9000726574204D6F74657572730056656E742D
:103CA000696C2E204D61780056656E74696C2E200B
:103CB00037352525250056656E74696C2E20353004
:103CC0002525250056656E74696C2E203235252514
:103CD000250041727265742056656E74696C2E0001
:103CE0005669742E2056656E74696C2E3A2546739B
:103CF000252525005669742E2056656E74696C2E34
:103D0000004D696E3A25737A204D61783A25735AD1
:103D1000005A3A257832206D6D004D696E3A257350
:103D200079204D61783A25735900593A2578312028
:103D30006D6D004D696E3A257378204D61783A2596
:103D4000735800583A257830206D6D004D696E3AF1
:103D500025737A204D61783A25735A005A3A2578AE
:103D600032206D6D004D696E3A257379204D617872
:103D70003A25735900593A257831206D6D004D6907
:103D80006E3A257378204D61783A25735800583A79
:103D9000257830206D6D003120636C6963203D20F3
:103DA00031206D6D00453A257833206D6D00004D52
:103DB00061782042757465653A25735A004D696EC5
:103DC0002042757465653A25737A005A3A2578322F
:103DD000206D6D00004D61782042757465653A254F
:103DE0007359004D696E2042757465653A25737983
:103DF00000593A257831206D6D00004D61782042E0
:103E0000757465653A257358004D696E2042757466
:103E100065653A25737800583A257830206D6D0035
:103E2000004D61782042757465653A25735A004DDE
:103E3000696E2042757465653A25737A005A3A2591
:103E40007832206D6D2025647A25645A00004D611A
:103E5000782042757465653A257359004D696E2066
:103E600042757465653A25737900593A2578312091
:103E70006D6D2025647925645900004D61782042DC
:103E8000757465653A257358004D696E20427574E6
:103E900065653A25737800583A257830206D6D2095
:103EA000256478256458004163637565696C3A251B
:103EB000665A004163637565696C205A3A25665AF3
:103EC000004163637565696C20593A256659004164
:103ED00063637565696C20583A256658004D6178B2
:103EE0003A25667A004D6178205A3A25667A004D67
:103EF000617820593A256679004D617820583A2535
:103F00006678004176616E636500537570702E208F
:103F10006669636869657200496E736572657220CF
:103F20004361727465005265746972657220436101
:103F300072746500436F6E74696E75657220496DA9
:103F400070726573732E00506175736520496D70D2
:103F5000726573732E00496D7072696D2E206669EB
:103F6000636869657200416E7469204F6F7A6500FD
:103F70004465706C61632E2041707265733A254F01
:103F800061004D696E2E646973743A254F64004276
:103F900061636B736C2E203A254F62005265747218
:103FA0006163742E203A254F7200254F32204F5006
:103FB000532052617069646500254F31204F505382
:103FC00020436C61737369712E00254F30204F5070
:103FD00053204F666600466F6E63742E2061205634
:103FE0006964653A25646400457272657572732070
:103FF00020202020203A25646500496E666F20202D
:10400000202020202020203A256469004563686F25
:104010002020202020202020203A25646F004368A3
:104020006172672E203C3D20454550524F4D005354
:10403000746F636B2E203D3E20454550524F4D001E
:10404000416363656C65726174696F6E005A2D4AD5
:1040500065726B3A25614A004A65726B3A25616A5E
:10406000004465706C61632E3A25615A00446570A6
:104070006C61632E205A3A25615A004465706C6168
:10408000632E20593A256159004465706C61632E96
:1040900020583A25615800496D7072696D2E3A2595
:1040A000617A00496D7072696D2E205A3A25617AE5
:1040B00000496D7072696D2E20593A256179004969
:1040C0006D7072696D2E20583A25617800536574C1
:1040D000204F726967696E002558322053656C6500
:1040E00063742E20457874722E20330025583120B9
:1040F00053656C6563742E20457874722E203200EF
:104100002558302053656C6563742E204578747291
:104110002E2031004578747275646575736520339F
:10412000204F666600457874727564657573652006
:1041300032204F66660045787472756465757365E4
:104140002031204F66660054656D702E2033203A72
:104150002565322F25453202430054656D702E20AF
:1041600032203A2565312F25453102430054656DD3
:10417000702E2031203A2565302F2545300243002E
:104180004C69742054656D703A2565622F2545622F
:10419000024300506F736974696F6E2045787472C2
:1041A0002E00506F732E20526170696465205A0092
:1041B000506F736974696F6E205A00506F732E20B0
:1041C000526170696465205900506F736974696F3A
:1041D0006E205900506F732E205261706964652003
:1041E0005800506F736974696F6E2058004465738E
:1041F00061637469762E204D6F7465757273005219
:1042000065676C657A20737572204F726967696E95
:104210006500526566726F696469720045636C611E
:104220006972616765203A256C6F00507265686538
:10423000617420416C6C20457874722E0050726558
:10424000686561742053696E676C65204578747287
:104250002E004163637565696C205A004163637584
:1042600065696C2059004163637565696C2058006D
:104270004163637565696C2058595A0041636375E1
:1042800065696C2044656C7461004465626F677594
:1042900065720043617274652053440045787472FE
:1042A00075646575736500506F736974696F6E002E
:1042B000436F6E66696775726174696F6E00256F12
:1042C0006500436F6E74726F6C65005265746F7534
:1042D000722001002A2A2A2A20455252455552208E
:1042E0002A2A2A2A0050617320646520436172746F
:1042F00065205344004175205265706F7300496D0D
:104300007072657373696F6E00496D707265737357
:10431000696F6E2E2E2E004E6F6E004F7569004E27
:104320002F41004F6666004F6E0052657365742022
:1043300066726F6D20436F6E66696700436F6E66CD
:10434000696775726174696F6E0052657365742078
:10435000454550524F4D0025656A204A616D204306
:104360006F6E74726F6C004D756C3A20256F6D2501
:104370002525202020204C61733A256F702057009E
:104380004D756C3A20256F6D252525202020205362
:1043900070693A256F7052504D20005A773A25784F
:1043A000372020205A3A2578320059773A25783636
:1043B000202020593A2578310058773A2578352041
:1043C0002020583A257830005374617274205A2D99
:1043D00050726F6265004D6561737572696E67201A
:1043E0002E2E2E005A2D4F66667365743A25587A24
:1043F00000436C6F736500436F6E74696E75650082
:104400005265616C205A20506F733A2557306D6D9C
:104410000054656D702E202565632F25456302438A
:10442000004D6561732E2050726F6265204865698A
:1044300067687400426564202020203A202570625D
:10444000024300457874722E20363A2025703502DA
:104450004300457874722E20353A2025703402438B
:1044600000457874722E20343A20257033024300C0
:10447000457874722E20333A20257032024300456D
:104480007874722E20323A2025703102430045782C
:1044900074722E20313A202570300243005072652C
:1044A000686561742054656D7065726174757265BC
:1044B0007300486F6D696E672E2E2E004175746F04
:1044C0006C6576656C206265640043616C6962723C
:1044D0006174696F6E204572726F720043616C691E
:1044E00062726174696E672062656400202020201A
:1044F0003E3E3E204F6B203C3C3C004C6576656C5C
:10450000696E67206572726F720046696C616D65D5
:104510006E7420736C697070696E670048656174B1
:104520006572206465636F75706C65640054656DB9
:10453000702E2073656E736F722064656665637498
:10454000004E6F74696669636174696F6E3A006FDB
:1045500062737472756374696F6E73006265642050
:10456000697320636C656172206F6620616E7900EB
:104570004D616B6520737572652074686520686590
:1045800061746564002A2A2A20506C656173652075
:1045900077616974202A2A2A0043616E63656C0082
:1045A00046616E20322073706565643A2546532556
:1045B000252500446973746F7274696F6E20636F90
:1045C00072722E3A254465004D65617375726520DF
:1045D000646973746F7274696F6E0053657475707B
:1045E0000025506E00255070252525004C61796509
:1045F000722025506C2F25504C00456E6453746F0B
:10460000703A25647000536574205A206F66667393
:1046100065743A2554326D6D005365742059206FCE
:1046200066667365743A2554316D6D005365742068
:1046300058206F66667365743A2554306D6D00536B
:104640006574207072696E74206F6666736574732A
:10465000005A2D70726F6265206865696768743AE8
:10466000257A6800254433203320636F70696573B1
:1046700000254432203220636F7069657300254441
:1046800031203120636F707900254430204E6F2037
:10469000636F70696573002558352053656C6563D9
:1046A0007420657874722E203600255834205365A6
:1046B0006C65637420657874722E2035002558333C
:1046C0002053656C65637420657874722E20340005
:1046D0005475726E20657874722E2036206F66666F
:1046E000005475726E20657874722E2035206F66C6
:1046F00066005475726E20657874722E2034206FB7
:1047000066660054656D702E2036203A2565352F7B
:1047100025453502430054656D702E2035203A251D
:1047200065342F25453402430054656D702E2034C6
:10473000203A2565332F2545330243002025424387
:104740006D6D00052565630200052565632F254510
:1047500063020000256F7300255566206D2070727E
:10476000696E74656400255566206D0025557400DA
:10477000583A25783020593A257831004D756C3AF1
:1047800020256F6D202020453A257834005A3A259F
:1047900078322020427566203A20256F420042255B
:1047A00065422F2545620200052565632F25456377
:1047B00002422565422F2545620200256F730042A3
:1047C00075663A20256F42004D756C3A20256F6D55
:1047D00025252520FD202020453A202578346D0010
:1047E000466C6F773AFD20256F6625252520202011
:1047F0005A3A257832000E202565622F254562B091
:1048000020593A257831000A202565632F25456314
:10481000B020583A257830004C616E677561676545
:1048200000437573746F6D3A2542436D6D00437597
:1048300073746F6D00476C756520737469636B00EA
:10484000477265656E205045542074617065004262
:104850006C75652070617065722074617065004BC5
:104860006170746F6E004275696C6454616B004EC8
:104870006F20636F6174696E670000426564206336
:104880006F6174696E672073657420746F00426590
:104890006420636F6174696E67005374616E646253
:1048A00079004578747275646572206A616D007470
:1048B000656D706572617475726573202E2E2E00A1
:1048C0005761697420666F72207461726765740045
:1048D0006578747275646572732E00436C69636BDE
:1048E00020746F207265686561740049676E6F722D
:1048F00065204D31303620636D64202546690053B4
:104900006572766F20706F732E3A20256F530041C9
:1049100075746F6C6576656C3A20256C6C00436C21
:1049200069636B207768656E20646F6E65006669E9
:104930006C616D656E742075702F646F776E0052B8
:104940006F7461746520746F206D6F7665004368C5
:10495000616E67652066696C616D656E74004368A1
:10496000616E67652066696C616D656E74005A20C2
:1049700062616279737465702E3A256F596D6D00AE
:1049800053746F70205072696E7400536C6F77426D
:10499000616E6700446561642074696D650041540F
:1049A0005820706F776572206F6E2F6F666600708B
:1049B00072696E7465640046696C616D656E742021
:1049C0007072696E746564005072696E74696E67A6
:1049D0002074696D6500003A0020646179732000DD
:1049E0005072696E7465722072656164792E00532D
:1049F00044206361726420696E736572746564003B
:104A0000534420636172642072656D6F7665640043
:104A10005761697420726574722E3A255855206D5D
:104A20006D00576169742074656D702E202558548F
:104A30000243004C6576656C2064656C74610043CC
:104A4000616C63756C617465206C6576656C696E0C
:104A50006700536574205033005365742050320052
:104A6000536574205031005A2063616C69622E00D6
:104A7000536574205A3D30005265736574206D652E
:104A800061732E0053686F77206D6561732E004649
:104A90006C6F77206D756C2E203A256F6625252565
:104AA000005370656564206D756C2E3A256F6D2519
:104AB00025250020423A2565622F25456202437E66
:104AC000256F620045333A2565322F254532024372
:104AD0007E256F320045323A2565312F254531025A
:104AE000437E256F310045313A2565302F2545300D
:104AF00002437E256F300020453A2565632F25450A
:104B00006302437E256F43004275666665723A25EF
:104B10006F420055706C6F6164696E672E2E2E00B7
:104B20006C6F6164656420662E20454550524F4D80
:104B300000436F6E66696775726174696F6E0073AA
:104B4000746F72656420696E20454550524F4D0068
:104B5000436F6E66696775726174696F6E00537436
:104B600065707065722064697361626C6564004B86
:104B7000696C6C65640048656174696E6720626584
:104B8000640048656174696E672065787472756445
:104B9000657200416374696F6E3A256C610050491B
:104BA000440042616E6742616E6700592D4F666630
:104BB0007365743A25587900582D4F66667365748D
:104BC0003A25587800504944204D61783A25584498
:104BD000004472697665204D61783A25584D00444D
:104BE00072697665204D696E3A25586D00504944CA
:104BF00020443A2558640050494420493A255869D0
:104C000000436F6E74726F6C2050574D3A25584DAB
:104C1000004465616474696D653A255870005049B7
:104C20004420503A25587000436F6E74726F6C3A8E
:104C300025586800416476616E6365207175616412
:104C40003A25586100416476616E6365206C696E37
:104C50003A25586C00537461622E54696D653A258B
:104C6000587700416363656C3A255841004D61787F
:104C70002046523A255846005374617274204652B9
:104C80003A2558660053746570732F4D4D3A25537D
:104C9000650042617564726174653A256F6300470F
:104CA000656E6572616C005B6D696E5D20303D4FB5
:104CB0006666004469732E2061667465723A202529
:104CC0006970004D61782E20696E61637469766544
:104CD000005B6D696E5D20303D4F66660044697310
:104CE0002E2061667465723A2025697300537465DD
:104CF0007070657220696E616374697665005365D2
:104D0000742066616E2066756C6C00536574206655
:104D1000616E203735252525005365742066616E48
:104D2000203530252525005365742066616E2032BC
:104D300035252525005475726E2066616E204F66FC
:104D4000660046616E2073706565643A254673257A
:104D500025250046616E207370656564004D696E9F
:104D60003A25737A204D61783A25735A005A3A25CC
:104D70007832206D6D004D696E3A257379204D6152
:104D8000783A25735900593A257831206D6D004DD8
:104D9000696E3A257378204D61783A25735800582A
:104DA0003A257830206D6D004D696E3A25737A2072
:104DB0004D61783A25735A005A3A257832206D6D44
:104DC000004D696E3A257379204D61783A25735903
:104DD00000593A257831206D6D004D696E3A257382
:104DE00078204D61783A25735800583A257830205C
:104DF0006D6D003120636C69636B203D2031206D47
:104E00006D00453A257833206D6D00004D617820A6
:104E1000656E6473746F703A25735A004D696E2025
:104E2000656E6473746F703A25737A005A3A257808
:104E300032206D6D00004D617820656E6473746F73
:104E4000703A257359004D696E20656E6473746FF6
:104E5000703A25737900593A257831206D6D00003C
:104E60004D617820656E6473746F703A25735800D5
:104E70004D696E20656E6473746F703A25737800A7
:104E8000583A257830206D6D00004D617820656EB0
:104E90006473746F703A25735A004D696E20656EA5
:104EA0006473746F703A25737A005A3A2578322009
:104EB0006D6D2025647A25645A00004D6178206567
:104EC0006E6473746F703A257359004D696E206576
:104ED0006E6473746F703A25737900593A2578318E
:104EE000206D6D2025647925645900004D6178207E
:104EF000656E6473746F703A257358004D696E2047
:104F0000656E6473746F703A25737800583A25782B
:104F100030206D6D2025647825645800486F6D65DC
:104F20003A25665A00486F6D65205A3A25665A0040
:104F3000486F6D6520593A25665900486F6D6520A8
:104F4000583A256658004D61783A25667A004D61D9
:104F500078205A3A25667A004D617820593A2566BC
:104F600079004D617820583A256678004665656479
:104F7000726174650044656C6574652066696C6572
:104F8000004D6F756E74206361726400556E6D6FB5
:104F9000756E74206361726400436F6E74696E7520
:104FA00065207072696E740050617573652070724F
:104FB000696E74005072696E742066696C65004198
:104FC0006E7469206F6F7A65004D6F76652061663B
:104FD0007465723A254F61004D696E2E6469737471
:104FE00020203A254F64004261636B736C2E2020B1
:104FF000203A254F6200526574726163742020204C
:105000003A254F7200254F32204F5053206661736E
:105010007400254F31204F505320636C61737369C6
:105020006300254F30204F5053206F666600447256
:10503000792072756E3A256464004572726F7273DE
:10504000203A25646500496E666F2020203A256469
:1050500069004563686F2020203A25646F004C6F1B
:10506000616420662E20454550524F4D0053746FA9
:10507000726520746F20454550524F4D0041636367
:10508000656C65726174696F6E005A2D4A65726B4A
:10509000203A25614A004A65726B2020203A25613A
:1050A0006A004D6F76653A25615A004D6F7665202E
:1050B0005A203A25615A004D6F76652059203A25CD
:1050C0006159004D6F76652058203A25615800508F
:1050D00072696E743A25617A005072696E74205A52
:1050E0003A25617A005072696E7420593A256179C7
:1050F000005072696E7420583A25617800536574C7
:10510000204F726967696E002558322053656C65BF
:10511000637420657874722E203300255831205333
:10512000656C65637420657874722E203200255892
:10513000302053656C65637420657874722E20315D
:10514000005475726E20657874722E2033206F665D
:1051500066005475726E20657874722E2032206F4E
:105160006666005475726E20657874722E20312048
:105170006F66660054656D702E2033203A256532C7
:105180002F25453202430054656D702E2032203A9F
:105190002565312F25453102430054656D702E2061
:1051A00031203A2565302F254530024300426564A1
:1051B0002074656D703A2565622F254562024300B3
:1051C0004D6F7665204578747275646572004D6F19
:1051D0007665205A2066617374004D6F7665205A9B
:1051E000004D6F766520592066617374004D6F76AF
:1051F000652059004D6F76652058206661737400F4
:105200004D6F766520580044697361626C65207348
:105210007465707065720053657420746F206F72CE
:105220006967696E00436F6F6C646F776E004C69DD
:10523000676874733A256C6F0050726568656174B5
:1052400020416C6C20457874722E00507265686540
:1052500061742053696E676C6520457874722E0006
:10526000486F6D65205A00486F6D65205900486F82
:105270006D65205800486F6D6520616C6C00486F4B
:105280006D652064656C746100446562756767696B
:105290006E670053442063617264004578747275D0
:1052A000646572004D6F76650053657474696E674E
:1052B0007300256F6500436F6E74726F6C004261FE
:1052C000636B2001002A2A2A2A204552524F52207D
:1052D0002A2A2A2A004E6F205344206361726400F8
:1052E00049646C65005072696E74696E6700507233
:1052F000696E74696E672E2E2E004E6F00596573AD
:10530000004E2F41004F6666004F6E002743234337
:105310001F431B4317430943FE42F542E542D44273
:10532000CB42C242BE42B042A7429C4293428A4212
:105330007C42704266425C4252423D422B421C42D9
:105340001242FF41ED41E241D441C941BB41B0416C
:10535000A241934180416D415A4147413641254127
:1053600014410041EC40D840CD40BF40B140A34083
:10537000974089407B406D40614058404D404040DF
:105380002F401E400C40FA3FE83FD63FCA3FB93F8E
:10539000AA3F9C3F8F3F823F703F663F563F473F4B
:1053A000343F263F183F0A3F033FF93EEF3EE53EBC
:1053B000DD3ECF3EC13EB33EA73E973E893E7B3E9B
:1053C0007A3E6A3E5C3E4E3E4D3E3D3E2F3E213E85
:1053D000203E173E093EFB3DFA3DF13DE33DD53D04
:1053E000D43DCB3DBD3DAF3DAE3DA53D973D8E3D52
:1053F0007E3D753D653D5C3D4C3D433D333D2A3D25
:105400001A3D113D013DF43CE03CD23CC43CB63C6D
:10541000A83C9C3C8E3C7E3C723C663C563C4A3CE4
:10542000423C353C2A3C1D3C123C083CF93BEA3BE3
:10543000DA3BCD3BC33BB43BA43B9A3B903B823B26
:10544000743B683B5B3B4E3B453B413B363B263B1D
:105450001A3B133B033BF53AE43AD63AC53AB43A21
:10546000A93A983A873A763A653A543A433A323A00
:10547000233A163A0B3A023AF839EE39E439CF3981
:10548000C239B239A13990397F396E3966396439F8
:10549000633952394139393928391D3910390139BF
:1054A000EF38DB38C738B638A438903881387138CF
:1054B0006038533840383138263811380938F737D2
:1054C000E437E337D237C937C237B837A9379A3705
:1054D0009037803779376837573741372937203742
:1054E0001C370937FF36EE36DD36D136CD36C736B6
:1054F000B936B536B436AA36A4369D368A367736EE
:1055000064365336423631361D360936F535E435C4
:10551000D835CB35BE35AA359835853572355F35EA
:105520004D353E35373533352A3516350135EC34B2
:10553000E534D334C234B134A5349734843471346F
:105540005F344C343D342F341E341034FC33E93393
:10555000DA33CB33BC33AD339E338F3380336D338B
:105560005D334B3342333C332F332433163307330D
:10557000F832E932CE32B532A53298328A327832F8
:10558000095305530153FD52FA52EE52E552E052CF
:10559000D552C552BE52B652B252A952A4529B52D3
:1055A000935289527E5275526E52675260524B52DC
:1055B00039522E522552175207520052F451ED51D2
:1055C000E151DA51CE51C051AD519A5187517451C8
:1055D0006351525141512E511B510851FD50F15010
:1055E000E550D950CF50C350B750AB50A250965051
:1055F0008A507D506D505E50525046503A502E5059
:10560000225012500550F64FE74FD84FC94FBF4FA9
:10561000B44FA84F994F8C4F814F754F6C4F624FCD
:10562000584F4E4F464F3B4F304F254F1C4F0C4F5E
:10563000FC4EEC4EEB4EDB4ECB4EBB4EBA4EAA4E62
:105640009A4E8A4E894E804E704E604E5F4E564E38
:10565000464E364E354E2C4E1C4E0C4E0B4E024EC8
:10566000F34DEA4DDA4DD14DC14DB84DA84D9F4D8A
:105670008F4D864D764D6D4D5D4D534D424D354DA3
:10568000274D194D0B4DFE4CED4CDD4CD14CC34C10
:10569000B34CA74C9F4C924C854C784C6D4C634C52
:1056A000554C454C344C284C1E4C114C014CF74B7E
:1056B000ED4BDF4BD14BC54BB84BAB4BA24B9E4B8D
:1056C000934B824B764B6F4B5E4B504B3F4B314B6A
:1056D000204B134B084BF74AE64AD54AC44AB34A13
:1056E000A14A8F4A844A784A704A674A604A594AAE
:1056F000524A3F4A334A224A104A004AEF49E04997
:10570000D949D749D649C849B749AF499E4994496B
:105710008B4980496E495E494E493F492E491E4991
:105720000F49FF48EB48DB48D048C048AF48A24883
:105730009A488E487B487A486F4866485F484F4889
:10574000404835482E48214818480748F647E04762
:10575000C847BF47BB47A8479E478D477C47704710
:105760006C476647584754475347494743473C4768
:10577000294716470347F246E146D046BD46AA46AA
:10578000974689467E467146644651463F462C46BA
:1057900019460646FA45EC45E545E145DB45C84571
:1057A000B345A0459945854570455C454F45414504
:1057B0002D451C450A45FB44EC44DC44CA44BC442A
:1057C000B2449D448E447F447044614452444344F7
:1057D0003444214411440044F743F143E443D643A5
:1057E000C843B943AA439B438043674357434A4353
:1057F0003C432A430007FF805500000000000000E2
:1058000000000000000C5300000000000000000237
:10581000004014542063203D20002062203D2000E1
:10582000706C616E653A2061203D20002061745AE1
:105830003A0043757272656E745A3A0050726F6224
:10584000696E67206861642072657475726E656444
:10585000206572726F7273202D206175746F6C6594
:1058600076656C696E672063616E63656C65642E36
:10587000004175746F6C6576656C696E672064694C
:105880007361626C6564004175746F6C6576656CFC
:10589000696E6720656E61626C65640000005A2D58
:1058A00050726F62652068656967687420736574FB
:1058B00020746F3A20005265717565737453746F6C
:1058C000703A00627573793A70726F6365737369C9
:1058D0006E6700446F6F72206F70656E0062757343
:1058E000793A646F6F72206F70656E0062757379BC
:1058F0003A68656174696E6700627573793A7061C0
:105900007573656420666F72207573657220696EA9
:10591000746572616374696F6E00526573656E645D
:105920003A006F6B200020676F7420004572726F21
:10593000723A6578706563746564206C696E652081
:1059400000736B697020006F6B004563686F3A00ED
:10595000466F726D6174206572726F720043686584
:10596000636B73756D2072657175697265642077FC
:1059700068656E20737769746368696E6720626119
:10598000636B20746F2041534349492070726F74D8
:105990006F636F6C2E00204F00204C00204B0020C6
:1059A00042002041002048002043002044002052B3
:1059B00000204A00204900205000205300204600CB
:1059C000204500205A00205900205800202D20504A
:1059D00072696E7465722073746F70706564206193
:1059E0006E642068656174657273206469736162B6
:1059F0006C65642064756520746F20746869732019
:105A00006572726F722E20466978206572726F72AD
:105A100020616E642072657374617274207769749A
:105A200068204D3939392E00666174616C3A005333
:105A300044206572726F7220646964206E6F7420F6
:105A40007265636F76657221005344206572726FD0
:105A50007220666978656400534420526561642051
:105A60004572726F720053442072656164206572E2
:105A7000726F7200446F6E65207072696E74696E29
:105A8000672066696C650053442063617264206915
:105A90006E736572746564005344206361726420A0
:105AA00072656D6F766564000000000022002500BD
:105AB00028002B002E0031003400020100000501F7
:105AC00008010B01000020002300260029002C0003
:105AD0002F0032000001000003010601090100004F
