:100000000C94A42E0C94D52E0C94D52E0C94D52E95
:100010000C94D52E0C94D52E0C94D52E0C94D52E54
:100020000C94D52E0C94D52E0C94D52E0C94D52E44
:100030000C94D52E0C942DAC0C94D52E0C94D52E5E
:100040000C94D52E0D9485040C94D52E0C94D52E9D
:100050000C94D52E0C94D52E0D94B1190D949218A4
:100060000C94D52E0D9487190D9457190C94D52EF8
:100070000C94D52E0C94D52E0C94D52E0C94D52EF4
:100080000C94D52E0C94D52E0C94D52E0C94D52EE4
:100090000C94D52E0C94D52E0C94D52E0C94D52ED4
:1000A0000C94D52E0C94D52E0C94D52E0C94D52EC4
:1000B0000C94D52E0C94D52E0C94D52E0C94D52EB4
:1000C0000C94D52E0C94D52E0C94D52E0C94D52EA4
:1000D0000C94D52E0C94D52E0C94D52E0C94D52E94
:1000E0000C94D52E513356335B336733733300345E
:1000F0007F3387338F339B33A733B333C433D0334A
:100100000034DC33E833F43308A734A534A534A530
:1001100034A534A534A534A534A534A534A534A517
:1001200034A534A534A534A534A534A534A534A507
:1001300034A534A534A5AAA6BBA685A674A602A696
:100140000FA651A599A649A656A6CCA6DDA669A5D7
:100150003CA5EEA639A634A567A62CA61FA634A5F5
:1001600034A534A5D5A5E5A5F2A534A534A534A5B7
:1001700034A534A534A5AAA6BBA685A674A602A656
:100180000FA651A599A649A656A6CCA6DDA669A597
:100190003CA5EEA639A634A567A62CA61FA634A5B5
:1001A00034A534A5D5A5E5A5F2A53301290137016C
:1001B00027011D0139011B0113012B0123012F010F
:1001C000250119011F0139010F0131011101084AEF
:1001D000D73B3BCE016E84BCBFFDC12F3D6C74315B
:1001E0009ABD56833DDA3D00C77F11BED9E4BB4CB2
:1001F0003E916BAAAABE000000803F05A84CCDB27C
:10020000D44EB93836A9020C50B9918688083CA65C
:10021000AAAA2ABE000000803F000D94DC180D94AD
:1002200085160D948D160D9463160D9446190D9434
:1002300018190D947B160D945F160D9454160D9499
:100240007F160D940A190D946D160D9477160D9462
:100250004E160D945B160D9469160D944E270D9451
:1002600071160D9489160D9458160D9431190D942C
:100270004A160D9492164E414E494E495459494ED4
:1002800046CDCCCC3D0AD7233C17B7D13877CC2B01
:10029000329595E6241FB14F0A000020410000C8A6
:1002A0004200401C4620BCBE4CCA1B0E5AAEC59D27
:1002B00074456E642066696C65206C6973740042D5
:1002C0006567696E2066696C65206C69737400539C
:1002D00044207072696E74696E672062797465205B
:1002E000004E6F74205344207072696E74696E679B
:1002F0000057726974696E6720746F2066696C6557
:100300003A20006F70656E206661696C65642C2010
:1003100046696C653A20004372656174696F6E20AE
:100320006661696C6564004469726563746F7279B3
:10033000206372656174656400576569676874203D
:1003400000657874727564657220636F6F6C657296
:10035000207370656564205B302D3235355D006437
:10036000697374616E636520746F20726574726165
:100370006374207768656E2068656174696E6720B4
:100380005B6D6D5D0074656D702E20666F722072FE
:10039000657472616374696F6E207768656E20683A
:1003A000656174696E67205B435D0074656D702ED6
:1003B0002073746162696C697A652074696D652067
:1003C0005B735D005A2D6F6666736574205B737492
:1003D0006570735D00592D6F6666736574205B737D
:1003E000746570735D00582D6F6666736574205B6D
:1003F00073746570735D00504944206D6178207698
:10040000616C7565205B302D3235355D0050494497
:1004100020442D6761696E0050494420492D676171
:10042000696E0050494420502D6761696E2F6465E4
:1004300061642D74696D6500504944206472697669
:1004400065206D696E0050494420647269766520AC
:100450006D61780068656174206D616E61676572B9
:10046000205B302D335D00507265686561742074C7
:10047000656D702E205BB0435D00616363656C65E4
:10048000726174696F6E205B6D6D2F735E325D00FB
:100490007374617274206665656472617465205B53
:1004A0006D6D2F735D006D61782E206665656472D9
:1004B000617465205B6D6D2F735D0073746570737F
:1004C00020706572206D6D0052657472616374698D
:1004D0006F6E20756E646F2073706565640045787B
:1004E00074726120657874727573696F6E206F6EB7
:1004F00020756E646F207377697463682072657409
:1005000072616374205B6D6D5D004578747261206B
:10051000657874727573696F6E206F6E20756E6486
:100520006F2072657472616374205B6D6D5D005243
:10053000657472616374696F6E207A2D6C6966747C
:10054000205B6D6D5D0052657472616374696F6EDE
:10055000207370656564205B6D6D2F735D0052655F
:100560007472616374696F6E206C656E6774682065
:100570006578747275646572207377697463682036
:100580005B6D6D5D0052657472616374696F6E209E
:100590006C656E677468205B6D6D5D00456E6162B1
:1005A0006C652072657472616374696F6E20636F2D
:1005B0006E76657273696F6E205B302F315D00421D
:1005C000656420504944206D61782076616C7565C2
:1005D000205B302D3235355D004265642050494442
:1005E00020442D6761696E004265642050494420B3
:1005F000492D6761696E004265642050494420506E
:100600002D6761696E004265642050494420647220
:10061000697665206D696E0042656420504944200A
:100620006472697665206D61780042656420486572
:100630006174204D616E61676572205B302D335DA2
:100640000042656420507265686561742074656D50
:10065000702E205BB0435D004175746F6C657665EC
:100660006C206163746976652028312F3029005A27
:100670002D70726F62652062656E64696E672063BB
:100680006F7272656374696F6E2043205B6D6D5D80
:10069000005A2D70726F62652062656E64696E67C4
:1006A00020636F7272656374696F6E2042205B6DA8
:1006B0006D5D005A2D70726F62652062656E6469AF
:1006C0006E6720636F7272656374696F6E2041207C
:1006D0005B6D6D5D005A2D70726F6265205933201D
:1006E0005B6D6D5D005A2D70726F6265205833200E
:1006F0005B6D6D5D005A2D70726F626520593220FE
:100700005B6D6D5D005A2D70726F626520583220EE
:100710005B6D6D5D005A2D70726F626520593120DE
:100720005B6D6D5D005A2D70726F626520583120CF
:100730005B6D6D5D005A2D70726F6265206F66662D
:100740007365742079205B6D6D5D005A2D70726F3A
:100750006265206F66667365742078205B6D6D5DE1
:10076000005A2D70726F626520782D792D73706537
:100770006564205B6D6D2F735D005A2D70726F6222
:1007800065207370656564205B6D6D2F735D004D32
:1007900061782E207A2D70726F6265202D2062653F
:1007A0006420646973742E205B6D6D5D005A2D703A
:1007B000726F626520686569676874205B6D6D5D46
:1007C00000436F6174696E6720746869636B6E655E
:1007D0007373205B6D6D5D005A2D617869732074B1
:1007E000726176656C20616363656C6572617469C2
:1007F0006F6E205B6D6D2F735E325D00592D6178D9
:1008000069732074726176656C20616363656C65E1
:10081000726174696F6E205B6D6D2F735E325D0067
:10082000582D617869732074726176656C206163FC
:1008300063656C65726174696F6E205B6D6D2F739B
:100840005E325D005A2D6178697320616363656C67
:1008500065726174696F6E205B6D6D2F735E325DC2
:1008600000592D6178697320616363656C657261FD
:1008700074696F6E205B6D6D2F735E325D00582D55
:100880006178697320616363656C65726174696F17
:100890006E205B6D6D2F735E325D005A2062616366
:1008A0006B6C617368205B6D6D5D005920626163E4
:1008B0006B6C617368205B6D6D5D005820626163D5
:1008C0006B6C617368205B6D6D5D005061726B20B5
:1008D000706F736974696F6E205A207261697365F5
:1008E000205B6D6D5D005061726B20706F73697479
:1008F000696F6E2059205B6D6D5D005061726B20D9
:10090000706F736974696F6E2058205B6D6D5D0048
:100910005A206D6178206C656E677468205B6D6D20
:100920005D0059206D6178206C656E677468205B8E
:100930006D6D5D0058206D6178206C656E67746820
:10094000205B6D6D5D005A206D696E20706F7320A5
:100950005B6D6D5D0059206D696E20706F73205B5B
:100960006D6D5D0058206D696E20706F73205B6D3A
:100970006D5D004D61782E205A2D6A65726B205B8B
:100980006D6D2F735D004D61782E206A65726B204E
:100990005B6D6D2F735D005A2D6178697320686FF0
:1009A0006D696E67206665656472617465205B6D54
:1009B0006D2F735D00592D6178697320686F6D69C3
:1009C0006E67206665656472617465205B6D6D2F6E
:1009D000735D00582D6178697320686F6D696E676B
:1009E000206665656472617465205B6D6D2F735D53
:1009F000005A2D61786973206D61782E20666565D7
:100A00006472617465205B6D6D2F735D00592D619B
:100A1000786973206D61782E2066656564726174F3
:100A200065205B6D6D2F735D00582D6178697320B3
:100A30006D61782E206665656472617465205B6DFA
:100A40006D2F735D005A2D61786973207374657022
:100A50007320706572206D6D00592D617869732067
:100A6000737465707320706572206D6D00582D6110
:100A700078697320737465707320706572206D6D72
:100A80000053746F702073746570706572206166B6
:100A900074657220696E6163746976697479205B2C
:100AA0006D732C303D6F66665D004D61782E206958
:100AB0006E6163746976652074696D65205B6D7322
:100AC0002C303D6F66665D005072696E74657220F1
:100AD000616374697665205B735D0046696C616D66
:100AE000656E74207072696E746564205B6D5D0064
:100AF0004261756472617465004C616E677561670F
:100B00006500504944204175746F74756E652066A8
:100B100061696C6564212074696D656F757400503E
:100B20004944204175746F74756E65206661696C07
:100B30006564212054656D706572617475726520FD
:100B4000746F6F206869676800204B643A2000204A
:100B50004B693A2000204B703A200020547972658E
:100B600075732D4C7962656E2050494400205065A4
:100B70007373656E20496E74656772616C2052757F
:100B80006C652050494400204E6F204F766572738B
:100B9000686F6F74205049440020536F6D65204F7B
:100BA00076657273686F6F74205049440020436CFF
:100BB000617373696320504944002054753A2000E2
:100BC000204B753A2000206D61783A2000206D6935
:100BD0006E3A200020643A200020626961733A2056
:100BE00000504944204175746F74756E65207374AC
:100BF000617274004E6F2063617365206C69676871
:100C00007473004D617854656D703A004469616D8C
:100C1000657465723A00416363656C6572617469FD
:100C20006F6E3A004D617853706565643A004A65AD
:100C3000726B3A004D617842656454656D703A009C
:100C40005072696E746572547970653A436172745A
:100C5000657369616E005A54726176656C416363B5
:100C6000656C3A005954726176656C416363656CDA
:100C70003A005854726176656C416363656C3A0062
:100C80005A5072696E74416363656C3A00595072D0
:100C9000696E74416363656C3A00585072696E7492
:100CA000416363656C3A005A53697A653A00595357
:100CB000697A653A005853697A653A005A4D617805
:100CC0003A00594D61783A00584D61783A005A4DD2
:100CD000696E3A00594D696E3A00584D696E3A0096
:100CE00052657472616374696F6E556E646F537090
:100CF0006565643A0052657472616374696F6E551C
:100D00006E646F45787472614C6F6E674C656E6788
:100D100074683A0052657472616374696F6E556EDF
:100D2000646F45787472614C656E6774683A0052FE
:100D3000657472616374696F6E5A4C6966743A00C7
:100D400052657472616374696F6E53706565643A5D
:100D50000052657472616374696F6E4C6F6E674C9C
:100D6000656E6774683A0052657472616374696F86
:100D70006E4C656E6774683A004A65726B5A3A0049
:100D80004B656570416C697665496E746572766114
:100D90006C3A004A65726B58593A005072696E7429
:100DA0006C696E6543616368653A00454550524F12
:100DB0004D3A004175746F6C6576656C3A005A5017
:100DC000726F62653A00436173654C69676874735A
:100DD0003A00537570706F72744C6F63616C466942
:100DE0006C616D656E746368616E67653A0053751A
:100DF00070706F72744731304731313A005A486F22
:100E00006D65506F733A0059486F6D65506F733A56
:100E10000058486F6D65506F733A005A486F6D65A2
:100E20004469723A0059486F6D654469723A0058D6
:100E3000486F6D654469723A00536F6674776172EA
:100E400065506F7765725377697463683A004C43F5
:100E5000443A0046616E323A300046616E3A0053C1
:100E600044436172643A0048656174656442656434
:100E70003A004D6978696E67457874727564657279
:100E80003A004E756D45787472756465723A004922
:100E90006E7075744275666665723A00426175647B
:100EA000726174653A00696E666F3A436F6E746979
:100EB0006E75652066726F6D20666174616C20735B
:100EC00074617465000054657374696E67206661AF
:100ED00074616C206572726F720029203D20002CB5
:100EE0000042656E64696E672061742028004A6163
:100EF0006D20646562756767696E673A00436F6E5F
:100F000066696775726174696F6E206C6F61646584
:100F1000642066726F6D20454550524F4D2E004340
:100F20006F6E66696775726174696F6E2073746F36
:100F300072656420746F20454550524F4D2E00431A
:100F40006F6C6420657874727573696F6E20646964
:100F500073616C6C6F77656400436F6C64206578B7
:100F600074727573696F6E20616C6C6F7765640065
:100F700054726967676572696E6720776174636828
:100F8000646F672E204966206163746976617465B9
:100F9000642C20746865207072696E7465722077A5
:100FA000696C6C2072657365742E00576174636898
:100FB000646F672064697361626C65640041757475
:100FC0006F726574726163743A00205A4A65726B7D
:100FD0003A004A65726B3A0020746F2000536574C2
:100FE00020766F6C756D65747269632065787472B4
:100FF0007573696F6E20666F7220657874727564A0
:101000006572200044697361626C656420766F6C60
:10101000756D657472696320657874727573696F34
:101020006E20666F72206578747275646572200038
:10103000205052454845415400505245484541547E
:101040005F4245443A00205A533A002059533A002F
:1010500058533A00454D455247454E43595F50411C
:10106000525345523A3100505245484541543A3165
:1010700000504155534553544F503A3100544F4757
:10108000474C455F4C49474854533A3000534F460C
:1010900054574152455F504F5745523A30005A5FBE
:1010A00050524F42453A31004155544F4C455645F8
:1010B0004C3A3100454550524F4D3A31004155545C
:1010C0004F5245504F52545F54454D503A310050A5
:1010D000524F47524553533A31004649524D5741BA
:1010E00052455F4E414D453A52657065746965726F
:1010F0005F312E302E3420434F4D50494C45443AF9
:101100004A616E2020392032303139204649524D13
:10111000574152455F55524C3A68747470733A2F78
:101120002F6769746875622E636F6D2F72657065C5
:10113000746965722F52657065746965722D4669B0
:10114000726D776172652F2050524F544F434F4C50
:101150005F56455253494F4E3A312E30204D414350
:1011600048494E455F545950453A4D656E64656C2B
:101170002045585452554445525F434F554E543ABA
:10118000352052455045544945525F50524F544FB7
:10119000434F4C3A330050696E2063616E206E6F8E
:1011A0007420626520736574206279204D34322C7E
:1011B00020697320696E2073656E73697469766542
:1011C0002070696E732120002069732000496C6CC7
:1011D0006567616C20532076616C756520666F725F
:1011E000204D34320020746F2000536574206F75D9
:1011F000747075743A2000000136372603023C3DB6
:10120000380E0F2E303E12130D0C0A081A1C18242B
:10121000221E403B2C0D0E35556E6B6E6F776E2087
:10122000636F6D6D616E643A004672616E636169F1
:101230007300456E676C6973680000000426044003
:1012400000000096000000044C0400000000BB00F9
:101250000000044D0400000000BC000000042E0447
:101260000000000090000000042A04000000008F2D
:10127000000000042B04000000008E000000042C7D
:1012800004000000008D000000042904000000009C
:101290008C0000000413040000000055000000044E
:1012A00012040000000054000000041104000000BB
:1012B000005300000004160400000000510000006C
:1012C0000415040000000050000000041404000095
:1012D00000004F000000040F040000000038000070
:1012E00000040E040000000037000000040D04009C
:1012F00000000035000000040C0400000000340071
:101300000000040B040000000033000000040A0485
:10131000000000003100000004090400000000305B
:10132000000000040804000000002F00000000007E
:101330000000000000890000000000000000000024
:10134000880000000000000000000086000000008F
:101350000000000000008500291203AB26000000F9
:10136000000000321203A42600000000000000006C
:1013700004D404000000002601000004D30400008F
:1013800000002501000004D2040000000024010038
:101390000004D104000000002301000004D0040078
:1013A0000000002201000004CF040000000028011A
:1013B0000000010000000000002101000003820481
:1013C000000000000A010000038104000000003F4B
:1013D000000000038004000000003E000000037FC6
:1013E00004000000003D000000037E040000000037
:1013F0003C00C91B87127C12711266125B125012DC
:101400004512A7169C16911686167B167016651641
:101410003A125A16C91BC912BE12B312A8129D1253
:101420009212C91B211316130B130013F512EA12A3
:10143000DF12D41237132C134D134213C91B63133D
:101440005813B013C91BA5139A138F138413791360
:101450006E13C91BE713DC13D113C613BB130200B1
:10146000001100F21302000007001414020000092A
:10147000002214035804020034140320040200382C
:101480001402000003003C14020000080042140291
:10149000000006005214000003DB040000000037C7
:1014A000010000030704000000003B0000000306E9
:1014B00004000000003A000000025E14000000007A
:1014C0000F000000026514000000004E0000000242
:1014D0006C140000000039000000027314000000CA
:1014E0000087000000027A14000000008400000061
:1014F000041004000000008B0000000281140000B2
:101500000000E400000003B40400000000D200006A
:101510000003D604000000002901000003B204000B
:10152000000000D000000003C804000000001F01FC
:1015300000000288140000000021010000028F1446
:10154000000000001100000004BD0400001000E3D2
:1015500000000003B90400001000E100000003B81F
:101560000400001000E000000003B60400001000BA
:10157000DF00000003B50400001000DE00000003DF
:10158000BE0400001000DD00000003B704000010DE
:1015900000DC00000004B60F00000000090100009C
:1015A00004B50F000000000801000004B40F0000A3
:1015B00000000701000000000000000000F2000031
:1015C0000000000000000000AB0000000000000070
:1015D00000000070000000000000000000006F002C
:1015E000000003E803000000002D01000003881341
:1015F000000000002C01000004F203000000002A9B
:1016000001000001000000000000CB00C91BF9141C
:10161000EE14E314D814CD14C214B714701DAC1416
:10162000A1149614C91B3B15301525151A150F1555
:101630000415C91B88157D15721567155C155115A4
:101640004615C91BA9159E159315D515CA15BF15A5
:10165000B4150116F615EB15E0150000042F040073
:101660000000009B000000042204400000009500E0
:101670000000042604200000009A00000004250455
:1016800020000000990000000424042000000098BD
:101690000000000423042000000097000000042242
:1016A000042000000094000000042D04000000004D
:1016B00093000200000C000C160200000700241624
:1016C000020000080032160200000400421603F077
:1016D0000304004A1682000004005216C91BA71614
:1016E0009C16911686167B16701665165A16000003
:1016F00000000000000000130100000000000000D6
:101700000000F4000000000000000000001D0100C7
:101710000000000000000000F400000000000000D5
:10172000000000F500000000000000000000F400D0
:10173000000000000000000000D6000000000000D3
:1017400000000000D500000002B216000010000DDD
:1017500000000002B916000010000E010000027F18
:101760001E000000001000000002C0160000100063
:10177000D900000002401E000010000F000000020F
:10178000391E000010000E00000004570410000075
:1017900000CA00000003B40410000000D2000000E2
:1017A000045204100000007E0000000448041000F1
:1017B0000000B100000002D51610000000CB0000B0
:1017C00000041F0410000000B000000004610410B9
:1017D0000000002400000004620410000000250046
:1017E000000003C404040000004A000000034B048E
:1017F000100004004900000003C50410000400C9E3
:1018000000000002471E000010000B000000000056
:1018100000000000001C01000000000000000000AB
:10182000160100000000000000000015010000008B
:101830000000000000001401000000000000000093
:1018400000E000000000000000000000DA000000DE
:1018500000000000000000DF0000000000000000A9
:101860000000DA00000000000000000000E10000BD
:101870000000000000000000DA000000000000008E
:10188000000000DE00000000000000000000DA00A0
:10189000000000000000000000DD0000000000006B
:1018A00000000000DA00000000000000000000DC82
:1018B00000000000000000000000DA00000003E863
:1018C00003000000002D01000003D7040000000009
:1018D0002C01000004D804000000002B01000001CE
:1018E00000000000000029010000000000000000CE
:1018F00000F600000000000000000000F4000000FE
:1019000000000000000000D4000000000000000003
:101910000000D300000000000000000000CF000025
:101920000000000000000000CE00000000000000E9
:10193000000000CD00000000000000000000CC000E
:10194000000002C716000000000601000002631E2E
:101950000000000021000000024E1E0000000022D6
:10196000000000026A1E000000001F000000025577
:101970001E000000002000000002711E0000000098
:101980001D000000025C1E000000001E000000039D
:101990000004000010001600000003FF0300001008
:1019A000001500000003FE030000100014000000FA
:1019B000034404000000002E00000002CE160000C8
:1019C000000023000000033A04000000002800008B
:1019D000000462040000000025000000046104000F
:1019E00000000024000000034304000010001C005D
:1019F0000000033104000010001B00000003380445
:101A0000000000001A000000034704000000001856
:101A1000000000033704000000001700000002D59A
:101A20001600000000CB000000045204000000007B
:101A30007E00000004480400000000B10000000423
:101A40001F0400000000B000000004570400000064
:101A500000CA00000003FD03000010001300000096
:101A6000000000000000006E000000000000000008
:101A700000006D000000000000000000006C00008D
:101A800000000000000000006B00000000000000EB
:101A90000000006A00000000000000000000690073
:101AA00000000000000000000068000000000000CE
:101AB0000000000067000000000000000000006659
:101AC00000000000000000000000650000000000B1
:101AD00000000000006400000000000000000000A2
:101AE0006300000000000000000000620000000031
:101AF0000000000000006100000000000000000085
:101B00000060000000000000000000005F00000016
:101B1000000000000000005E000000000000000067
:101B200000005D000000000000000000005C0000FC
:101B300000000000000000005B000000000000004A
:101B40000000005A000000000000000000005900E2
:101B5000000000000000000000580000000000002D
:101B6000000000005700000003C62410000000031E
:101B700000000003E8030000000004000000010072
:101B80000000000000F40000000100000000000060
:101B9000C900000003F403010002004D0000000230
:101BA000781E02000000C900000003F703060000D1
:101BB000004A00000003F603020004004900000090
:101BC00003F503010002004800000003E8030000E1
:101BD00000000A00000000000000000000390100C1
:101BE00000000000000000003801000000000000BC
:101BF000000000A800000000000000000000A70096
:101C0000000000000000000000A60000000000002E
:101C100000000000A500000000000000000000130C
:101C200001000000000000000000F40000000000BF
:101C30000000000000200100000000000000000083
:101C4000F4000200000900DC160F170417F916EE65
:101C5000163B17301725171A17C91B0118F617EB73
:101C600017E017D517CA17BF17B417A9179E1793F0
:101C7000178817BE1B7D17721767175C1751174619
:101C8000172D18221817180C184318381859184E01
:101C9000186F18641885187A189B189018B118A630
:101CA00018DD18D218C718BC180919FE18F318E85F
:101CB0001835192A191F191419C91B531AA3199871
:101CC000198D19821977196C19611956194B19B99F
:101CD000194019C91BDA19CF19C419B919AE19C994
:101CE0001B531A481A3D1A321A271A1C1A111A06BF
:101CF0001AFB19F019E5197F1A741A691A5E1AABE2
:101D00001AA01A951A8A1AD71ACC1AC11AB61A0327
:101D10001BF81AED1AE21A2F1B241B191B0E1B5B52
:101D20001B501B451B3A1B871B7C1B711B661BC969
:101D30001BBE1BB31BA81B9D1B921BC91BDF1BD407
:101D40001BF51BEA1B0B1C001C371C2C1C211C1632
:101D50001C5265717565737450617573653A0052F4
:101D6000657175657374436F6E74696E75653A005D
:101D7000000002421C00000000A20005CC04040088
:101D8000491C058A130400511C2F2F2061637469BC
:101D90006F6E3A726573756D650044656C65746944
:101DA0006F6E206661696C65640046696C652064CD
:101DB000656C65746564000200001400591C05CD53
:101DC000040400811C0310270200891C0310270251
:101DD000008D1C0310270200911C031027020095A0
:101DE0001C0310270200991C03102702009D1C826F
:101DF00000000400A11C0589130400A91C05881318
:101E00000400B11C2F2F20616374696F6E3A7061FA
:101E100075736500696D706F7274616E743A2046F7
:101E2000696C616D656E74206368616E67652072B0
:101E30006571756972656421000200000D00B91CAE
:101E40000200000600D31C0200000C00DF1C03FC93
:101E5000030400F71C03FB030400FF1C03FA030444
:101E600000071D03EF0304000F1D03EE030400171A
:101E70001D03ED0304001F1D0200000400271D02C6
:101E8000000006002F1D01000001003B1D0310276C
:101E900002003D1D0310270200411D031027020010
:101EA000451D4A616D20636F6E74726F6C206469AA
:101EB0007361626C65643A0005CC040400491D003E
:101EC0000000000000000000002020203F2E3F3FC7
:101ED0000020486F6D696E6700206A616D200020E8
:101EE0006465632000206465662000200004000310
:101EF0000044656275674C6576656C3A005072699E
:101F00006E7465724D6F64653A434E43005072695A
:101F10006E7465724D6F64653A4C61736572005002
:101F200072696E7465724D6F64653A464646005A32
:101F3000206A65726B2077617320746F6F206C6FFD
:101F4000772C2073657474696E6720746F20005855
:101F500059206A65726B2077617320746F6F206CF3
:101F60006F772C2073657474696E6720746F20001E
:101F7000496E76616C696420617263005761726EAC
:101F8000696E673A005A204F6666736574206E6FFB
:101F90007420636F6D70757465642064756520745A
:101FA0006F206572726F7273005A204F6666736598
:101FB000742073746F726564005A204F666673658F
:101FC00074206E6F7420636F6D7075746564206427
:101FD000756520746F206572726F72730044657648
:101FE000696174696F6E206265747765656E206DD6
:101FF0006561737572656D656E7473207765726562
:1020000020746F6F206269672C20706C6561736546
:10201000207265706561742E00205A5F4F464653EA
:1020200045543A0020595F4F46465345543A0058AC
:102030005F4F46465345543A0052656C6174697669
:102040006520706F736974696F6E696E67004162B5
:10205000736F6C75746520706F736974696F6E69E6
:102060006E6700473332206C6576656C696E672059
:102070006661696C656421004733302070726F625D
:10208000696E67206661696C65642100473239209A
:102090006C6576656C696E67206661696C65642144
:1020A0000041646A7573746564207A206F72696791
:1020B000696E005A2D70726F62652061766572617B
:1020C0006765206865696768743A002500F00F2C21
:1020D00000A00F3300500F3A00000F4300B00E4D28
:1020E00000600E5800100E6300C00D7000700D7E71
:1020F00000200D9000D00CA300800CB900300CD251
:1021000000E00BF000900B1101400B3701F00A6367
:1021100001A00A9801500AD601000A1E02B0096FF8
:10212000026009D00210094003C008C103700854BE
:10213000042008FC04D007B70580078C0630076828
:1021400007E006550890064E0940064B0AF0053296
:102150000BA005140C5005D80C00058C0DB004180C
:102160000E60048F0E1004F00EC0033A0F7003735C
:102170000F2003BD0F8002DC0F0802E90FB801F247
:102180000F6801F80F1801FC0FC800FF0F0000488E
:1021900000901A4800A00F5800000F6C00600E84D9
:1021A00000C00DA400200DD000800C1001E00B58E1
:1021B00001400BC001A00A4C02000A08036009F8A4
:1021C00003C00828052008B00680075408E0061858
:1021D0000A4006C80BA005300D0005400E6004FC47
:1021E0000EC003740F2003BC0F8002E00FE001F467
:1021F0000FF000FB0FC800FC0FA0000400501D7C76
:1022000000D009A4001009CC008008F40010081CBC
:1022100001B807440168076C0128079401E806BC6F
:1022200001B806E40188060C026006340238065C38
:102230000218068402F005AC02D805D402B805FCE9
:102240000298052403800574035005C4032805146F
:102250000400056404D804B404B0042C058004A46C
:102260000558041C062804940600040C07D803AC87
:1022700007A8034C087803EC0848038C092003A442
:102280000AD0021C0BA802AC0C2802FC0C0802C4E9
:102290000DB801140E9801B40E38012C0FE0005453
:1022A0000FB8007C0F8800A40F4800F40F28FFFC33
:1022B0000FC0F9000000008C030800AE035000D6E8
:1022C00003A000F703F000180440013804900159FE
:1022D00004E0017A0430029A048002BB04D002FCBC
:1022E0000470032605C003860630079709A00F7502
:1022F0000D201C520E401F1F0F6022FF0F803E0456
:1023000000081D900058091C01B007A801C8063438
:10231000023006C002C0054C036805D803180564E6
:1023200004D004F00498047C05600408063004948A
:102330000600042007D003AC07A80338088003C4B4
:1023400008580350093003DC090803680AD802F46E
:102350000AB002800B88020C0C6002980C30022438
:102360000DF801B00DC0013C0E8001C80E300154C3
:102370000FB800B40F2800E00F00000400401D90CB
:102380000060091C01B007A801D00634023806C05D
:1023900002C8054C036805D80318056404D804F086
:1023A0000498047C056004080630049406000420A8
:1023B00007D003AC07A80338088003C408580350AB
:1023C000093003DC090803680AE002F40AB8028055
:1023D0000B88020C0C6002980C3002240DF801B03E
:1023E0000DC0013C0E8001C80E3001540FB800B47E
:1023F0000F2800E00F000004000016D800C006AC53
:102400000178058002C004540348042804E803FC52
:10241000049803D0055003A40618037807D8024C8B
:1024200008A80220097002F4093802C80A08029CB0
:102430000BD001700C9001440D5001180EF800EC07
:102440000E8800C00F00000400681D4C00500B9463
:10245000005809DC0050082401A8076C012807B4C3
:1024600001C006FC017006440228068C02F005D467
:1024700002B8051C03880564035805AC033005F455
:102480000310053C04E8048404C804CC04A8041424
:102490000590045C057004A4055804EC0538043468
:1024A0000620047C060804C406F0030C07D8035475
:1024B00007C8039C07B003E40798032C0880037443
:1024C000087003BC085803040948034C09300394FE
:1024D000091803DC090803240AF0026C0AE002B4BC
:1024E0000AC802FC0AB002440BA0028C0B8802D47A
:1024F0000B70021C0C5802640C4002AC0C2802F455
:102500000C10023C0DF001840DD801CC0DB8011463
:102510000E98015C0E7001A40E4801EC0E180134F7
:102520000FD8007C0F8800C40F0800FC0F000000CB
:10253000000000000000000000000000000000009B
:10254000000000000000000000000000000000008B
:102550000000000000401F450060094F0010095CAA
:1025600000C0086B0070087D0020089200D007AC06
:10257000008007CC003007F400E006230190065EDF
:10258000014006A601F005FF01A0056D025005F30C
:102590000200059603B0045A046004400510044884
:1025A00006C0036E077003A8082003EB09D00223BE
:1025B0000B8002410C3002390DE001040E9001A2A3
:1025C0000E4001170FF000690FA000A20F5000C6C7
:1025D0000F0000DD0FB0FFEB0F60FF0400700DD89F
:1025E000004804AC0158038002D80254038002283A
:1025F000043802FC040002D005C801A40698017842
:102600000770014C08480120091801F409F000C8BE
:102610000AC8009C0BA000700C7000440D38001814
:102620000E0000EC0EA8FFC00FE8FE0400001B54D3
:10263000006009640010097400C008840070089CE0
:10264000002008B800D007D8008007000130072C10
:1026500001E00668019006AC0140060002F0056842
:1026600002A005E0025005740300052404B004F044
:10267000046004DC051004E406C0030408700330A1
:10268000092003780B8002600DE001A80E4001686C
:102690000FA000C00F0000E80F60FF0400801AD8F0
:1026A000009808AC012007800250065403C8052892
:1026B000045805FC040005D005B004A4066804789D
:1026C0000728044C08E8032009B003F4097003C884
:1026D0000A38039C0BF802700CB002440D68021813
:1026E0000E0802EC0E8801C00F8800F00F000000F9
:1026F00000A00F5C006009690010097900C0088C17
:10270000007008A2002008BD00D007DE0080070589
:102710000130073401E0066D019006B20140060762
:1027200002F0056D02A005E80250057B0300052BB1
:1027300004B004F8046004EB06C003350920037FED
:102740000B8002650DE001B00E40011D0FF0004846
:102750000FC8006C0FA000ED0F60FFFE0F48FE5386
:10276000656C65637445787472756465723A003A95
:1027700000546172676574457874720054617267C1
:1027800065744265643A00EF269B262B26DB250004
:10279000000000000053254724F7237B23FF22B3CA
:1027A00022FB218F21CB201C151C1400000022438A
:1027B000141F1F132E1B315072696E7465722073C3
:1027C000657420696E746F206472792072756E2052
:1027D0006D6F646520756E74696C207265737461C9
:1027E00072742100206D61726B6564206465636F93
:1027F00075706C656400206D61726B656420646542
:1028000066656374003A20776F726B696E67003A91
:102810002074656D702073656E736F7220646566D9
:10282000656374006578747275646572200068650C
:102830006174656420626564000000420FA10716A0
:1028400005D0030D038B022E02E801B2018601635D
:102850000145012C0117010401F4000000000000F3
:10286000000000000000000000000024F403D95024
:10287000C38EB1C2A23D96828B3582127AE37281F9
:102880006CCB66A861015DC758EB546151204E1EA8
:102890004B5648C14559431A41013F093D2F3B71F1
:1028A00039CD374036C93465331432D430A32F8044
:1028B0002E6B2D632C672B752A8E29B028DC2710F0
:1028C000274B268F25D9242B248223E0224322ACB8
:1028D000211A218D200420801F001F841E0C1E97AA
:1028E0001D261DB81C4E1CE61B821B201BC11A6432
:1028F0001A0A1AB2195D190A19B9186A181C18D1DE
:102900001788174017FA16B51673163116F115B356
:102910001576153A150015C7148F1458142214EEA5
:1029200013BA13881356132513F612C71299126C93
:102930001240121512EB11C111981170114811219A
:1029400011FB10D610B1108D106910461024100222
:1029500010E10FC00FA00F800F610F420F230F0671
:102960000FE80ECB0EAF0E930E770E5C0E410E27C6
:102970000E0D0EF30DDA0DC10DA80D900D780D6042
:102980000D490D320D1B0D050DEF0CD90CC30CAE0E
:102990000C990C850C700C5C0C480C350C210C0E41
:1029A0000CFB0BE80BD60BC40BB20BA00B8E0B7DF4
:1029B0000B6B0B5A0B4A0B390B290B180B080BF836
:1029C0000AE90AD90ACA0ABB0AAC0A9D0A8E0A8019
:1029D0000A710A630A550A470A390A2C0A1E0A11A3
:1029E0000A040AF709EA09DD09D009C409B709ABE5
:1029F000099F09920987097B096F09630958094CE6
:102A000009410936092B09200915090A090009F5A8
:102A100008EB08E008D608CC08C208B808AE08A43D
:102A2000089A08900887087D0874086B08610858A0
:102A3000084F0846083D0834082C0823081A0812D5
:102A40000809080108F807F007E807E007D807D0E9
:102A500007C807C007B807B007A807A107526571E4
:102A60007565737453746F703A00627573793A7058
:102A7000726F63657373696E6700446F6F72206F66
:102A800070656E00627573793A646F6F72206F7053
:102A9000656E00627573793A68656174696E670086
:102AA000627573793A70617573656420666F722020
:102AB0007573657220696E746572616374696F6E97
:102AC00000526573656E643A006F6B200020676F7B
:102AD0007420004572726F723A6578706563746530
:102AE00064206C696E652000736B697020006F6BE9
:102AF000004563686F3A00466F726D6174206572BD
:102B0000726F7200436865636B73756D20726571D7
:102B10007569726564207768656E20737769746380
:102B200068696E67206261636B20746F2041534354
:102B300049492070726F746F636F6C2E0057726F0B
:102B40006E6720636865636B73756D00631358135C
:102B5000536F6674776172652052657365740057B0
:102B600061746368646F67205265736574004272B4
:102B70006F776E206F7574205265736574004578A9
:102B80007465726E616C20526573657400506F7766
:102B900065725570000D0D0D0D0D0E110A04110416
:102BA0000A1111001C1F11111F0000040A0A0A0E4D
:102BB0001F1F0E001F1111111F0000001F1F1F1FDC
:102BC0001F0000040A040000000000040E150404A5
:102BD000041C005445564F00546172616E74756C4C
:102BE00061204469616D6F6E642046756C6C204392
:102BF0006F6C6F7200526570657469657220312E5A
:102C0000302E3400467265652052414D3A008200F4
:102C10000002004C2B4E65656473206C616E677515
:102C20006167652073656C656374696F6E007374AA
:102C30006172740077616974000000000000000098
:102C40000000F700000000000000000000DA00446F
:102C50002C392C0000000000000000001C010000C6
:102C600000000000000000F4000000000000000070
:102C700000001B0100000000000000000017010020
:102C800000000000000000001C0100000000000027
:102C9000000000F4000000000000000000001A0125
:102CA000000000000000000000170100000000000C
:102CB000000000001C01000000000000000000F403
:102CC00000000000000000000000190100000000EA
:102CD00000000000001701000000000000000000DC
:102CE0001C01000000000000000000F400000000D3
:102CF00000000000000018010000000000000000BB
:102D0000001701742C692C5E2C532CA02C952C8A56
:102D10002C7F2CCC2CC12CB62CAB2CF82CED2CE21F
:102D20002CD72C0003102702004F2C6572726F7293
:102D30002077726974696E6720746F2066696C65AC
:102D400000504944204175746F74756E6520666942
:102D50006E6973686564202120506C61636520741E
:102D60006865204B702C204B6920616E64204B6499
:102D700020636F6E7374616E747320696E20746863
:102D80006520436F6E66696775726174696F6E2E38
:102D900068206F7220454550524F4D00446F6E655C
:102DA00020736176696E672066696C652E002F005E
:102DB0005344204361726420756E6D6F756E746547
:102DC00064005472616E73666F726D6174696F6EC8
:102DD000206D61747269783A0005CB040400032DFC
:102DE00005CB0404000B2D05CB040400132D05CBEB
:102DF0000404001B2D436172642073756363657363
:102E00007366756C6C7920696E697469616C697A36
:102E100065642E0043616E2774206F70656E2072AA
:102E20006F6F74206469726563746F72792E0A0023
:102E300043616E27742066696E6420612076616C40
:102E400069642046415431362F4641543332207054
:102E50006172746974696F6E2E0A006572726F72A6
:102E6000436F64653A20000A534420696E697469AF
:102E7000616C697A6174696F6E206661696C656402
:102E80002E0A446F206E6F74207265666F726D61DA
:102E900074207468652063617264210A4973207428
:102EA0006865206361726420636F72726563746C1D
:102EB0007920696E7365727465643F0A4973206393
:102EC00068697053656C6563742073657420746FF2
:102ED0002074686520636F72726563742076616C1C
:102EE00075653F0A446F657320616E6F7468657223
:102EF0002053504920646576696365206E6565647A
:102F000020746F2062652064697361626C65643F40
:102F10000A49732074686572652061207769726957
:102F20006E672F736F6C646572696E672070726F65
:102F3000626C656D3F00534420696E697420666160
:102F4000696C00004175746F6C6576656C206D610D
:102F5000747269782072657365740025206F6E2025
:102F600000202F20004A616D207369676E616C201C
:102F700073746570733A00696D706F7274616E740A
:102F80003A4578747275646572206A616D20646573
:102F9000746563746564004865617465722F736558
:102FA0006E736F72206572726F7200446973616232
:102FB0006C696E6720616C6C206865617465727302
:102FC0002064756520746F2064657465637465643E
:102FD0002073656E736F72206465666563742E007E
:102FE000206465672E204300206D656173757265EE
:102FF0006420004572726F723A436F756C64206E84
:103000006F7420686F6C642074656D706572617494
:103010007572652000206D730020616674657220F2
:10302000004572726F723A54656D702E207261693C
:1030300073656420746F20736C6F772E20526973F0
:1030400065203D20004F6E652068656174657220C3
:103050007365656D73206465636F75706C6564205E
:1030600066726F6D20746865726D6973746F72201B
:103070002D2064697361626C696E6720616C6C20DD
:10308000666F7220736166657479210048656174AA
:103090006572206465636F75706C65640048656176
:1030A0007465642062656420657863656564656441
:1030B000206D61782074656D7065726174757265DC
:1030C000210020453A00205A3A00583A0020443066
:1030D0003A0020403A002042403A00205241570036
:1030E0002044423A0020423A00202F00543A005334
:1030F000706565644D756C7469706C793A00466CE6
:103100006F774D756C7469706C793A0046616E73B7
:10311000706565643A00206D696E0020686F757295
:10312000732000206461797320005072696E7469A5
:103130006E672074696D653A006D20005072696E8B
:103140007465642066696C616D656E743A005072D6
:103150006F746F636F6C2076657273696F6E206336
:1031600068616E6765642C20757067726164696E52
:103170006700446574656374656420454550524F2B
:103180004D2076657273696F6E3A00457874722EC1
:10319000004550523A3320004550523A3220004503
:1031A00050523A3120004550523A3020005A2D708A
:1031B000726F62652073746174653A007A5F6D693D
:1031C0006E3A004C2000482000795F6D696E3A002D
:1031D000785F6D696E3A00656E6473746F7073200A
:1031E0006869743A2000004D61726B656420616CFF
:1031F0006C206578747275646572732061732075D4
:103200006E6A616D6D65642E00204F00204C0020B9
:103210004B00204200204100204800204300204471
:1032200000205200204A0020490020500020530076
:10323000204600204500205A002059002058002038
:103240002D205072696E7465722073746F70706592
:103250006420616E642068656174657273206469BE
:103260007361626C65642064756520746F20746896
:103270006973206572726F722E20466978206572BC
:10328000726F7220616E6420726573746172742053
:1032900077697468204D3939392E00666174616C24
:1032A0003A005344206572726F7220646964206E24
:1032B0006F74207265636F766572210053442065D8
:1032C00072726F722066697865640053442052659B
:1032D0006164204572726F720053442072656164AC
:1032E000206572726F7200446F6E65207072696E35
:1032F00074696E672066696C65000000000000005C
:10330000000000F100000000000000000000C40008
:10331000000000000000000000F0000000000000BD
:1033200000000000C300000000000000000000F3E7
:1033300000000000000000000000F4000000000099
:103340000000000000AF00000000000000000000CE
:10335000AB00000000000000000000F300000000CF
:103360000000000000005F000000000000000000FE
:10337000005B00000000000000000000570000009B
:1033800000000000000000F300000000000000004A
:103390000000EE00000000000000000000ED000052
:1033A0000000000000000000EB001B331033053369
:1033B000FA3247333C3331332633733368335D336A
:1033C00052339F33943389337E330000000400AAC4
:1033D000330000000400B2330000000400BA3300E0
:1033E00000000400C23346696C652073656C656338
:1033F000746564002053697A653A0046696C6520FB
:103400006F70656E65643A0066696C652E6F7065F5
:103410006E206661696C656400000021002400274D
:10342000002A002D003000330001010000040107D4
:10343000010A01010210202008081020401020403D
:103440008002010201080402010102040810204068
:103450008080402010080402018004020180402086
:1034600010080402010804020101020408102040AF
:1034700080010204081020408005050505070508A5
:10348000080808020202020A0A08080404040401E7
:103490000101010101010103030303030303030409
:1034A0000707070C0C0C0C0C0C0C0C020202020699
:1034B000060606060606060B0B0B0B0B0B0B0BDFAB
:1034C00033D833D133CA330000003FCDCC4C3D0A52
:1034D000D7A33B6F12033A17B75138ACC5A73600D4
:1034E000401454494E46004E414E00436F6E66698B
:1034F0006775726174696F6E20726573657420748C
:103500006F2064656661756C74732E008025000001
:1035100040380000004B0000807000000096000062
:10352000C0DA000000E10000002C010008B2010038
:1035300000C2010000F401000084030090D00300E9
:1035400000E803000008070020A1070000100E009B
:1035500040420F0060E316000000000052657365F2
:10356000742066726F6D20436F6E66696700436FEB
:103570006E66696775726174696F6E005265736516
:103580007420454550524F4D0025656A204A616DB3
:1035900020436F6E74726F6C004D756C3A20256F0E
:1035A0006D252525202020204C61733A256F702041
:1035B00057004D756C3A20256F6D2525252020205C
:1035C000205370693A256F7052504D20005A773A57
:1035D0002578372020205A3A2578320059773A2525
:1035E0007836202020593A2578310058773A2578C6
:1035F00035202020583A25783000537461727420A9
:103600005A2D50726F6265004D6573757265202E7C
:103610002E2E005A2D4F66667365743A25587A002F
:103620004665726D6500436F6E74696E7565005016
:103630006F732E205265656C205A3A2557306D6D98
:103640000054656D702E202565632F254563024368
:10365000004D65732E204861757465757220536F37
:103660006E6465004C6974202020203A2025706229
:10367000024300457874722E20363A2025703502B8
:103680004300457874722E20353A20257034024369
:1036900000457874722E20343A202570330243009E
:1036A000457874722E20333A20257032024300454B
:1036B0007874722E20323A2025703102430045780A
:1036C00074722E20313A202570300243005072650A
:1036D0006368617566666167652054656D702E006C
:1036E00050726973652064274F726967696E65203F
:1036F0002E2E2E004175746F6C6576656C204C69BA
:10370000740043616C69627261676520457272651D
:1037100075720043616C696272616765204C6974FF
:1037200000202020203E3E3E204F6B203C3C3C00B1
:103730004E6976656C6C656D656E74204572726558
:1037400075720046696C616D656E7420676C697393
:1037500073616E74004368617566666167652064B5
:1037600065636F75706C65004465666175742053A0
:103770006F6E64652054656D702E004E6F746966BF
:1037800069636174696F6E3A00736F697420646570
:1037900067616765006C65206C697420636861759A
:1037A0006666616E74004173737572657A2D766F0B
:1037B000757320717565002A2A2A20506174696525
:1037C0006E74657A202A2A2A00416E6E756C650037
:1037D000566974657373652046616E20323A2546DA
:1037E0005325252500446973746F7273696F6E20C9
:1037F000636F72722E3A254465004D65737572656C
:10380000207A2D646973746F7273696F6E005265EC
:10381000676C616765730025506E00255070252523
:103820002500436F756368652025506C2F25504C2B
:103830000046696E20646520636F757273653A2572
:10384000647000536574205A206F66667365743A1D
:103850002554326D6D005365742059206F66667370
:1038600065743A2554316D6D005365742058206F8E
:1038700066667365743A2554306D6D005365742027
:103880007072696E74206F66667365747300486148
:103890007574657572205A2D536F6E64653A257A7A
:1038A0006800254433203320436F70696573002519
:1038B0004432203220436F70696573002544312003
:1038C0003120436F70696500254430204175637570
:1038D0006E6520436F706965002558352053656C0F
:1038E0006563742E20457874722E20360025583476
:1038F0002053656C6563742E20457874722E2035D4
:10390000002558332053656C6563742E2045787408
:10391000722E203400457874727564657573652065
:1039200036204F66660045787472756465757365F8
:103930002035204F6666004578747275646575732E
:10394000652034204F66660054656D702E20362049
:103950003A2565352F25453502430054656D702E97
:103960002035203A2565342F25453402430054651F
:103970006D702E2034203A2565332F2545330243C0
:1039800000202542436D6D00052565630200052575
:1039900065632F254563020000256F73002555667A
:1039A000206D20496D7072696D6500255566206D2A
:1039B0000025557400583A25783020593A25783139
:1039C000004D756C3A20256F6D202020453A2578F2
:1039D00034005A3A2578322020427566203A202554
:1039E0006F4200422565422F25456202000525658C
:1039F000632F25456302422565422F25456202005B
:103A0000256F73004275663A20256F42004D756C34
:103A10003A20256F6D25252520FD202020453A20C0
:103A20002578346D00466C6F773AFD20256F66254A
:103A300025252020205A3A257832000E202565625F
:103A40002F254562B020593A257831000A20256596
:103A5000632F254563B020583A257830004C616EBD
:103A6000677565004570616973736575723A2542C3
:103A7000436D6D00506572736F6E6E656C004261D0
:103A8000746F6E20646520436F6C6C6500527562C4
:103A9000616E20766572742050455400426C7565E5
:103AA0002054617065004B6170746F6E00427569DF
:103AB0006C6454616B00417563756E205265766568
:103AC00074656D656E7400005265766574656D652C
:103AD0006E74206465204C69743A00526576657492
:103AE000656D656E74206465204C69740053746163
:103AF0006E6462790053746F636B6167652064273D
:103B0000457874727573696F6E006369626C657372
:103B1000202E2E2E00417474656E64657A205465E3
:103B20006D702E005265636861756666657220452A
:103B300078747275642E00436C697175657A2070B3
:103B40006F75720049676E6F726572204D31303645
:103B50002025466900506F732E20536572766F3AA8
:103B600020256F53004175746F6C6576656C3A2043
:103B7000256C6C00436F6E74696E7565722061769A
:103B8000656320436C69630046696C616D656E74A2
:103B900020686175742F62617300546F75726E6571
:103BA0007A204465706C61636572004368616E677A
:103BB000656D656E742046696C616D656E74004359
:103BC00068616E67656D656E742046696C616D65D0
:103BD0006E74005A2042616279737465702E3A25C2
:103BE0006F596D6D00417272657420496D70726518
:103BF00073732E00546F7574206F75205269656E53
:103C00000054656D7073204D6F72740041545820DC
:103C1000706F776572206F6E2F6F666600496D70EA
:103C200072696D650046696C616D656E7420496DE1
:103C30007072696D650054656D707320496D7072A6
:103C4000657373696F6E00003A00206A6F75727356
:103C50002000496D7072696D616E746520707265C7
:103C6000746500436172746520534420696E736506
:103C700072656500436172746520534420726574F7
:103C800069726565004174742E20556E6974733ACB
:103C90002558556D6D004174742E2054656D702E3D
:103CA0002558540243004E69766561752064656C41
:103CB00074610043616C63756C6572204E69766552
:103CC0006C6C656D656E74005265676C6572205032
:103CD00033005265676C6572205032005265676C24
:103CE0006572205031005A2043616C69622E005287
:103CF00065676C6572205A3D3000526573657420AB
:103D00004D6573757265004D6F6E74726572204DEE
:103D1000657375726500466C6F77204D756C2E3A31
:103D2000256F66252525005669742E204D756C2E4D
:103D30003A256F6D2525250020423A2565622F25FD
:103D4000456202437E256F620045333A2565322F76
:103D500025453202437E256F320045323A256531D2
:103D60002F25453102437E256F310045313A2565C7
:103D7000302F25453002437E256F300020453A25FF
:103D800065632F25456302437E256F430054616DB3
:103D9000706F6E3A256F420054656C65636861729E
:103DA00067656D656E742E2E0043686172672E2004
:103DB0003C3D20454550524F4D00436F6E6669674C
:103DC00075726174696F6E0053746F636B2E203D62
:103DD0003E20454550524F4D00436F6E66696775F2
:103DE000726174696F6E004D6F74657572732041F6
:103DF0007272657465730053746F70706500436808
:103E0000617566662E204C6974004368617566664C
:103E10002E204578747275642E00416374696F6E4C
:103E20003A256C61005049440042616E6742616E00
:103E30006700592D4F66667365743A2558790058A6
:103E40002D4F66667365743A2558780050494420B2
:103E50004D61783A255844004472697665204D6179
:103E6000783A25584D004472697665204D696E3A5E
:103E700025586D0050494420443A25586400504963
:103E80004420493A2558690050574D20436F6E74BD
:103E9000726F6C3A25584D0054656D7073204D6FEC
:103EA00072743A2558700050494420503A25587091
:103EB00000436F6E74726F6C653A255868004176E6
:103EC000616E636520717561643A255861004176C1
:103ED000616E6365206C696E3A25586C005374619D
:103EE000622E54656D70733A25587700416363659F
:103EF0006C3A255841004D61782046523A25584683
:103F00000053746172742046523A2558660050611D
:103F1000732F4D4D3A25536500426175647261748B
:103F2000653A256F630047656E6572616C005B6D75
:103F3000696E5D20303D4F6666004469732E2041F6
:103F4000707265733A202569700041727265742041
:103F5000416C696D2E005B6D696E5D20303D4F6672
:103F600066004469732E2041707265733A2025699A
:103F700073004172726574204D6F746575727300C1
:103F800056656E74696C2E204D61780056656E74AE
:103F9000696C2E2037352525250056656E74696CB1
:103FA0002E2035302525250056656E74696C2E202F
:103FB00032352525250041727265742056656E7470
:103FC000696C2E005669742E2056656E74696C2ECD
:103FD0003A254673252525005669742E2056656EB0
:103FE00074696C2E004D696E3A25737A204D6178A4
:103FF0003A25735A005A3A257832206D6D004D6982
:104000006E3A257379204D61783A25735900593AF3
:10401000257831206D6D004D696E3A257378204DFD
:1040200061783A25735800583A257830206D6D0034
:104030004D696E3A25737A204D61783A25735A009E
:104040005A3A257832206D6D004D696E3A257379A4
:10405000204D61783A25735900593A257831206D01
:104060006D004D696E3A257378204D61783A25735D
:104070005800583A257830206D6D003120636C6906
:1040800063203D2031206D6D00453A257833206D49
:104090006D00004D61782042757465653A25735A4C
:1040A000004D696E2042757465653A25737A005A31
:1040B0003A257832206D6D00004D6178204275748C
:1040C00065653A257359004D696E204275746565C2
:1040D0003A25737900593A257831206D6D00004DED
:1040E00061782042757465653A257358004D696E94
:1040F0002042757465653A25737800583A25783002
:10410000206D6D00004D61782042757465653A251B
:10411000735A004D696E2042757465653A25737A4D
:10412000005A3A257832206D6D2025647A25645A2C
:1041300000004D61782042757465653A2573590019
:104140004D696E2042757465653A25737900593A58
:10415000257831206D6D2025647925645900004D46
:1041600061782042757465653A257358004D696E13
:104170002042757465653A25737800583A25783081
:10418000206D6D2025647825645800416363756552
:10419000696C3A25665A004163637565696C205AFB
:1041A0003A25665A004163637565696C20593A2562
:1041B0006659004163637565696C20583A256658F5
:1041C000004D61783A25667A004D6178205A3A258B
:1041D000667A004D617820593A256679004D6178FC
:1041E00020583A256678004176616E636500537504
:1041F00070702E206669636869657200496E736528
:1042000072657220436172746500526574697265EB
:104210007220436172746500436F6E74696E7565D8
:104220007220496D70726573732E005061757365ED
:1042300020496D70726573732E00496D7072696DDF
:104240002E206669636869657200416E7469204F4B
:104250006F7A65004465706C61632E2041707265F1
:10426000733A254F61004D696E2E646973743A2567
:104270004F64004261636B736C2E203A254F6200DD
:10428000526574726163742E203A254F7200254F77
:1042900032204F50532052617069646500254F31C0
:1042A000204F505320436C61737369712E00254F6A
:1042B00030204F5053204F666600466F6E63742E59
:1042C000206120566964653A256464004572726510
:1042D0007572732020202020203A25646500496EE5
:1042E000666F2020202020202020203A25646900AD
:1042F0004563686F2020202020202020203A25645C
:104300006F0043686172672E203C3D204545505246
:104310004F4D0053746F636B2E203D3E204545503A
:10432000524F4D00416363656C65726174696F6ED5
:10433000005A2D4A65726B3A25614A004A65726BD4
:104340003A25616A004465706C61632E3A25615AB2
:10435000004465706C61632E205A3A25615A00440E
:1043600065706C61632E20593A256159004465706F
:104370006C61632E20583A25615800496D7072694E
:104380006D2E3A25617A00496D7072696D2E205A42
:104390003A25617A00496D7072696D2E20593A256F
:1043A000617900496D7072696D2E20583A256178E7
:1043B00000536574204F726967696E00255832207A
:1043C00053656C6563742E20457874722E2033001B
:1043D0002558312053656C6563742E2045787472BE
:1043E0002E2032002558302053656C6563742E20D2
:1043F000457874722E203100457874727564657545
:1044000073652033204F6666004578747275646565
:104410007573652032204F66660045787472756446
:10442000657573652031204F66660054656D702E8A
:104430002033203A2565322F25453202430054654A
:104440006D702E2032203A2565312F2545310243EB
:104450000054656D702E2031203A2565302F25459A
:10446000300243004C69742054656D703A256562D2
:104470002F254562024300506F736974696F6E2087
:10448000457874722E00506F732E205261706964EB
:1044900065205A00506F736974696F6E205A00501E
:1044A0006F732E20526170696465205900506F73DC
:1044B0006974696F6E205900506F732E20526170BD
:1044C000696465205800506F736974696F6E205875
:1044D0000044657361637469762E204D6F74657551
:1044E0007273005265676C657A20737572204F7223
:1044F0006967696E6500526566726F69646972000A
:1045000045636C616972616765203A256C6F005084
:1045100072656865617420416C6C20457874722EF8
:1045200000507265686561742053696E676C652020
:10453000457874722E004163637565696C205A007A
:104540004163637565696C205900416363756569F2
:104550006C2058004163637565696C2058595A0096
:104560004163637565696C2044656C7461004465E2
:10457000626F677565720043617274652053440011
:104580004578747275646575736500506F736974EE
:10459000696F6E00436F6E66696775726174696FEB
:1045A0006E00256F6500436F6E74726F6C6500520C
:1045B00065746F75722001002A2A2A2A20455252FA
:1045C000455552202A2A2A2A00506173206465200A
:1045D0004361727465205344004175205265706FC9
:1045E0007300496D7072657373696F6E00496D7009
:1045F00072657373696F6E2E2E2E004E6F6E004FB4
:104600007569004E2F41004F6666004F6E0052657F
:104610007365742066726F6D20436F6E6669670004
:10462000436F6E66696775726174696F6E0052657B
:1046300073657420454550524F4D0025656A204AE8
:10464000616D20436F6E74726F6C004D756C3A2013
:10465000256F6D252525202020204C61733A256F7C
:10466000702057004D756C3A20256F6D252525204B
:104670002020205370693A256F7052504D20005A07
:10468000773A2578372020205A3A25783200597712
:104690003A257836202020593A2578310058773A43
:1046A000257835202020583A2578300053746172DF
:1046B00074205A2D50726F6265004D65617375727A
:1046C000696E67202E2E2E005A2D4F666673657414
:1046D0003A25587A00436C6F736500436F6E7469B6
:1046E0006E7565005265616C205A20506F733A25D3
:1046F00057306D6D0054656D702E202565632F2534
:1047000045630243004D6561732E2050726F6265F0
:104710002048656967687400426564202020203A5B
:1047200020257062024300457874722E20363A20AC
:10473000257035024300457874722E20353A2025C5
:104740007034024300457874722E20343A2025706C
:1047500033024300457874722E20333A202570329C
:10476000024300457874722E20323A2025703102BF
:104770004300457874722E20313A20257030024370
:1047800000507265686561742054656D7065726172
:10479000747572657300486F6D696E672E2E2E00FA
:1047A0004175746F6C6576656C2062656400436169
:1047B0006C6962726174696F6E204572726F72000B
:1047C00043616C6962726174696E6720626564003E
:1047D000202020203E3E3E204F6B203C3C3C004CA5
:1047E0006576656C696E67206572726F72004669E6
:1047F0006C616D656E7420736C697070696E6700B2
:10480000486561746572206465636F75706C65647A
:104810000054656D702E2073656E736F7220646531
:1048200066656374004E6F74696669636174696F6D
:104830006E3A006F62737472756374696F6E7300A1
:1048400062656420697320636C656172206F662005
:10485000616E79004D616B652073757265207468B7
:104860006520686561746564002A2A2A20506C6599
:104870006173652077616974202A2A2A0043616E7A
:1048800063656C0046616E20322073706565643A22
:1048900025465325252500446973746F7274696F2A
:1048A0006E20636F72722E3A254465004D65617308
:1048B00075726520646973746F7274696F6E0053EA
:1048C000657475700025506E0025507025252500F3
:1048D0004C617965722025506C2F25504C00456E37
:1048E0006453746F703A25647000536574205A20C5
:1048F0006F66667365743A2554326D6D0053657446
:104900002059206F66667365743A2554316D6D00C9
:104910005365742058206F66667365743A25543069
:104920006D6D00536574207072696E74206F6666D9
:1049300073657473005A2D70726F626520686569C3
:104940006768743A257A6800254433203320636F02
:104950007069657300254432203220636F70696589
:104960007300254431203120636F70790025443075
:10497000204E6F20636F7069657300255835205392
:10498000656C65637420657874722E203600255836
:10499000342053656C65637420657874722E2035FD
:1049A000002558332053656C6563742065787472F4
:1049B0002E2034005475726E20657874722E203665
:1049C000206F6666005475726E20657874722E20B2
:1049D00035206F6666005475726E20657874722E8D
:1049E0002034206F66660054656D702E2036203AA4
:1049F0002565352F25453502430054656D702E2001
:104A000035203A2565342F25453402430054656D21
:104A1000702E2034203A2565332F2545330243007C
:104A2000202542436D6D000525656302000525655F
:104A3000632F254563020000256F7300255566200E
:104A40006D207072696E74656400255566206D0076
:104A500025557400583A25783020593A2578310088
:104A60004D756C3A20256F6D202020453A2578340D
:104A7000005A3A2578322020427566203A20256F68
:104A80004200422565422F254562020005256563E7
:104A90002F25456302422565422F254562020025E8
:104AA0006F73004275663A20256F42004D756C3A6F
:104AB00020256F6D25252520FD202020453A202525
:104AC00078346D00466C6F773AFD20256F6625259A
:104AD000252020205A3A257832000E202565622FA5
:104AE000254562B020593A257831000A20256563B2
:104AF0002F254563B020583A257830004C616E6709
:104B00007561676500437573746F6D3A2542436D37
:104B10006D00437573746F6D00476C756520737419
:104B200069636B00477265656E205045542074615F
:104B3000706500426C7565207061706572207461EB
:104B40007065004B6170746F6E004275696C6454DF
:104B5000616B004E6F20636F6174696E6700004285
:104B6000656420636F6174696E6720736574207477
:104B70006F0042656420636F6174696E67005374EF
:104B8000616E646279004578747275646572206A3A
:104B9000616D0074656D7065726174757265732006
:104BA0002E2E2E005761697420666F722074617218
:104BB000676574006578747275646572732E00435E
:104BC0006C69636B20746F2072656865617400495D
:104BD000676E6F7265204D31303620636D6420251D
:104BE000466900536572766F20706F732E3A2025E8
:104BF0006F53004175746F6C6576656C3A20256C57
:104C00006C00436C69636B207768656E20646F6E1F
:104C1000650066696C616D656E742075702F646FD8
:104C2000776E00526F7461746520746F206D6F76BB
:104C300065004368616E67652066696C616D656ECD
:104C400074004368616E67652066696C616D656EAE
:104C500074005A2062616279737465702E3A256F10
:104C6000596D6D0053746F70205072696E740053EB
:104C70006C6F7742616E6700446561642074696D92
:104C8000650041545820706F776572206F6E2F6FEA
:104C90006666007072696E7465640046696C616D69
:104CA000656E74207072696E746564005072696E0E
:104CB00074696E672074696D6500003A0020646154
:104CC000797320005072696E746572207265616438
:104CD000792E005344206361726420696E7365729B
:104CE00074656400534420636172642072656D6F63
:104CF000766564005761697420726574722E3A2576
:104D00005855206D6D00576169742074656D702E63
:104D1000202558540243004C6576656C2064656C10
:104D200074610043616C63756C617465206C6576B9
:104D3000656C696E67005365742050330053657469
:104D400020503200536574205031005A2063616C4A
:104D500069622E00536574205A3D300052657365B8
:104D600074206D6561732E0053686F77206D6561E7
:104D7000732E00466C6F77206D756C2E203A256F70
:104D800066252525005370656564206D756C2E3A87
:104D9000256F6D2525250020423A2565622F254582
:104DA0006202437E256F620045333A2565322F2526
:104DB000453202437E256F320045323A2565312F58
:104DC00025453102437E256F310045313A25653056
:104DD0002F25453002437E256F300020453A25655A
:104DE000632F25456302437E256F43004275666647
:104DF00065723A256F420055706C6F6164696E6729
:104E00002E2E2E006C6F6164656420662E20454551
:104E100050524F4D00436F6E6669677572617469D9
:104E20006F6E0073746F72656420696E2045455023
:104E3000524F4D00436F6E66696775726174696F9A
:104E40006E00537465707065722064697361626C82
:104E50006564004B696C6C65640048656174696EDB
:104E600067206265640048656174696E67206578D3
:104E700074727564657200416374696F6E3A256C73
:104E800061005049440042616E6742616E6700599B
:104E90002D4F66667365743A25587900582D4F6614
:104EA000667365743A25587800504944204D6178FE
:104EB0003A255844004472697665204D61783A2558
:104EC000584D004472697665204D696E3A25586DDB
:104ED0000050494420443A25586400504944204930
:104EE0003A25586900436F6E74726F6C2050574DAD
:104EF0003A25584D004465616474696D653A2558DA
:104F0000700050494420503A25587000436F6E7429
:104F1000726F6C3A25586800416476616E63652053
:104F2000717561643A25586100416476616E63650C
:104F3000206C696E3A25586C00537461622E546976
:104F40006D653A25587700416363656C3A25584191
:104F5000004D61782046523A2558460053746172DC
:104F6000742046523A2558660053746570732F4D6D
:104F70004D3A2553650042617564726174653A2546
:104F80006F630047656E6572616C005B6D696E5D95
:104F900020303D4F6666004469732E20616674655B
:104FA000723A20256970004D61782E20696E616328
:104FB00074697665005B6D696E5D20303D4F666695
:104FC000004469732E2061667465723A2025697306
:104FD000005374657070657220696E6163746976E0
:104FE00065005365742066616E2066756C6C0053B5
:104FF00065742066616E203735252525005365745C
:105000002066616E203530252525005365742066A5
:10501000616E203235252525005475726E2066613B
:105020006E204F66660046616E2073706565643A57
:105030002546732525250046616E207370656564DD
:10504000004D696E3A25737A204D61783A25735A7E
:10505000005A3A257832206D6D004D696E3A2573FD
:1050600079204D61783A25735900593A25783120D5
:105070006D6D004D696E3A257378204D61783A2543
:10508000735800583A257830206D6D004D696E3A9E
:1050900025737A204D61783A25735A005A3A25785B
:1050A00032206D6D004D696E3A257379204D61781F
:1050B0003A25735900593A257831206D6D004D69B4
:1050C0006E3A257378204D61783A25735800583A26
:1050D000257830206D6D003120636C69636B203D55
:1050E0002031206D6D00453A257833206D6D00002C
:1050F0004D617820656E6473746F703A25735A0041
:105100004D696E20656E6473746F703A25737A0012
:105110005A3A257832206D6D00004D617820656E19
:105120006473746F703A257359004D696E20656E13
:105130006473746F703A25737900593A2578312079
:105140006D6D00004D617820656E6473746F703A08
:10515000257358004D696E20656E6473746F703AE4
:1051600025737800583A257830206D6D00004D6128
:105170007820656E6473746F703A25735A004D69B8
:105180006E20656E6473746F703A25737A005A3AB4
:10519000257832206D6D2025647A25645A00004DF3
:1051A000617820656E6473746F703A257359004D91
:1051B000696E20656E6473746F703A257379005957
:1051C0003A257831206D6D202564792564590000D9
:1051D0004D617820656E6473746F703A2573580062
:1051E0004D696E20656E6473746F703A2573780034
:1051F000583A257830206D6D202564782564580054
:10520000486F6D653A25665A00486F6D65205A3AB9
:1052100025665A00486F6D6520593A256659004841
:105220006F6D6520583A256658004D61783A2566BD
:105230007A004D6178205A3A25667A004D617820CF
:10524000593A256679004D617820583A25667800EC
:1052500046656564726174650044656C65746520BB
:1052600066696C65004D6F756E74206361726400D1
:10527000556E6D6F756E74206361726400436F6E5E
:1052800074696E7565207072696E74005061757313
:1052900065207072696E74005072696E7420666960
:1052A0006C6500416E7469206F6F7A65004D6F7692
:1052B000652061667465723A254F61004D696E2EF6
:1052C0006469737420203A254F64004261636B73F4
:1052D0006C2E2020203A254F620052657472616363
:1052E000742020203A254F7200254F32204F505312
:1052F000206661737400254F31204F505320636C3A
:10530000617373696300254F30204F5053206F66DF
:1053100066004472792072756E3A256464004572A5
:10532000726F7273203A25646500496E666F2020A3
:10533000203A256469004563686F2020203A25647F
:105340006F004C6F616420662E20454550524F4DD2
:105350000053746F726520746F20454550524F4D55
:1053600000416363656C65726174696F6E005A2DEC
:105370004A65726B203A25614A004A65726B2020AB
:10538000203A25616A004D6F76653A25615A004DD5
:105390006F7665205A203A25615A004D6F76652058
:1053A00059203A256159004D6F76652058203A25DD
:1053B0006158005072696E743A25617A00507269C2
:1053C0006E74205A3A25617A005072696E742059C1
:1053D0003A256179005072696E7420583A256178D7
:1053E00000536574204F726967696E00255832203A
:1053F00053656C65637420657874722E20330025C4
:1054000058312053656C65637420657874722E2062
:1054100032002558302053656C65637420657874BC
:10542000722E2031005475726E20657874722E20B1
:1054300033206F6666005475726E20657874722E24
:105440002032206F6666005475726E206578747223
:105450002E2031206F66660054656D702E2033203B
:105460003A2565322F25453202430054656D702E72
:105470002032203A2565312F2545310243005465FD
:105480006D702E2031203A2565302F25453002439E
:10549000004265642074656D703A2565622F25456C
:1054A000620243004D6F76652045787472756465BD
:1054B00072004D6F7665205A2066617374004D6FDF
:1054C0007665205A004D6F766520592066617374A9
:1054D000004D6F76652059004D6F76652058206627
:1054E000617374004D6F7665205800446973616282
:1054F0006C652073746570706572005365742074F8
:105500006F206F726967696E00436F6F6C646F77AD
:105510006E004C69676874733A256C6F0050726551
:105520006865617420416C6C20457874722E00505F
:105530007265686561742053696E676C6520457893
:1055400074722E00486F6D65205A00486F6D65209B
:105550005900486F6D65205800486F6D6520616C7B
:105560006C00486F6D652064656C74610044656211
:10557000756767696E670053442063617264004514
:1055800078747275646572004D6F7665005365744A
:1055900074696E677300256F6500436F6E74726F78
:1055A0006C004261636B2001002A2A2A2A2045529E
:1055B000524F52202A2A2A2A004E6F205344206339
:1055C0006172640049646C65005072696E74696E42
:1055D00067005072696E74696E672E2E2E004E6FD2
:1055E00000596573004E2F41004F6666004F6E00F4
:1055F0000B4607460346FF45FB45ED45E245D945C9
:10560000C945B845AF45A645A24594458B4580455B
:1056100077456E45604554454A45404536452145E8
:105620000F450045F644E344D144C644B844AD4474
:105630009F44944486447744644451443E442B44FC
:105640001A440944F843E443D043BC43B143A34361
:10565000954387437B436D435F43514345433C43FD
:105660003143244313430243F042DE42CC42BA4268
:10567000AE429D428E4280427342664254424A424A
:105680003A422B4218420A42FC41EE41E741DD41D9
:10569000D341C941C141B341A54197418B417B41B0
:1056A0006D415F415E414E414041324131412141B6
:1056B000134105410441FB40ED40DF40DE40D54051
:1056C000C740B940B840AF40A140934092408940A4
:1056D0007B40724062405940494040403040274042
:1056E00017400E40FE3FF53FE53FD83FC43FB63F71
:1056F000A83F9A3F8C3F803F723F623F563F4A3FF0
:105700003A3F2E3F263F193F0E3F013FF63EEC3E0B
:10571000DD3ECE3EBE3EB13EA73E983E883E7E3E3A
:10572000743E663E583E4C3E3F3E323E293E253E4C
:105730001A3E0A3EFE3DF73DE73DD93DC83DBA3D24
:10574000A93D983D8D3D7C3D6B3D5A3D493D383DE1
:10575000273D163D073DFA3CEF3CE63CDC3CD23CA5
:10576000C83CB33CA63C963C853C743C633C523CF4
:105770004A3C483C473C363C253C1D3C0C3C013CEB
:10578000F43BE53BD33BBF3BAB3B9A3B883B743B95
:10579000653B553B443B373B243B153B0A3BF53AC5
:1057A000ED3ADB3AC83AC73AB63AAD3AA63A9C3A2D
:1057B0008D3A7E3A743A643A5D3A4C3A3B3A253A2D
:1057C0000D3A043A003AED39E339D239C139B539E5
:1057D000B139AB399D39993998398E398839813940
:1057E0006E395B3948393739263915390139ED3881
:1057F000D938C838BC38AF38A2388E387C386938C8
:1058000056384338313822381B3817380E38FA37B3
:10581000E537D037C937B737A637953789377B375C
:105820006837553743373037213713370237F43667
:10583000E036CD36BE36AF36A03691368236733678
:105840006436513641362F36263620361336083622
:10585000FA35EB35DC35CD35B235993589357C35C2
:105860006E355C35ED55E955E555E155DE55D255BA
:10587000C955C455B955A955A2559A5596558D5532
:1058800088557F5577556D556255595552554B552D
:1058900044552F551D5512550955FB54EB54E454EE
:1058A000D854D154C554BE54B254A45491547E54C7
:1058B0006B5458544754365425541254FF53EC53E8
:1058C000E153D553C953BD53B353A7539B538F5380
:1058D00086537A536E5361535153425336532A536E
:1058E0001E5312530653F652E952DA52CB52BC52AF
:1058F000AD52A35298528C527D52705265525952F9
:10590000505246523C5232522A521F52145209529D
:105910000052F051E051D051CF51BF51AF519F5182
:105920009E518E517E516E516D516451545144516E
:1059300043513A512A511A51195110510051F05006
:10594000EF50E650D750CE50BE50B550A5509C50A9
:105950008C50835073506A505A50515041503750B8
:10596000265019500B50FD4FEF4FE24FD14FC14F12
:10597000B54FA74F974F8B4F834F764F694F5C4F73
:10598000514F474F394F294F184F0C4F024FF54E8B
:10599000E54EDB4ED14EC34EB54EA94E9C4E8F4EBA
:1059A000864E824E774E664E5A4E534E424E344E7F
:1059B000234E154E044EF74DEC4DDB4DCA4DB94DFF
:1059C000A84D974D854D734D684D5C4D544D4B4DD5
:1059D000444D3D4D364D234D174D064DF44CE44C92
:1059E000D34CC44CBD4CBB4CBA4CAC4C9B4C934CB4
:1059F000824C784C6F4C644C524C424C324C234C91
:105A0000124C024CF34BE34BCF4BBF4BB44BA44B6C
:105A1000934B864B7E4B724B5F4B5E4B534B4A4BCB
:105A2000434B334B244B194B124B054BFC4AEB4A6F
:105A3000DA4AC44AAC4AA34A9F4A8C4A824A714A0B
:105A4000604A544A504A4A4A3C4A384A374A2D4AE0
:105A5000274A204A0D4AFA49E749D649C549B44977
:105A6000A1498E497B496D496249554948493549A3
:105A700023491049FD48EA48DE48D048C948C5488E
:105A8000BF48AC48974884487D48694854484048D6
:105A90003348254811480048EE47DF47D047C04704
:105AA000AE47A047964781477247634754474547EB
:105AB0003647274718470547F546E446DB46D546AF
:105AC000C846BA46AC469D468E467F4664464B461F
:105AD0003B462E4620460E460007FF645800000055
